{
  "address": "0x5FC8d32690cc91D4c39d9d3abcBD16989F875707",
  "abi": [
    {
      "inputs": [
        {
          "internalType": "contract IGiv3Core",
          "name": "_giv3Core",
          "type": "address"
        }
      ],
      "stateMutability": "nonpayable",
      "type": "constructor"
    },
    {
      "anonymous": false,
      "inputs": [
        {
          "indexed": false,
          "internalType": "uint256",
          "name": "id",
          "type": "uint256"
        },
        {
          "indexed": false,
          "internalType": "string",
          "name": "name",
          "type": "string"
        }
      ],
      "name": "TreasuryCreated",
      "type": "event"
    },
    {
      "inputs": [],
      "name": "GIV3_CORE",
      "outputs": [
        {
          "internalType": "contract IGiv3Core",
          "name": "",
          "type": "address"
        }
      ],
      "stateMutability": "view",
      "type": "function"
    },
    {
      "inputs": [
        {
          "internalType": "string",
          "name": "name",
          "type": "string"
        }
      ],
      "name": "createTreasury",
      "outputs": [
        {
          "internalType": "contract Giv3Treasury",
          "name": "",
          "type": "address"
        }
      ],
      "stateMutability": "nonpayable",
      "type": "function"
    },
    {
      "inputs": [
        {
          "internalType": "uint256",
          "name": "id",
          "type": "uint256"
        }
      ],
      "name": "getTreasury",
      "outputs": [
        {
          "internalType": "contract Giv3Treasury",
          "name": "",
          "type": "address"
        }
      ],
      "stateMutability": "view",
      "type": "function"
    }
  ],
  "transactionHash": "0xe1ae03887f82e6b808c63a52ae321a4de53ee90be274e0685e23a179deead875",
  "args": [
    "0xCf7Ed3AccA5a467e9e704C703E8D87F634fB0Fc9"
  ],
  "numDeployments": 1,
  "solcInputHash": "40a8194097e86e97670a4fd9003e02c2",
  "bytecode": "0x60806040526000805534801561001457600080fd5b50604051610f2c380380610f2c83398101604081905261003391610058565b600280546001600160a01b0319166001600160a01b0392909216919091179055610088565b60006020828403121561006a57600080fd5b81516001600160a01b038116811461008157600080fd5b9392505050565b610e95806100976000396000f3fe608060405234801561001057600080fd5b50600436106100415760003560e01c80638e923012146100465780639518a3e914610075578063adcd294014610088575b600080fd5b6100596100543660046101bf565b6100b1565b6040516001600160a01b03909116815260200160405180910390f35b600254610059906001600160a01b031681565b610059610096366004610270565b6000908152600160205260409020546001600160a01b031690565b6002546000906001600160a01b031633146100cb57600080fd5b60025460405160009184916001600160a01b03909116906100eb9061019c565b6100f69291906102d6565b604051809103906000f080158015610112573d6000803e3d6000fd5b5060008054815260016020526040812080546001600160a01b0319166001600160a01b03841617905580549192508061014a83610316565b91905055507f51d6a8f0ed3bde47953d69e76dfc64bb830fccc50b9100ba64f29137d2d57f16600160005461017f9190610331565b8460405161018e929190610348565b60405180910390a192915050565b610af68061036a83390190565b634e487b7160e01b600052604160045260246000fd5b6000602082840312156101d157600080fd5b813567ffffffffffffffff808211156101e957600080fd5b818401915084601f8301126101fd57600080fd5b81358181111561020f5761020f6101a9565b604051601f8201601f19908116603f01168101908382118183101715610237576102376101a9565b8160405282815287602084870101111561025057600080fd5b826020860160208301376000928101602001929092525095945050505050565b60006020828403121561028257600080fd5b5035919050565b6000815180845260005b818110156102af57602081850181015186830182015201610293565b818111156102c1576000602083870101525b50601f01601f19169290920160200192915050565b6040815260006102e96040830185610289565b905060018060a01b03831660208301529392505050565b634e487b7160e01b600052601160045260246000fd5b600060001982141561032a5761032a610300565b5060010190565b60008282101561034357610343610300565b500390565b8281526040602082015260006103616040830184610289565b94935050505056fe60806040523480156200001157600080fd5b5060405162000af638038062000af683398101604081905262000034916200014a565b81516200004990600290602085019062000071565b50600180546001600160a01b0319166001600160a01b03929092169190911790555062000278565b8280546200007f906200023b565b90600052602060002090601f016020900481019282620000a35760008555620000ee565b82601f10620000be57805160ff1916838001178555620000ee565b82800160010185558215620000ee579182015b82811115620000ee578251825591602001919060010190620000d1565b50620000fc92915062000100565b5090565b5b80821115620000fc576000815560010162000101565b634e487b7160e01b600052604160045260246000fd5b80516001600160a01b03811681146200014557600080fd5b919050565b600080604083850312156200015e57600080fd5b82516001600160401b03808211156200017657600080fd5b818501915085601f8301126200018b57600080fd5b815181811115620001a057620001a062000117565b604051601f8201601f19908116603f01168101908382118183101715620001cb57620001cb62000117565b81604052828152602093508884848701011115620001e857600080fd5b600091505b828210156200020c5784820184015181830185015290830190620001ed565b828211156200021e5760008484830101525b9550620002309150508582016200012d565b925050509250929050565b600181811c908216806200025057607f821691505b602082108114156200027257634e487b7160e01b600052602260045260246000fd5b50919050565b61086e80620002886000396000f3fe60806040526004361061007b5760003560e01c80634e6630b01161004e5780634e6630b014610100578063523fba7f146101245780639518a3e914610151578063f6326fb31461018957600080fd5b806306fdde0314610080578063338b5dea146100ab5780633ccdbb28146100cd5780634782f779146100ed575b600080fd5b34801561008c57600080fd5b50610095610191565b6040516100a2919061067e565b60405180910390f35b3480156100b757600080fd5b506100cb6100c63660046106eb565b61021f565b005b3480156100d957600080fd5b506100cb6100e8366004610717565b610344565b6100cb6100fb3660046106eb565b61051a565b34801561010c57600080fd5b5061011660005481565b6040519081526020016100a2565b34801561013057600080fd5b5061011661013f366004610759565b60036020526000908152604090205481565b34801561015d57600080fd5b50600154610171906001600160a01b031681565b6040516001600160a01b0390911681526020016100a2565b6100cb610619565b6002805461019e9061077d565b80601f01602080910402602001604051908101604052809291908181526020018280546101ca9061077d565b80156102175780601f106101ec57610100808354040283529160200191610217565b820191906000526020600020905b8154815290600101906020018083116101fa57829003601f168201915b505050505081565b6001546001600160a01b0316331461023657600080fd5b6000811161028b5760405162461bcd60e51b815260206004820152601d60248201527f416d6f756e74206d7573742062652067726561746572207468616e203000000060448201526064015b60405180910390fd5b60405163a9059cbb60e01b8152336004820152602481018290526001600160a01b0383169063a9059cbb906044016020604051808303816000875af11580156102d8573d6000803e3d6000fd5b505050506040513d601f19601f820116820180604052508101906102fc91906107b8565b50604080516001600160a01b0384168152602081018390527fbc7c8a4d8049a3f99a02f2a20640c206a2e4d3f2fa54fd20da9f01fda3620cda91015b60405180910390a15050565b6001546001600160a01b0316331461035b57600080fd5b600082116103ab5760405162461bcd60e51b815260206004820152601d60248201527f416d6f756e74206d7573742062652067726561746572207468616e20300000006044820152606401610282565b6040516370a0823160e01b815233600482015282906001600160a01b038516906370a0823190602401602060405180830381865afa1580156103f1573d6000803e3d6000fd5b505050506040513d601f19601f8201168201806040525081019061041591906107da565b10156104575760405162461bcd60e51b81526020600482015260116024820152704e6f7420656e6f75676820746f6b656e7360781b6044820152606401610282565b60405163a9059cbb60e01b81526001600160a01b0382811660048301526024820184905284169063a9059cbb906044016020604051808303816000875af11580156104a6573d6000803e3d6000fd5b505050506040513d601f19601f820116820180604052508101906104ca91906107b8565b50604080516001600160a01b0385811682526020820185905283168183015290517fa0524ee0fd8662d6c046d199da2a6d3dc49445182cec055873a5bb9c2843c8e09181900360600190a1505050565b6001546001600160a01b0316331461053157600080fd5b6000548111156105745760405162461bcd60e51b815260206004820152600e60248201526d09cdee840cadcdeeaced0408aa8960931b6044820152606401610282565b806000808282546105859190610809565b90915550506040516001600160a01b038316908290600081818185875af1925050503d80600081146105d3576040519150601f19603f3d011682016040523d82523d6000602084013e6105d8565b606091505b5050604080518381526001600160a01b03851660208201527f6148672a948a12b8e0bf92a9338349b9ac890fad62a234abaf0a4da99f62cfcc925001610338565b6001546001600160a01b0316331461063057600080fd5b346000808282546106419190610820565b909155505060405134808252907fadb6a3fe015de6cf14b532348b91a6202eb862af051124a853b5935e034cfd7b9060200160405180910390a150565b600060208083528351808285015260005b818110156106ab5785810183015185820160400152820161068f565b818111156106bd576000604083870101525b50601f01601f1916929092016040019392505050565b6001600160a01b03811681146106e857600080fd5b50565b600080604083850312156106fe57600080fd5b8235610709816106d3565b946020939093013593505050565b60008060006060848603121561072c57600080fd5b8335610737816106d3565b925060208401359150604084013561074e816106d3565b809150509250925092565b60006020828403121561076b57600080fd5b8135610776816106d3565b9392505050565b600181811c9082168061079157607f821691505b602082108114156107b257634e487b7160e01b600052602260045260246000fd5b50919050565b6000602082840312156107ca57600080fd5b8151801515811461077657600080fd5b6000602082840312156107ec57600080fd5b5051919050565b634e487b7160e01b600052601160045260246000fd5b60008282101561081b5761081b6107f3565b500390565b60008219821115610833576108336107f3565b50019056fea264697066735822122044595e78fbd0e5abaf2ee68981cc78d26beb18e741f7fd4801fd11890f18873264736f6c634300080a0033a2646970667358221220af2080bcfebee4b4f655a89c24651179ff85ae369eaf0950be7fcace230fd69464736f6c634300080a0033",
  "devdoc": {
    "kind": "dev",
    "methods": {},
    "version": 1
  },
  "userdoc": {
    "kind": "user",
    "methods": {},
    "version": 1
  },
  "storageLayout": {
    "storage": [
      {
        "astId": 4108,
        "contract": "contracts/Giv3TreasuryFactory.sol:Giv3TreasuryFactory",
        "label": "collectionsCounter",
        "offset": 0,
        "slot": "0",
        "type": "t_uint256"
      },
      {
        "astId": 4113,
        "contract": "contracts/Giv3TreasuryFactory.sol:Giv3TreasuryFactory",
        "label": "treasuries",
        "offset": 0,
        "slot": "1",
        "type": "t_mapping(t_uint256,t_contract(Giv3Treasury)4102)"
      },
      {
        "astId": 4116,
        "contract": "contracts/Giv3TreasuryFactory.sol:Giv3TreasuryFactory",
        "label": "GIV3_CORE",
        "offset": 0,
        "slot": "2",
        "type": "t_contract(IGiv3Core)4736"
      }
    ],
    "types": {
      "t_contract(Giv3Treasury)4102": {
        "encoding": "inplace",
        "label": "contract Giv3Treasury",
        "numberOfBytes": "20"
      },
      "t_contract(IGiv3Core)4736": {
        "encoding": "inplace",
        "label": "contract IGiv3Core",
        "numberOfBytes": "20"
      },
      "t_mapping(t_uint256,t_contract(Giv3Treasury)4102)": {
        "encoding": "mapping",
        "key": "t_uint256",
        "label": "mapping(uint256 => contract Giv3Treasury)",
        "numberOfBytes": "32",
        "value": "t_contract(Giv3Treasury)4102"
      },
      "t_uint256": {
        "encoding": "inplace",
        "label": "uint256",
        "numberOfBytes": "32"
      }
    }
  }
}