{
  "address": "0xCf7Ed3AccA5a467e9e704C703E8D87F634fB0Fc9",
  "abi": [
    {
      "inputs": [
        {
          "internalType": "contract IImageStorage",
          "name": "staticImageStorage",
          "type": "address"
        },
        {
          "internalType": "contract IImageStorage",
          "name": "dynamicImageStorage",
          "type": "address"
        },
        {
          "internalType": "contract IERC20",
          "name": "_usdt",
          "type": "address"
        }
      ],
      "stateMutability": "nonpayable",
      "type": "constructor"
    },
    {
      "anonymous": false,
      "inputs": [
        {
          "indexed": false,
          "internalType": "string",
          "name": "name",
          "type": "string"
        },
        {
          "indexed": false,
          "internalType": "string",
          "name": "symbol",
          "type": "string"
        },
        {
          "indexed": false,
          "internalType": "address",
          "name": "dao",
          "type": "address"
        }
      ],
      "name": "DAOCreated",
      "type": "event"
    },
    {
      "anonymous": false,
      "inputs": [
        {
          "indexed": true,
          "internalType": "address",
          "name": "member",
          "type": "address"
        },
        {
          "indexed": true,
          "internalType": "uint256",
          "name": "_id",
          "type": "uint256"
        }
      ],
      "name": "DAOJoined",
      "type": "event"
    },
    {
      "anonymous": false,
      "inputs": [
        {
          "indexed": true,
          "internalType": "address",
          "name": "previousOwner",
          "type": "address"
        },
        {
          "indexed": true,
          "internalType": "address",
          "name": "newOwner",
          "type": "address"
        }
      ],
      "name": "OwnershipTransferred",
      "type": "event"
    },
    {
      "inputs": [],
      "name": "GIV3_AVATAR_NFT",
      "outputs": [
        {
          "internalType": "contract Giv3AvatarNFT",
          "name": "",
          "type": "address"
        }
      ],
      "stateMutability": "view",
      "type": "function"
    },
    {
      "inputs": [],
      "name": "GIV3_NFT_FACTORY",
      "outputs": [
        {
          "internalType": "contract Giv3NFTFactory",
          "name": "",
          "type": "address"
        }
      ],
      "stateMutability": "view",
      "type": "function"
    },
    {
      "inputs": [],
      "name": "GIV3_TREASURY_FACTORY",
      "outputs": [
        {
          "internalType": "contract Giv3TreasuryFactory",
          "name": "",
          "type": "address"
        }
      ],
      "stateMutability": "view",
      "type": "function"
    },
    {
      "inputs": [],
      "name": "USDT",
      "outputs": [
        {
          "internalType": "contract IERC20",
          "name": "",
          "type": "address"
        }
      ],
      "stateMutability": "view",
      "type": "function"
    },
    {
      "inputs": [
        {
          "internalType": "string",
          "name": "name",
          "type": "string"
        },
        {
          "internalType": "string",
          "name": "symbol",
          "type": "string"
        },
        {
          "internalType": "string",
          "name": "description",
          "type": "string"
        }
      ],
      "name": "createDAO",
      "outputs": [],
      "stateMutability": "nonpayable",
      "type": "function"
    },
    {
      "inputs": [],
      "name": "daoCounter",
      "outputs": [
        {
          "internalType": "uint256",
          "name": "",
          "type": "uint256"
        }
      ],
      "stateMutability": "view",
      "type": "function"
    },
    {
      "inputs": [
        {
          "internalType": "uint256",
          "name": "",
          "type": "uint256"
        }
      ],
      "name": "daoIds",
      "outputs": [
        {
          "internalType": "address",
          "name": "contractAddress",
          "type": "address"
        },
        {
          "internalType": "string",
          "name": "description",
          "type": "string"
        }
      ],
      "stateMutability": "view",
      "type": "function"
    },
    {
      "inputs": [
        {
          "internalType": "uint256",
          "name": "daoId",
          "type": "uint256"
        },
        {
          "internalType": "uint256",
          "name": "_donationAmount",
          "type": "uint256"
        }
      ],
      "name": "donate",
      "outputs": [],
      "stateMutability": "nonpayable",
      "type": "function"
    },
    {
      "inputs": [
        {
          "internalType": "uint256",
          "name": "_id",
          "type": "uint256"
        }
      ],
      "name": "getContract",
      "outputs": [
        {
          "internalType": "address",
          "name": "",
          "type": "address"
        }
      ],
      "stateMutability": "view",
      "type": "function"
    },
    {
      "inputs": [
        {
          "internalType": "uint256",
          "name": "_id",
          "type": "uint256"
        },
        {
          "internalType": "uint256",
          "name": "_tokenId",
          "type": "uint256"
        }
      ],
      "name": "getPowerLevels",
      "outputs": [
        {
          "internalType": "uint256",
          "name": "",
          "type": "uint256"
        }
      ],
      "stateMutability": "view",
      "type": "function"
    },
    {
      "inputs": [
        {
          "internalType": "uint256",
          "name": "_id",
          "type": "uint256"
        }
      ],
      "name": "hasJoinedDAO",
      "outputs": [
        {
          "internalType": "bool",
          "name": "",
          "type": "bool"
        }
      ],
      "stateMutability": "view",
      "type": "function"
    },
    {
      "inputs": [
        {
          "internalType": "uint256",
          "name": "_id",
          "type": "uint256"
        }
      ],
      "name": "joinDAO",
      "outputs": [],
      "stateMutability": "nonpayable",
      "type": "function"
    },
    {
      "inputs": [],
      "name": "owner",
      "outputs": [
        {
          "internalType": "address",
          "name": "",
          "type": "address"
        }
      ],
      "stateMutability": "view",
      "type": "function"
    },
    {
      "inputs": [],
      "name": "renounceOwnership",
      "outputs": [],
      "stateMutability": "nonpayable",
      "type": "function"
    },
    {
      "inputs": [
        {
          "internalType": "contract Giv3AvatarNFT",
          "name": "_giv3AvatarNFT",
          "type": "address"
        }
      ],
      "name": "setGiv3AvatarNFT",
      "outputs": [],
      "stateMutability": "nonpayable",
      "type": "function"
    },
    {
      "inputs": [
        {
          "internalType": "contract Giv3NFTFactory",
          "name": "_giv3NFTFactory",
          "type": "address"
        }
      ],
      "name": "setGiv3NFTFactory",
      "outputs": [],
      "stateMutability": "nonpayable",
      "type": "function"
    },
    {
      "inputs": [
        {
          "internalType": "contract Giv3TreasuryFactory",
          "name": "_giv3TreasuryFactory",
          "type": "address"
        }
      ],
      "name": "setGiv3TreasuryFactory",
      "outputs": [],
      "stateMutability": "nonpayable",
      "type": "function"
    },
    {
      "inputs": [
        {
          "internalType": "address",
          "name": "newOwner",
          "type": "address"
        }
      ],
      "name": "transferOwnership",
      "outputs": [],
      "stateMutability": "nonpayable",
      "type": "function"
    },
    {
      "inputs": [
        {
          "internalType": "uint256",
          "name": "",
          "type": "uint256"
        }
      ],
      "name": "treasuryIds",
      "outputs": [
        {
          "internalType": "address",
          "name": "",
          "type": "address"
        }
      ],
      "stateMutability": "view",
      "type": "function"
    }
  ],
  "transactionHash": "0xa00e62372f16a5fd757e8954133bf1452c55a4ab168aef855c315f3fc3c0ede1",
  "args": [
    "0xe7f1725E7734CE288F8367e1Bb143E90bb3F0512",
    "0x9fE46736679d2D9a65F0992F2272dE9f3c7fa6e0",
    "0x5FbDB2315678afecb367f032d93F642f64180aa3"
  ],
  "numDeployments": 1,
  "solcInputHash": "40a8194097e86e97670a4fd9003e02c2",
  "bytecode": "0x60806040523480156200001157600080fd5b50604051620012f4380380620012f48339810160408190526200003491620000d1565b6200003f3362000068565b600480546001600160a01b0319166001600160a01b039290921691909117905550620001259050565b600080546001600160a01b038381166001600160a01b0319831681178455604051919092169283917f8be0079c531659141344cd1fd0a4f28419497f9722a3daafe3b4186f6b6457e09190a35050565b6001600160a01b0381168114620000ce57600080fd5b50565b600080600060608486031215620000e757600080fd5b8351620000f481620000b8565b60208501519093506200010781620000b8565b60408501519092506200011a81620000b8565b809150509250925092565b6111bf80620001356000396000f3fe608060405234801561001057600080fd5b50600436106101215760003560e01c80638da5cb5b116100ad578063d977aa9a11610071578063d977aa9a1461027c578063f2924ae71461028f578063f2fde38b146102b2578063f5c8d232146102c5578063f80efd28146102e657600080fd5b80638da5cb5b14610209578063c54e44eb1461021a578063c5594ef31461022d578063c5cc085814610240578063cfb83a8d1461026957600080fd5b80633fbdf32c116100f45780633fbdf32c1461019f57806347dc3621146101b25780636b1b2e0f146101c55780636ebc8c86146101d8578063715018a61461020157600080fd5b80630cdd53f61461012657806318cd29891461013b5780632bfc1eb31461016b5780632d506fe11461017e575b600080fd5b610139610134366004610e3d565b6102ef565b005b60015461014e906001600160a01b031681565b6040516001600160a01b0390911681526020015b60405180910390f35b610139610179366004610e74565b6104b3565b61019161018c366004610e3d565b6104dd565b604051908152602001610162565b6101396101ad366004610e91565b6105c0565b6101396101c0366004610e74565b6108b7565b60025461014e906001600160a01b031681565b61014e6101e6366004610e91565b6000908152600560205260409020546001600160a01b031690565b6101396108e1565b6000546001600160a01b031661014e565b60045461014e906001600160a01b031681565b60035461014e906001600160a01b031681565b61014e61024e366004610e91565b6006602052600090815260409020546001600160a01b031681565b610139610277366004610f4d565b6108f5565b61013961028a366004610e74565b610ac5565b6102a261029d366004610e91565b610aef565b6040519015158152602001610162565b6101396102c0366004610e74565b610bd2565b6102d86102d3366004610e91565b610c4b565b604051610162929190611022565b61019160075481565b6002546040516302b734a560e61b8152600481018490526000916001600160a01b03169063adcd294090602401602060405180830381865afa158015610339573d6000803e3d6000fd5b505050506040513d601f19601f8201168201806040525081019061035d919061104e565b600480546040516323b872dd60e01b815233928101929092526001600160a01b0380841660248401526044830186905292935091909116906323b872dd906064016020604051808303816000875af11580156103bd573d6000803e3d6000fd5b505050506040513d601f19601f820116820180604052508101906103e1919061106b565b50600154604051630b43e78560e31b8152600481018590526001600160a01b0390911690635a1f3c2890602401602060405180830381865afa15801561042b573d6000803e3d6000fd5b505050506040513d601f19601f8201168201806040525081019061044f919061104e565b6001600160a01b031663d8251a14836040518263ffffffff1660e01b815260040161047c91815260200190565b600060405180830381600087803b15801561049657600080fd5b505af11580156104aa573d6000803e3d6000fd5b50505050505050565b6104bb610cfa565b600280546001600160a01b0319166001600160a01b0392909216919091179055565b600154604051630b43e78560e31b8152600481018490526000916001600160a01b031690635a1f3c2890602401602060405180830381865afa158015610527573d6000803e3d6000fd5b505050506040513d601f19601f8201168201806040525081019061054b919061104e565b6001600160a01b031663d2e59bfe836040518263ffffffff1660e01b815260040161057891815260200190565b602060405180830381865afa158015610595573d6000803e3d6000fd5b505050506040513d601f19601f820116820180604052508101906105b9919061108d565b9392505050565b600154604051630b43e78560e31b8152600481018390526001600160a01b0390911690635a1f3c2890602401602060405180830381865afa158015610609573d6000803e3d6000fd5b505050506040513d601f19601f8201168201806040525081019061062d919061104e565b6040516370a0823160e01b81523360048201526001600160a01b0391909116906370a0823190602401602060405180830381865afa158015610673573d6000803e3d6000fd5b505050506040513d601f19601f82011682018060405250810190610697919061108d565b156106df5760405162461bcd60e51b8152602060048201526013602482015272155cd95c88185b1c9958591e481b5a5b9d1959606a1b60448201526064015b60405180910390fd5b6003546040516370a0823160e01b81523360048201526001600160a01b03909116906370a0823190602401602060405180830381865afa158015610727573d6000803e3d6000fd5b505050506040513d601f19601f8201168201806040525081019061074b919061108d565b6107ad576003546040516335313c2160e11b81523360048201526001600160a01b0390911690636a62784290602401600060405180830381600087803b15801561079457600080fd5b505af11580156107a8573d6000803e3d6000fd5b505050505b600154604051630b43e78560e31b8152600481018390526001600160a01b0390911690635a1f3c2890602401602060405180830381865afa1580156107f6573d6000803e3d6000fd5b505050506040513d601f19601f8201168201806040525081019061081a919061104e565b6040516335313c2160e11b81523360048201526001600160a01b039190911690636a627842906024016020604051808303816000875af1158015610862573d6000803e3d6000fd5b505050506040513d601f19601f82011682018060405250810190610886919061108d565b50604051819033907fc6fe9b78def1629047bd69918cbc1ef87aeefe1543a67e54cb8fcd50711ec6ce90600090a350565b6108bf610cfa565b600180546001600160a01b0319166001600160a01b0392909216919091179055565b6108e9610cfa565b6108f36000610d54565b565b60015460405163176b9b7560e01b81526000916001600160a01b03169063176b9b759061092890879087906004016110a6565b6020604051808303816000875af1158015610947573d6000803e3d6000fd5b505050506040513d601f19601f8201168201806040525081019061096b919061104e565b600254604051634749180960e11b81529192506000916001600160a01b0390911690638e923012906109a19088906004016110d4565b6020604051808303816000875af11580156109c0573d6000803e3d6000fd5b505050506040513d601f19601f820116820180604052508101906109e4919061104e565b6040805180820182526001600160a01b038581168252602080830188815260075460009081526005835294909420835181546001600160a01b03191693169290921782559251805194955091939092610a44926001850192910190610da4565b505060078054600090815260066020526040812080546001600160a01b0319166001600160a01b03861617905581549250610a7e836110e7565b91905055507f6d8073b3c5d7e3a29e9539222aa4da4b3728f3e94edcef7840a1fc244e51deaf858584604051610ab693929190611110565b60405180910390a15050505050565b610acd610cfa565b600380546001600160a01b0319166001600160a01b0392909216919091179055565b600154604051630b43e78560e31b81526004810183905260009182916001600160a01b0390911690635a1f3c2890602401602060405180830381865afa158015610b3d573d6000803e3d6000fd5b505050506040513d601f19601f82011682018060405250810190610b61919061104e565b6040516370a0823160e01b81523360048201526001600160a01b0391909116906370a0823190602401602060405180830381865afa158015610ba7573d6000803e3d6000fd5b505050506040513d601f19601f82011682018060405250810190610bcb919061108d565b1192915050565b610bda610cfa565b6001600160a01b038116610c3f5760405162461bcd60e51b815260206004820152602660248201527f4f776e61626c653a206e6577206f776e657220697320746865207a65726f206160448201526564647265737360d01b60648201526084016106d6565b610c4881610d54565b50565b600560205260009081526040902080546001820180546001600160a01b039092169291610c779061114e565b80601f0160208091040260200160405190810160405280929190818152602001828054610ca39061114e565b8015610cf05780601f10610cc557610100808354040283529160200191610cf0565b820191906000526020600020905b815481529060010190602001808311610cd357829003601f168201915b5050505050905082565b6000546001600160a01b031633146108f35760405162461bcd60e51b815260206004820181905260248201527f4f776e61626c653a2063616c6c6572206973206e6f7420746865206f776e657260448201526064016106d6565b600080546001600160a01b038381166001600160a01b0319831681178455604051919092169283917f8be0079c531659141344cd1fd0a4f28419497f9722a3daafe3b4186f6b6457e09190a35050565b828054610db09061114e565b90600052602060002090601f016020900481019282610dd25760008555610e18565b82601f10610deb57805160ff1916838001178555610e18565b82800160010185558215610e18579182015b82811115610e18578251825591602001919060010190610dfd565b50610e24929150610e28565b5090565b5b80821115610e245760008155600101610e29565b60008060408385031215610e5057600080fd5b50508035926020909101359150565b6001600160a01b0381168114610c4857600080fd5b600060208284031215610e8657600080fd5b81356105b981610e5f565b600060208284031215610ea357600080fd5b5035919050565b634e487b7160e01b600052604160045260246000fd5b600082601f830112610ed157600080fd5b813567ffffffffffffffff80821115610eec57610eec610eaa565b604051601f8301601f19908116603f01168101908282118183101715610f1457610f14610eaa565b81604052838152866020858801011115610f2d57600080fd5b836020870160208301376000602085830101528094505050505092915050565b600080600060608486031215610f6257600080fd5b833567ffffffffffffffff80821115610f7a57600080fd5b610f8687838801610ec0565b94506020860135915080821115610f9c57600080fd5b610fa887838801610ec0565b93506040860135915080821115610fbe57600080fd5b50610fcb86828701610ec0565b9150509250925092565b6000815180845260005b81811015610ffb57602081850181015186830182015201610fdf565b8181111561100d576000602083870101525b50601f01601f19169290920160200192915050565b6001600160a01b038316815260406020820181905260009061104690830184610fd5565b949350505050565b60006020828403121561106057600080fd5b81516105b981610e5f565b60006020828403121561107d57600080fd5b815180151581146105b957600080fd5b60006020828403121561109f57600080fd5b5051919050565b6040815260006110b96040830185610fd5565b82810360208401526110cb8185610fd5565b95945050505050565b6020815260006105b96020830184610fd5565b600060001982141561110957634e487b7160e01b600052601160045260246000fd5b5060010190565b6060815260006111236060830186610fd5565b82810360208401526111358186610fd5565b91505060018060a01b0383166040830152949350505050565b600181811c9082168061116257607f821691505b6020821081141561118357634e487b7160e01b600052602260045260246000fd5b5091905056fea264697066735822122044cc426548840f6344ade660a07fcef66122a1f328ffd488c5731a111a5dd9ed64736f6c634300080a0033",
  "devdoc": {
    "kind": "dev",
    "methods": {
      "createDAO(string,string,string)": {
        "details": "Include a offchain signer to verify if the structure of the datafile is correct",
        "params": {
          "description": "Description of the DAO",
          "name": "The name of the DAO.",
          "symbol": "The symbol of the DAO."
        }
      },
      "owner()": {
        "details": "Returns the address of the current owner."
      },
      "renounceOwnership()": {
        "details": "Leaves the contract without owner. It will not be possible to call `onlyOwner` functions anymore. Can only be called by the current owner. NOTE: Renouncing ownership will leave the contract without an owner, thereby removing any functionality that is only available to the owner."
      },
      "transferOwnership(address)": {
        "details": "Transfers ownership of the contract to a new account (`newOwner`). Can only be called by the current owner."
      }
    },
    "version": 1
  },
  "userdoc": {
    "kind": "user",
    "methods": {
      "createDAO(string,string,string)": {
        "notice": "Create a new DAO."
      }
    },
    "version": 1
  },
  "storageLayout": {
    "storage": [
      {
        "astId": 7,
        "contract": "contracts/Giv3Core.sol:Giv3Core",
        "label": "_owner",
        "offset": 0,
        "slot": "0",
        "type": "t_address"
      },
      {
        "astId": 2942,
        "contract": "contracts/Giv3Core.sol:Giv3Core",
        "label": "GIV3_NFT_FACTORY",
        "offset": 0,
        "slot": "1",
        "type": "t_contract(Giv3NFTFactory)3900"
      },
      {
        "astId": 2945,
        "contract": "contracts/Giv3Core.sol:Giv3Core",
        "label": "GIV3_TREASURY_FACTORY",
        "offset": 0,
        "slot": "2",
        "type": "t_contract(Giv3TreasuryFactory)4200"
      },
      {
        "astId": 2948,
        "contract": "contracts/Giv3Core.sol:Giv3Core",
        "label": "GIV3_AVATAR_NFT",
        "offset": 0,
        "slot": "3",
        "type": "t_contract(Giv3AvatarNFT)2926"
      },
      {
        "astId": 2951,
        "contract": "contracts/Giv3Core.sol:Giv3Core",
        "label": "USDT",
        "offset": 0,
        "slot": "4",
        "type": "t_contract(IERC20)816"
      },
      {
        "astId": 2961,
        "contract": "contracts/Giv3Core.sol:Giv3Core",
        "label": "daoIds",
        "offset": 0,
        "slot": "5",
        "type": "t_mapping(t_uint256,t_struct(DAO)2956_storage)"
      },
      {
        "astId": 2965,
        "contract": "contracts/Giv3Core.sol:Giv3Core",
        "label": "treasuryIds",
        "offset": 0,
        "slot": "6",
        "type": "t_mapping(t_uint256,t_address)"
      },
      {
        "astId": 2967,
        "contract": "contracts/Giv3Core.sol:Giv3Core",
        "label": "daoCounter",
        "offset": 0,
        "slot": "7",
        "type": "t_uint256"
      }
    ],
    "types": {
      "t_address": {
        "encoding": "inplace",
        "label": "address",
        "numberOfBytes": "20"
      },
      "t_contract(Giv3AvatarNFT)2926": {
        "encoding": "inplace",
        "label": "contract Giv3AvatarNFT",
        "numberOfBytes": "20"
      },
      "t_contract(Giv3NFTFactory)3900": {
        "encoding": "inplace",
        "label": "contract Giv3NFTFactory",
        "numberOfBytes": "20"
      },
      "t_contract(Giv3TreasuryFactory)4200": {
        "encoding": "inplace",
        "label": "contract Giv3TreasuryFactory",
        "numberOfBytes": "20"
      },
      "t_contract(IERC20)816": {
        "encoding": "inplace",
        "label": "contract IERC20",
        "numberOfBytes": "20"
      },
      "t_mapping(t_uint256,t_address)": {
        "encoding": "mapping",
        "key": "t_uint256",
        "label": "mapping(uint256 => address)",
        "numberOfBytes": "32",
        "value": "t_address"
      },
      "t_mapping(t_uint256,t_struct(DAO)2956_storage)": {
        "encoding": "mapping",
        "key": "t_uint256",
        "label": "mapping(uint256 => struct Giv3Core.DAO)",
        "numberOfBytes": "32",
        "value": "t_struct(DAO)2956_storage"
      },
      "t_string_storage": {
        "encoding": "bytes",
        "label": "string",
        "numberOfBytes": "32"
      },
      "t_struct(DAO)2956_storage": {
        "encoding": "inplace",
        "label": "struct Giv3Core.DAO",
        "members": [
          {
            "astId": 2953,
            "contract": "contracts/Giv3Core.sol:Giv3Core",
            "label": "contractAddress",
            "offset": 0,
            "slot": "0",
            "type": "t_address"
          },
          {
            "astId": 2955,
            "contract": "contracts/Giv3Core.sol:Giv3Core",
            "label": "description",
            "offset": 0,
            "slot": "1",
            "type": "t_string_storage"
          }
        ],
        "numberOfBytes": "64"
      },
      "t_uint256": {
        "encoding": "inplace",
        "label": "uint256",
        "numberOfBytes": "32"
      }
    }
  }
}