{
  "address": "0xCf7Ed3AccA5a467e9e704C703E8D87F634fB0Fc9",
  "abi": [
    {
      "inputs": [
        {
          "internalType": "contract IImageStorage",
          "name": "staticImageStorage",
          "type": "address"
        },
        {
          "internalType": "contract IImageStorage",
          "name": "dynamicImageStorage",
          "type": "address"
        }
      ],
      "stateMutability": "nonpayable",
      "type": "constructor"
    },
    {
      "anonymous": false,
      "inputs": [
        {
          "indexed": false,
          "internalType": "string",
          "name": "name",
          "type": "string"
        },
        {
          "indexed": false,
          "internalType": "string",
          "name": "symbol",
          "type": "string"
        },
        {
          "indexed": false,
          "internalType": "address",
          "name": "dao",
          "type": "address"
        }
      ],
      "name": "DAOCreated",
      "type": "event"
    },
    {
      "anonymous": false,
      "inputs": [
        {
          "indexed": true,
          "internalType": "address",
          "name": "member",
          "type": "address"
        },
        {
          "indexed": true,
          "internalType": "uint256",
          "name": "_id",
          "type": "uint256"
        }
      ],
      "name": "DAOJoined",
      "type": "event"
    },
    {
      "inputs": [],
      "name": "GIV3_NFT_FACTORY",
      "outputs": [
        {
          "internalType": "contract Giv3NFTFactory",
          "name": "",
          "type": "address"
        }
      ],
      "stateMutability": "view",
      "type": "function"
    },
    {
      "inputs": [],
      "name": "GIV3_TREASURY_FACTORY",
      "outputs": [
        {
          "internalType": "contract Giv3TreasuryFactory",
          "name": "",
          "type": "address"
        }
      ],
      "stateMutability": "view",
      "type": "function"
    },
    {
      "inputs": [
        {
          "internalType": "string",
          "name": "name",
          "type": "string"
        },
        {
          "internalType": "string",
          "name": "symbol",
          "type": "string"
        },
        {
          "internalType": "string",
          "name": "description",
          "type": "string"
        }
      ],
      "name": "createDAO",
      "outputs": [],
      "stateMutability": "nonpayable",
      "type": "function"
    },
    {
      "inputs": [],
      "name": "daoCounter",
      "outputs": [
        {
          "internalType": "uint256",
          "name": "",
          "type": "uint256"
        }
      ],
      "stateMutability": "view",
      "type": "function"
    },
    {
      "inputs": [
        {
          "internalType": "uint256",
          "name": "",
          "type": "uint256"
        }
      ],
      "name": "daoIds",
      "outputs": [
        {
          "internalType": "address",
          "name": "contractAddress",
          "type": "address"
        },
        {
          "internalType": "string",
          "name": "description",
          "type": "string"
        }
      ],
      "stateMutability": "view",
      "type": "function"
    },
    {
      "inputs": [
        {
          "internalType": "uint256",
          "name": "_id",
          "type": "uint256"
        }
      ],
      "name": "getContract",
      "outputs": [
        {
          "internalType": "address",
          "name": "",
          "type": "address"
        }
      ],
      "stateMutability": "view",
      "type": "function"
    },
    {
      "inputs": [
        {
          "internalType": "uint256",
          "name": "_id",
          "type": "uint256"
        },
        {
          "internalType": "uint256",
          "name": "_tokenId",
          "type": "uint256"
        }
      ],
      "name": "getPowerLevels",
      "outputs": [
        {
          "internalType": "uint256",
          "name": "",
          "type": "uint256"
        }
      ],
      "stateMutability": "view",
      "type": "function"
    },
    {
      "inputs": [
        {
          "internalType": "uint256",
          "name": "_id",
          "type": "uint256"
        }
      ],
      "name": "joinDAO",
      "outputs": [],
      "stateMutability": "nonpayable",
      "type": "function"
    },
    {
      "inputs": [
        {
          "internalType": "address",
          "name": "_giv3NFTFactory",
          "type": "address"
        }
      ],
      "name": "setGiv3NFTFactory",
      "outputs": [],
      "stateMutability": "nonpayable",
      "type": "function"
    },
    {
      "inputs": [
        {
          "internalType": "uint256",
          "name": "",
          "type": "uint256"
        }
      ],
      "name": "treasuryIds",
      "outputs": [
        {
          "internalType": "address",
          "name": "",
          "type": "address"
        }
      ],
      "stateMutability": "view",
      "type": "function"
    }
  ],
  "transactionHash": "0x2fe3f1a3f26d3de4461680a32d4007600b7f97fa576320485cea8a77077010de",
  "args": [
    "0x9fE46736679d2D9a65F0992F2272dE9f3c7fa6e0",
    "0xe7f1725E7734CE288F8367e1Bb143E90bb3F0512"
  ],
  "numDeployments": 1,
  "solcInputHash": "3b2a9e1ab9af2ff2c69d54a73fcc568f",
  "bytecode": "0x608060405234801561001057600080fd5b5060405162004a0c38038062004a0c83398101604081905261003191610138565b30828260405161004090610100565b6001600160a01b03938416815291831660208301529091166040820152606001604051809103906000f08015801561007c573d6000803e3d6000fd5b50600080546001600160a01b0319166001600160a01b039290921691909117905560405130906100ab9061010e565b6001600160a01b039091168152602001604051809103906000f0801580156100d7573d6000803e3d6000fd5b50600180546001600160a01b0319166001600160a01b03929092169190911790555061016b9050565b612e048062000cdc83390190565b610f2c8062003ae083390190565b80516001600160a01b038116811461013357600080fd5b919050565b6000806040838503121561014b57600080fd5b6101548361011c565b91506101626020840161011c565b90509250929050565b610b61806200017b6000396000f3fe608060405234801561001057600080fd5b506004361061009e5760003560e01c80636ebc8c86116100665780636ebc8c861461014c578063c5cc085814610175578063cfb83a8d1461019e578063f5c8d232146101b1578063f80efd28146101d257600080fd5b806318cd2989146100a35780632d506fe1146100d35780633fbdf32c146100f457806347dc3621146101095780636b1b2e0f14610139575b600080fd5b6000546100b6906001600160a01b031681565b6040516001600160a01b0390911681526020015b60405180910390f35b6100e66100e13660046107fe565b6101db565b6040519081526020016100ca565b610107610102366004610820565b6102be565b005b610107610117366004610851565b600080546001600160a01b0319166001600160a01b0392909216919091179055565b6001546100b6906001600160a01b031681565b6100b661015a366004610820565b6000908152600260205260409020546001600160a01b031690565b6100b6610183366004610820565b6003602052600090815260409020546001600160a01b031681565b6101076101ac366004610911565b6104e6565b6101c46101bf366004610820565b6106b6565b6040516100ca9291906109e6565b6100e660045481565b60008054604051630b43e78560e31b8152600481018590526001600160a01b0390911690635a1f3c2890602401602060405180830381865afa158015610225573d6000803e3d6000fd5b505050506040513d601f19601f820116820180604052508101906102499190610a12565b6001600160a01b031663d2e59bfe836040518263ffffffff1660e01b815260040161027691815260200190565b602060405180830381865afa158015610293573d6000803e3d6000fd5b505050506040513d601f19601f820116820180604052508101906102b79190610a2f565b9392505050565b600054604051630b43e78560e31b8152600481018390526001600160a01b0390911690635a1f3c2890602401602060405180830381865afa158015610307573d6000803e3d6000fd5b505050506040513d601f19601f8201168201806040525081019061032b9190610a12565b6040516370a0823160e01b81523360048201526001600160a01b0391909116906370a0823190602401602060405180830381865afa158015610371573d6000803e3d6000fd5b505050506040513d601f19601f820116820180604052508101906103959190610a2f565b156103dc5760405162461bcd60e51b8152602060048201526013602482015272155cd95c88185b1c9958591e481b5a5b9d1959606a1b604482015260640160405180910390fd5b600054604051630b43e78560e31b8152600481018390526001600160a01b0390911690635a1f3c2890602401602060405180830381865afa158015610425573d6000803e3d6000fd5b505050506040513d601f19601f820116820180604052508101906104499190610a12565b6040516335313c2160e11b81523360048201526001600160a01b039190911690636a627842906024016020604051808303816000875af1158015610491573d6000803e3d6000fd5b505050506040513d601f19601f820116820180604052508101906104b59190610a2f565b50604051819033907fc6fe9b78def1629047bd69918cbc1ef87aeefe1543a67e54cb8fcd50711ec6ce90600090a350565b6000805460405163176b9b7560e01b81526001600160a01b039091169063176b9b75906105199087908790600401610a48565b6020604051808303816000875af1158015610538573d6000803e3d6000fd5b505050506040513d601f19601f8201168201806040525081019061055c9190610a12565b600154604051634749180960e11b81529192506000916001600160a01b0390911690638e92301290610592908890600401610a76565b6020604051808303816000875af11580156105b1573d6000803e3d6000fd5b505050506040513d601f19601f820116820180604052508101906105d59190610a12565b6040805180820182526001600160a01b038581168252602080830188815260045460009081526002835294909420835181546001600160a01b03191693169290921782559251805194955091939092610635926001850192910190610765565b505060048054600090815260036020526040812080546001600160a01b0319166001600160a01b0386161790558154925061066f83610a89565b91905055507f6d8073b3c5d7e3a29e9539222aa4da4b3728f3e94edcef7840a1fc244e51deaf8585846040516106a793929190610ab2565b60405180910390a15050505050565b600260205260009081526040902080546001820180546001600160a01b0390921692916106e290610af0565b80601f016020809104026020016040519081016040528092919081815260200182805461070e90610af0565b801561075b5780601f106107305761010080835404028352916020019161075b565b820191906000526020600020905b81548152906001019060200180831161073e57829003601f168201915b5050505050905082565b82805461077190610af0565b90600052602060002090601f01602090048101928261079357600085556107d9565b82601f106107ac57805160ff19168380011785556107d9565b828001600101855582156107d9579182015b828111156107d95782518255916020019190600101906107be565b506107e59291506107e9565b5090565b5b808211156107e557600081556001016107ea565b6000806040838503121561081157600080fd5b50508035926020909101359150565b60006020828403121561083257600080fd5b5035919050565b6001600160a01b038116811461084e57600080fd5b50565b60006020828403121561086357600080fd5b81356102b781610839565b634e487b7160e01b600052604160045260246000fd5b600082601f83011261089557600080fd5b813567ffffffffffffffff808211156108b0576108b061086e565b604051601f8301601f19908116603f011681019082821181831017156108d8576108d861086e565b816040528381528660208588010111156108f157600080fd5b836020870160208301376000602085830101528094505050505092915050565b60008060006060848603121561092657600080fd5b833567ffffffffffffffff8082111561093e57600080fd5b61094a87838801610884565b9450602086013591508082111561096057600080fd5b61096c87838801610884565b9350604086013591508082111561098257600080fd5b5061098f86828701610884565b9150509250925092565b6000815180845260005b818110156109bf576020818501810151868301820152016109a3565b818111156109d1576000602083870101525b50601f01601f19169290920160200192915050565b6001600160a01b0383168152604060208201819052600090610a0a90830184610999565b949350505050565b600060208284031215610a2457600080fd5b81516102b781610839565b600060208284031215610a4157600080fd5b5051919050565b604081526000610a5b6040830185610999565b8281036020840152610a6d8185610999565b95945050505050565b6020815260006102b76020830184610999565b6000600019821415610aab57634e487b7160e01b600052601160045260246000fd5b5060010190565b606081526000610ac56060830186610999565b8281036020840152610ad78186610999565b91505060018060a01b0383166040830152949350505050565b600181811c90821680610b0457607f821691505b60208210811415610b2557634e487b7160e01b600052602260045260246000fd5b5091905056fea2646970667358221220ee97b69971e6ab03ec9e6fe2d148c97293c2944b6845566e379b94313eb2986764736f6c634300080a003360806040526000805534801561001457600080fd5b50604051612e04380380612e048339810160408190526100339161008d565b600280546001600160a01b039485166001600160a01b0319918216179091556003805493851693821693909317909255600480549190931691161790556100da565b6001600160a01b038116811461008a57600080fd5b50565b6000806000606084860312156100a257600080fd5b83516100ad81610075565b60208501519093506100be81610075565b60408501519092506100cf81610075565b809150509250925092565b612d1b806100e96000396000f3fe608060405234801561001057600080fd5b50600436106100575760003560e01c8063176b9b751461005c5780635a1f3c281461008b578063897a2504146100b45780638e4aa826146100c75780639518a3e9146100da575b600080fd5b61006f61006a366004610252565b6100ed565b6040516001600160a01b03909116815260200160405180910390f35b61006f6100993660046102b6565b6000908152600160205260409020546001600160a01b031690565b60035461006f906001600160a01b031681565b60045461006f906001600160a01b031681565b60025461006f906001600160a01b031681565b6002546000906001600160a01b0316331461010757600080fd5b600254600080546003546040519293879387936001600160a01b039283169390921690610133906101a2565b61014195949392919061031c565b604051809103906000f08015801561015d573d6000803e3d6000fd5b5060008054815260016020526040812080546001600160a01b0319166001600160a01b0384161790558054919250806101958361036c565b9091555090949350505050565b6129508061039683390190565b634e487b7160e01b600052604160045260246000fd5b600082601f8301126101d657600080fd5b813567ffffffffffffffff808211156101f1576101f16101af565b604051601f8301601f19908116603f01168101908282118183101715610219576102196101af565b8160405283815286602085880101111561023257600080fd5b836020870160208301376000602085830101528094505050505092915050565b6000806040838503121561026557600080fd5b823567ffffffffffffffff8082111561027d57600080fd5b610289868387016101c5565b9350602085013591508082111561029f57600080fd5b506102ac858286016101c5565b9150509250929050565b6000602082840312156102c857600080fd5b5035919050565b6000815180845260005b818110156102f5576020818501810151868301820152016102d9565b81811115610307576000602083870101525b50601f01601f19169290920160200192915050565b60a08152600061032f60a08301886102cf565b828103602084015261034181886102cf565b6001600160a01b03968716604085015260608401959095525050921660809092019190915292915050565b600060001982141561038e57634e487b7160e01b600052601160045260246000fd5b506001019056fe60e06040526001608081815260a082905260c0919091526200002690600f906003620000c5565b503480156200003457600080fd5b506040516200295038038062002950833981016040819052620000579162000287565b845185908590620000709060009060208501906200010d565b508051620000869060019060208401906200010d565b5050600b80546001600160a01b039586166001600160a01b031991821617909155600c8054939095169216919091179092556012555062000364915050565b8260038101928215620000fb579160200282015b82811115620000fb578251829060ff16905591602001919060010190620000d9565b50620001099291506200018a565b5090565b8280546200011b9062000327565b90600052602060002090601f0160209004810192826200013f5760008555620000fb565b82601f106200015a57805160ff1916838001178555620000fb565b82800160010185558215620000fb579182015b82811115620000fb5782518255916020019190600101906200016d565b5b808211156200010957600081556001016200018b565b634e487b7160e01b600052604160045260246000fd5b600082601f830112620001c957600080fd5b81516001600160401b0380821115620001e657620001e6620001a1565b604051601f8301601f19908116603f01168101908282118183101715620002115762000211620001a1565b816040528381526020925086838588010111156200022e57600080fd5b600091505b8382101562000252578582018301518183018401529082019062000233565b83821115620002645760008385830101525b9695505050505050565b6001600160a01b03811681146200028457600080fd5b50565b600080600080600060a08688031215620002a057600080fd5b85516001600160401b0380821115620002b857600080fd5b620002c689838a01620001b7565b96506020880151915080821115620002dd57600080fd5b50620002ec88828901620001b7565b9450506040860151620002ff816200026e565b60608701516080880151919450925062000319816200026e565b809150509295509295909350565b600181811c908216806200033c57607f821691505b602082108114156200035e57634e487b7160e01b600052602260045260246000fd5b50919050565b6125dc80620003746000396000f3fe608060405234801561001057600080fd5b506004361061021c5760003560e01c80636a62784211610125578063b88d4fde116100ad578063d2e59bfe1161007c578063d2e59bfe1461048b578063d87ffb701461049e578063e985e9c5146104b1578063edf87704146104ed578063ff37868b1461050057600080fd5b8063b88d4fde1461043f578063c87b56dd14610452578063cec1da9e14610465578063cf08a1aa1461047857600080fd5b80639518a3e9116100f45780639518a3e9146103eb57806395d89b41146103fe578063a22cb46514610406578063a26b967f14610419578063b2dfa0071461042c57600080fd5b80636a627842146103aa5780636c0360eb146103bd57806370a08231146103c55780637963b193146103d857600080fd5b806323b872dd116101a8578063495ff7b711610177578063495ff7b71461035557806356100e14146103685780635be980671461037b5780635d240c58146103845780636352211e1461039757600080fd5b806323b872dd14610309578063402533c11461031c57806342842e0e1461032f57806349015aac1461034257600080fd5b8063095ea7b3116101ef578063095ea7b3146102aa578063131e2f18146102bf57806317ef8ae6146102d257806318160ddd146102e55780631e8f9ffa146102f657600080fd5b806301ffc9a71461022157806306fdde031461024957806307e229ae1461025e578063081812fc1461027f575b600080fd5b61023461022f366004611c3b565b610513565b60405190151581526020015b60405180910390f35b610251610565565b6040516102409190611cb7565b61027161026c366004611cca565b6105f7565b604051908152602001610240565b61029261028d366004611cca565b61063a565b6040516001600160a01b039091168152602001610240565b6102bd6102b8366004611cfa565b610661565b005b6102716102cd366004611cca565b610777565b6102716102e0366004611cca565b61078e565b600e546001600160801b0316610271565b600c54610292906001600160a01b031681565b6102bd610317366004611d24565b6107c8565b61025161032a366004611d60565b6107f9565b6102bd61033d366004611d24565b610878565b610271610350366004611cca565b610893565b610271610363366004611d60565b6108cd565b6102bd610376366004611d60565b61092e565b61027160125481565b6102bd610392366004611d60565b6109dd565b6102926103a5366004611cca565b610a84565b6102716103b8366004611d82565b610ae4565b610251610b87565b6102716103d3366004611d82565b610c15565b6102716103e6366004611d60565b610c9b565b600b54610292906001600160a01b031681565b610251610cfc565b6102bd610414366004611d9d565b610d0b565b610271610427366004611cca565b610d1a565b61027161043a366004611cca565b610d54565b6102bd61044d366004611e48565b610deb565b610251610460366004611cca565b610e23565b610271610473366004611cca565b610e53565b610271610486366004611cca565b610ea2565b610271610499366004611cca565b610f33565b6102bd6104ac366004611d60565b610fc9565b6102346104bf366004611ef3565b6001600160a01b03918216600090815260056020908152604080832093909416825291909152205460ff1690565b6102516104fb366004611cca565b611070565b61025161050e366004611cca565b611196565b60006001600160e01b031982166380ac58cd60e01b148061054457506001600160e01b03198216635b5e139f60e01b145b8061055f57506301ffc9a760e01b6001600160e01b03198316145b92915050565b60606000805461057490611f26565b80601f01602080910402602001604051908101604052809291908181526020018280546105a090611f26565b80156105ed5780601f106105c2576101008083540402835291602001916105ed565b820191906000526020600020905b8154815290600101906020018083116105d057829003601f168201915b5050505050905090565b6000610602826112c9565b6106275760405162461bcd60e51b815260040161061e90611f5b565b60405180910390fd5b5060009081526007602052604090205490565b6000610645826112e6565b506000908152600460205260409020546001600160a01b031690565b600061066c82610a84565b9050806001600160a01b0316836001600160a01b031614156106da5760405162461bcd60e51b815260206004820152602160248201527f4552433732313a20617070726f76616c20746f2063757272656e74206f776e656044820152603960f91b606482015260840161061e565b336001600160a01b03821614806106f657506106f681336104bf565b6107685760405162461bcd60e51b815260206004820152603e60248201527f4552433732313a20617070726f76652063616c6c6572206973206e6f7420746f60448201527f6b656e206f776e6572206e6f7220617070726f76656420666f7220616c6c0000606482015260840161061e565b6107728383611339565b505050565b600f816003811061078757600080fd5b0154905081565b6000610799826112c9565b6107b55760405162461bcd60e51b815260040161061e90611f5b565b5060009081526009602052604090205490565b6107d233826113a7565b6107ee5760405162461bcd60e51b815260040161061e90611faa565b610772838383611426565b6060610804836112c9565b6108205760405162461bcd60e51b815260040161061e90611f5b565b600083815260066020526040902080548390811061084057610840611ff8565b906000526020600020906003020160000160405160200161086191906120a8565b604051602081830303815290604052905092915050565b61077283838360405180602001604052806000815250610deb565b600061089e826112c9565b6108ba5760405162461bcd60e51b815260040161061e90611f5b565b5060009081526008602052604090205490565b60006108d8836112c9565b6108f45760405162461bcd60e51b815260040161061e90611f5b565b600083815260066020526040902080548390811061091457610914611ff8565b906000526020600020906003020160020154905092915050565b600b546001600160a01b0316331461094557600080fd5b61094e81610a84565b6001600160a01b0316326001600160a01b03161461097e5760405162461bcd60e51b815260040161061e906120d2565b6000818152600960205260408120805484929061099c90849061212d565b9091555050604051828152819033907f42e702cca92cac2a67fd87ece90cd65cdc0bdee9a7ae20dc725b73b263468af5906020015b60405180910390a35050565b600b546001600160a01b031633146109f457600080fd5b6109fd81610a84565b6001600160a01b0316326001600160a01b031614610a2d5760405162461bcd60e51b815260040161061e906120d2565b60008181526008602052604081208054849290610a4b90849061212d565b9091555050604051828152819033907f81665166aed8384c9df23393834f1b549569bbb3ca825f52f8390f1bbe163871906020016109d1565b6000818152600260205260408120546001600160a01b03168061055f5760405162461bcd60e51b8152602060048201526018602482015277115490cdcc8c4e881a5b9d985b1a59081d1bdad95b88125160421b604482015260640161061e565b600b546000906001600160a01b03163314610afe57600080fd5b600e54610b159083906001600160801b03166115cd565b600e80546001600160801b039081166000908152600a6020526040812042905582549091169190610b4583612145565b82546101009290920a6001600160801b03818102199093169183160217909155600e54610b7692506001911661216c565b6001600160801b031690505b919050565b600d8054610b9490611f26565b80601f0160208091040260200160405190810160405280929190818152602001828054610bc090611f26565b8015610c0d5780601f10610be257610100808354040283529160200191610c0d565b820191906000526020600020905b815481529060010190602001808311610bf057829003601f168201915b505050505081565b60006001600160a01b038216610c7f5760405162461bcd60e51b815260206004820152602960248201527f4552433732313a2061646472657373207a65726f206973206e6f7420612076616044820152683634b21037bbb732b960b91b606482015260840161061e565b506001600160a01b031660009081526003602052604090205490565b6000610ca6836112c9565b610cc25760405162461bcd60e51b815260040161061e90611f5b565b6000838152600660205260409020805483908110610ce257610ce2611ff8565b906000526020600020906003020160010154905092915050565b60606001805461057490611f26565b610d163383836115e7565b5050565b6000610d25826112c9565b610d415760405162461bcd60e51b815260040161061e90611f5b565b5060009081526006602052604090205490565b6000610d5f826112c9565b610d7b5760405162461bcd60e51b815260040161061e90611f5b565b60005b600083815260066020526040902054811015610de5576000838152600660205260409020805482908110610db457610db4611ff8565b90600052602060002090600302016001015482610dd1919061212d565b915080610ddd81612194565b915050610d7e565b50919050565b610df533836113a7565b610e115760405162461bcd60e51b815260040161061e90611faa565b610e1d848484846116b6565b50505050565b6060610e2e826112c9565b610e4a5760405162461bcd60e51b815260040161061e90611f5b565b61055f82611070565b6000610e5e826112c9565b610e7a5760405162461bcd60e51b815260040161061e90611f5b565b6000828152600a60205260409020546201518090610e9890426121af565b61055f91906121dc565b6000610ead826112c9565b610ec95760405162461bcd60e51b815260040161061e90611f5b565b60005b600083815260066020526040902054811015610de5576000838152600660205260409020805482908110610f0257610f02611ff8565b90600052602060002090600302016002015482610f1f919061212d565b915080610f2b81612194565b915050610ecc565b6000610f3e826112c9565b610f5a5760405162461bcd60e51b815260040161061e90611f5b565b6000610f65836105f7565b90506000610f7284610893565b90506000610f7f8561078e565b601154909150610f909082906121f0565b601054610f9e9084906121f0565b600f54610fac9086906121f0565b610fb6919061212d565b610fc0919061212d565b95945050505050565b600b546001600160a01b03163314610fe057600080fd5b610fe981610a84565b6001600160a01b0316326001600160a01b0316146110195760405162461bcd60e51b815260040161061e906120d2565b6000818152600760205260408120805484929061103790849061212d565b9091555050604051828152819033907f871d2dd633714517795b5e7c02e648de931e9a9d914f99baf5a96995e096be48906020016109d1565b6060600061107d83610f33565b600c54601254604051639518c22760e01b81529293506060926001600160a01b0390921691639518c227916110bf918690600401918252602082015260400190565b600060405180830381865afa1580156110dc573d6000803e3d6000fd5b505050506040513d6000823e601f3d908101601f19168201604052611104919081019061220f565b50600061110f610565565b611117610565565b83611121866116e9565b6040516020016111349493929190612299565b604051602081830303815290604052905061116d8160405160200161115991906123b6565b6040516020818303038152906040526117e7565b60405160200161117d91906123d2565b6040516020818303038152906040529350505050919050565b60606111a1826112c9565b6111bd5760405162461bcd60e51b815260040161061e90611f5b565b604080516020810190915260008082525b6000848152600660205260409020548110156112c2576000848152600660205260409020546111fe82600161212d565b101561125c57600084815260066020526040902080548391908390811061122757611227611ff8565b9060005260206000209060030201600001604051602001611249929190612417565b60408051601f19818403019052526112b0565b600084815260066020526040902080548391908390811061127f5761127f611ff8565b90600052602060002090600302016000016040516020016112a1929190612468565b60408051601f19818403019052525b806112ba81612194565b9150506111ce565b5092915050565b6000908152600260205260409020546001600160a01b0316151590565b6112ef816112c9565b6113365760405162461bcd60e51b8152602060048201526018602482015277115490cdcc8c4e881a5b9d985b1a59081d1bdad95b88125160421b604482015260640161061e565b50565b600081815260046020526040902080546001600160a01b0319166001600160a01b038416908117909155819061136e82610a84565b6001600160a01b03167f8c5be1e5ebec7d5bd14f71427d1e84f3dd0314c0f7b2291e5b200ac8c7c3b92560405160405180910390a45050565b6000806113b383610a84565b9050806001600160a01b0316846001600160a01b031614806113fa57506001600160a01b0380821660009081526005602090815260408083209388168352929052205460ff165b8061141e5750836001600160a01b03166114138461063a565b6001600160a01b0316145b949350505050565b826001600160a01b031661143982610a84565b6001600160a01b03161461149d5760405162461bcd60e51b815260206004820152602560248201527f4552433732313a207472616e736665722066726f6d20696e636f72726563742060448201526437bbb732b960d91b606482015260840161061e565b6001600160a01b0382166114ff5760405162461bcd60e51b8152602060048201526024808201527f4552433732313a207472616e7366657220746f20746865207a65726f206164646044820152637265737360e01b606482015260840161061e565b61150a83838361194f565b611515600082611339565b6001600160a01b038316600090815260036020526040812080546001929061153e9084906121af565b90915550506001600160a01b038216600090815260036020526040812080546001929061156c90849061212d565b909155505060008181526002602052604080822080546001600160a01b0319166001600160a01b0386811691821790925591518493918716917fddf252ad1be2c89b69c2b068fc378daa952ba7f163c4a11628f55a4df523b3ef91a4505050565b610d168282604051806020016040528060008152506119b5565b816001600160a01b0316836001600160a01b031614156116495760405162461bcd60e51b815260206004820152601960248201527f4552433732313a20617070726f766520746f2063616c6c657200000000000000604482015260640161061e565b6001600160a01b03838116600081815260056020908152604080832094871680845294825291829020805460ff191686151590811790915591519182527f17307eab39ab6107e8899845ad3d59bd9653f200f220920489ca2b5937696c31910160405180910390a3505050565b6116c1848484611426565b6116cd848484846119e8565b610e1d5760405162461bcd60e51b815260040161061e906124a6565b60608161170d5750506040805180820190915260018152600360fc1b602082015290565b8160005b8115611737578061172181612194565b91506117309050600a836121dc565b9150611711565b60008167ffffffffffffffff81111561175257611752611dd9565b6040519080825280601f01601f19166020018201604052801561177c576020820181803683370190505b5090505b841561141e576117916001836121af565b915061179e600a866124f8565b6117a990603061212d565b60f81b8183815181106117be576117be611ff8565b60200101906001600160f81b031916908160001a9053506117e0600a866121dc565b9450611780565b606081516000141561180757505060408051602081019091526000815290565b60006040518060600160405280604081526020016125676040913990506000600384516002611836919061212d565b61184091906121dc565b61184b9060046121f0565b9050600061185a82602061212d565b67ffffffffffffffff81111561187257611872611dd9565b6040519080825280601f01601f19166020018201604052801561189c576020820181803683370190505b509050818152600183018586518101602084015b8183101561190a5760039283018051603f601282901c811687015160f890811b8552600c83901c8216880151811b6001860152600683901c8216880151811b60028601529116860151901b938201939093526004016118b0565b600389510660018114611924576002811461193557611941565b613d3d60f01b600119830152611941565b603d60f81b6000198301525b509398975050505050505050565b6001600160a01b038316156107725760405162461bcd60e51b815260206004820152602660248201527f4552433732313a207472616e736665722066726f6d206e6f6e2d7a65726f206160448201526564647265737360d01b606482015260840161061e565b6119bf8383611ae6565b6119cc60008484846119e8565b6107725760405162461bcd60e51b815260040161061e906124a6565b60006001600160a01b0384163b15611adb57604051630a85bd0160e11b81526001600160a01b0385169063150b7a0290611a2c90339089908890889060040161250c565b6020604051808303816000875af1925050508015611a67575060408051601f3d908101601f19168201909252611a6491810190612549565b60015b611ac1573d808015611a95576040519150601f19603f3d011682016040523d82523d6000602084013e611a9a565b606091505b508051611ab95760405162461bcd60e51b815260040161061e906124a6565b805181602001fd5b6001600160e01b031916630a85bd0160e11b14905061141e565b506001949350505050565b6001600160a01b038216611b3c5760405162461bcd60e51b815260206004820181905260248201527f4552433732313a206d696e7420746f20746865207a65726f2061646472657373604482015260640161061e565b611b45816112c9565b15611b925760405162461bcd60e51b815260206004820152601c60248201527f4552433732313a20746f6b656e20616c7265616479206d696e74656400000000604482015260640161061e565b611b9e6000838361194f565b6001600160a01b0382166000908152600360205260408120805460019290611bc790849061212d565b909155505060008181526002602052604080822080546001600160a01b0319166001600160a01b03861690811790915590518392907fddf252ad1be2c89b69c2b068fc378daa952ba7f163c4a11628f55a4df523b3ef908290a45050565b6001600160e01b03198116811461133657600080fd5b600060208284031215611c4d57600080fd5b8135611c5881611c25565b9392505050565b60005b83811015611c7a578181015183820152602001611c62565b83811115610e1d5750506000910152565b60008151808452611ca3816020860160208601611c5f565b601f01601f19169290920160200192915050565b602081526000611c586020830184611c8b565b600060208284031215611cdc57600080fd5b5035919050565b80356001600160a01b0381168114610b8257600080fd5b60008060408385031215611d0d57600080fd5b611d1683611ce3565b946020939093013593505050565b600080600060608486031215611d3957600080fd5b611d4284611ce3565b9250611d5060208501611ce3565b9150604084013590509250925092565b60008060408385031215611d7357600080fd5b50508035926020909101359150565b600060208284031215611d9457600080fd5b611c5882611ce3565b60008060408385031215611db057600080fd5b611db983611ce3565b915060208301358015158114611dce57600080fd5b809150509250929050565b634e487b7160e01b600052604160045260246000fd5b604051601f8201601f1916810167ffffffffffffffff81118282101715611e1857611e18611dd9565b604052919050565b600067ffffffffffffffff821115611e3a57611e3a611dd9565b50601f01601f191660200190565b60008060008060808587031215611e5e57600080fd5b611e6785611ce3565b9350611e7560208601611ce3565b925060408501359150606085013567ffffffffffffffff811115611e9857600080fd5b8501601f81018713611ea957600080fd5b8035611ebc611eb782611e20565b611def565b818152886020838501011115611ed157600080fd5b8160208401602083013760006020838301015280935050505092959194509250565b60008060408385031215611f0657600080fd5b611f0f83611ce3565b9150611f1d60208401611ce3565b90509250929050565b600181811c90821680611f3a57607f821691505b60208210811415610de557634e487b7160e01b600052602260045260246000fd5b6020808252602f908201527f4552433732314d657461646174613a2055524920717565727920666f72206e6f60408201526e3732bc34b9ba32b73a103a37b5b2b760891b606082015260800190565b6020808252602e908201527f4552433732313a2063616c6c6572206973206e6f7420746f6b656e206f776e6560408201526d1c881b9bdc88185c1c1c9bdd995960921b606082015260800190565b634e487b7160e01b600052603260045260246000fd5b8054600090600181811c908083168061202857607f831692505b602080841082141561204a57634e487b7160e01b600052602260045260246000fd5b81801561205e576001811461206f5761209c565b60ff1986168952848901965061209c565b60008881526020902060005b868110156120945781548b82015290850190830161207b565b505084890196505b50505050505092915050565b7468747470733a2f2f697066732e696f2f697066732f60581b81526000611c58601583018461200e565b60208082526025908201527f4f6e6c7920746865206f776e65722063616e20616464206120636f6e747269626040820152643aba34b7b760d91b606082015260800190565b634e487b7160e01b600052601160045260246000fd5b6000821982111561214057612140612117565b500190565b60006001600160801b038083168181141561216257612162612117565b6001019392505050565b60006001600160801b038381169083168181101561218c5761218c612117565b039392505050565b60006000198214156121a8576121a8612117565b5060010190565b6000828210156121c1576121c1612117565b500390565b634e487b7160e01b600052601260045260246000fd5b6000826121eb576121eb6121c6565b500490565b600081600019048311821515161561220a5761220a612117565b500290565b60006020828403121561222157600080fd5b815167ffffffffffffffff81111561223857600080fd5b8201601f8101841361224957600080fd5b8051612257611eb782611e20565b81815285602083850101111561226c57600080fd5b610fc0826020830160208601611c5f565b6000815161228f818560208601611c5f565b9290920192915050565b683d913730b6b2911d1160b91b815284516000906122be816009850160208a01611c5f565b6a0204d656d626572736869760ac1b600991840191820181905271111610113232b9b1b934b83a34b7b7111d1160711b60148301528651612306816026850160208b01611c5f565b60269201918201526c1116101134b6b0b3b2911d101160991b6031820152845161233781603e840160208901611c5f565b7f222c202261747472696275746573223a205b7b2274726169745f74797065223a9101603e8101919091526d08941bddd95c8813195d995b088b60921b605e82015268113b30b63ab2911d1160b91b606c8201526123ab61239b607583018661227d565b63227d5d7d60e01b815260040190565b979650505050505050565b600082516123c8818460208701611c5f565b9190910192915050565b7f646174613a6170706c69636174696f6e2f6a736f6e3b6261736536342c00000081526000825161240a81601d850160208701611c5f565b91909101601d0192915050565b60008351612429818460208801611c5f565b7468747470733a2f2f697066732e696f2f697066732f60581b908301908152612455601582018561200e565b600b60fa1b815260010195945050505050565b6000835161247a818460208801611c5f565b7468747470733a2f2f697066732e696f2f697066732f60581b908301908152610fc0601582018561200e565b60208082526032908201527f4552433732313a207472616e7366657220746f206e6f6e20455243373231526560408201527131b2b4bb32b91034b6b83632b6b2b73a32b960711b606082015260800190565b600082612507576125076121c6565b500690565b6001600160a01b038581168252841660208201526040810183905260806060820181905260009061253f90830184611c8b565b9695505050505050565b60006020828403121561255b57600080fd5b8151611c5881611c2556fe4142434445464748494a4b4c4d4e4f505152535455565758595a6162636465666768696a6b6c6d6e6f707172737475767778797a303132333435363738392b2fa2646970667358221220739c4e9ffbc06028123d9f90a715239b625f3489be251b7fa136b3a398b1800864736f6c634300080a0033a264697066735822122005dc17c5abd3050d8ba18b0baf3b5ca58850fd1b98993eb66c554c85d205161164736f6c634300080a003360806040526000805534801561001457600080fd5b50604051610f2c380380610f2c83398101604081905261003391610058565b600280546001600160a01b0319166001600160a01b0392909216919091179055610088565b60006020828403121561006a57600080fd5b81516001600160a01b038116811461008157600080fd5b9392505050565b610e95806100976000396000f3fe608060405234801561001057600080fd5b50600436106100415760003560e01c80635a1f3c28146100465780638e9230121461008b5780639518a3e91461009e575b600080fd5b61006f6100543660046101a9565b6000908152600160205260409020546001600160a01b031690565b6040516001600160a01b03909116815260200160405180910390f35b61006f6100993660046101d8565b6100b1565b60025461006f906001600160a01b031681565b6002546000906001600160a01b031633146100cb57600080fd5b60025460405160009184916001600160a01b03909116906100eb9061019c565b6100f69291906102d6565b604051809103906000f080158015610112573d6000803e3d6000fd5b5060008054815260016020526040812080546001600160a01b0319166001600160a01b03841617905580549192508061014a83610316565b91905055507f51d6a8f0ed3bde47953d69e76dfc64bb830fccc50b9100ba64f29137d2d57f16600160005461017f9190610331565b8460405161018e929190610348565b60405180910390a192915050565b610af68061036a83390190565b6000602082840312156101bb57600080fd5b5035919050565b634e487b7160e01b600052604160045260246000fd5b6000602082840312156101ea57600080fd5b813567ffffffffffffffff8082111561020257600080fd5b818401915084601f83011261021657600080fd5b813581811115610228576102286101c2565b604051601f8201601f19908116603f01168101908382118183101715610250576102506101c2565b8160405282815287602084870101111561026957600080fd5b826020860160208301376000928101602001929092525095945050505050565b6000815180845260005b818110156102af57602081850181015186830182015201610293565b818111156102c1576000602083870101525b50601f01601f19169290920160200192915050565b6040815260006102e96040830185610289565b905060018060a01b03831660208301529392505050565b634e487b7160e01b600052601160045260246000fd5b600060001982141561032a5761032a610300565b5060010190565b60008282101561034357610343610300565b500390565b8281526040602082015260006103616040830184610289565b94935050505056fe60806040523480156200001157600080fd5b5060405162000af638038062000af683398101604081905262000034916200014a565b81516200004990600290602085019062000071565b50600180546001600160a01b0319166001600160a01b03929092169190911790555062000278565b8280546200007f906200023b565b90600052602060002090601f016020900481019282620000a35760008555620000ee565b82601f10620000be57805160ff1916838001178555620000ee565b82800160010185558215620000ee579182015b82811115620000ee578251825591602001919060010190620000d1565b50620000fc92915062000100565b5090565b5b80821115620000fc576000815560010162000101565b634e487b7160e01b600052604160045260246000fd5b80516001600160a01b03811681146200014557600080fd5b919050565b600080604083850312156200015e57600080fd5b82516001600160401b03808211156200017657600080fd5b818501915085601f8301126200018b57600080fd5b815181811115620001a057620001a062000117565b604051601f8201601f19908116603f01168101908382118183101715620001cb57620001cb62000117565b81604052828152602093508884848701011115620001e857600080fd5b600091505b828210156200020c5784820184015181830185015290830190620001ed565b828211156200021e5760008484830101525b9550620002309150508582016200012d565b925050509250929050565b600181811c908216806200025057607f821691505b602082108114156200027257634e487b7160e01b600052602260045260246000fd5b50919050565b61086e80620002886000396000f3fe60806040526004361061007b5760003560e01c80634e6630b01161004e5780634e6630b014610100578063523fba7f146101245780639518a3e914610151578063f6326fb31461018957600080fd5b806306fdde0314610080578063338b5dea146100ab5780633ccdbb28146100cd5780634782f779146100ed575b600080fd5b34801561008c57600080fd5b50610095610191565b6040516100a2919061067e565b60405180910390f35b3480156100b757600080fd5b506100cb6100c63660046106eb565b61021f565b005b3480156100d957600080fd5b506100cb6100e8366004610717565b610344565b6100cb6100fb3660046106eb565b61051a565b34801561010c57600080fd5b5061011660005481565b6040519081526020016100a2565b34801561013057600080fd5b5061011661013f366004610759565b60036020526000908152604090205481565b34801561015d57600080fd5b50600154610171906001600160a01b031681565b6040516001600160a01b0390911681526020016100a2565b6100cb610619565b6002805461019e9061077d565b80601f01602080910402602001604051908101604052809291908181526020018280546101ca9061077d565b80156102175780601f106101ec57610100808354040283529160200191610217565b820191906000526020600020905b8154815290600101906020018083116101fa57829003601f168201915b505050505081565b6001546001600160a01b0316331461023657600080fd5b6000811161028b5760405162461bcd60e51b815260206004820152601d60248201527f416d6f756e74206d7573742062652067726561746572207468616e203000000060448201526064015b60405180910390fd5b60405163a9059cbb60e01b8152336004820152602481018290526001600160a01b0383169063a9059cbb906044016020604051808303816000875af11580156102d8573d6000803e3d6000fd5b505050506040513d601f19601f820116820180604052508101906102fc91906107b8565b50604080516001600160a01b0384168152602081018390527fbc7c8a4d8049a3f99a02f2a20640c206a2e4d3f2fa54fd20da9f01fda3620cda91015b60405180910390a15050565b6001546001600160a01b0316331461035b57600080fd5b600082116103ab5760405162461bcd60e51b815260206004820152601d60248201527f416d6f756e74206d7573742062652067726561746572207468616e20300000006044820152606401610282565b6040516370a0823160e01b815233600482015282906001600160a01b038516906370a0823190602401602060405180830381865afa1580156103f1573d6000803e3d6000fd5b505050506040513d601f19601f8201168201806040525081019061041591906107da565b10156104575760405162461bcd60e51b81526020600482015260116024820152704e6f7420656e6f75676820746f6b656e7360781b6044820152606401610282565b60405163a9059cbb60e01b81526001600160a01b0382811660048301526024820184905284169063a9059cbb906044016020604051808303816000875af11580156104a6573d6000803e3d6000fd5b505050506040513d601f19601f820116820180604052508101906104ca91906107b8565b50604080516001600160a01b0385811682526020820185905283168183015290517fa0524ee0fd8662d6c046d199da2a6d3dc49445182cec055873a5bb9c2843c8e09181900360600190a1505050565b6001546001600160a01b0316331461053157600080fd5b6000548111156105745760405162461bcd60e51b815260206004820152600e60248201526d09cdee840cadcdeeaced0408aa8960931b6044820152606401610282565b806000808282546105859190610809565b90915550506040516001600160a01b038316908290600081818185875af1925050503d80600081146105d3576040519150601f19603f3d011682016040523d82523d6000602084013e6105d8565b606091505b5050604080518381526001600160a01b03851660208201527f6148672a948a12b8e0bf92a9338349b9ac890fad62a234abaf0a4da99f62cfcc925001610338565b6001546001600160a01b0316331461063057600080fd5b346000808282546106419190610820565b909155505060405134808252907fadb6a3fe015de6cf14b532348b91a6202eb862af051124a853b5935e034cfd7b9060200160405180910390a150565b600060208083528351808285015260005b818110156106ab5785810183015185820160400152820161068f565b818111156106bd576000604083870101525b50601f01601f1916929092016040019392505050565b6001600160a01b03811681146106e857600080fd5b50565b600080604083850312156106fe57600080fd5b8235610709816106d3565b946020939093013593505050565b60008060006060848603121561072c57600080fd5b8335610737816106d3565b925060208401359150604084013561074e816106d3565b809150509250925092565b60006020828403121561076b57600080fd5b8135610776816106d3565b9392505050565b600181811c9082168061079157607f821691505b602082108114156107b257634e487b7160e01b600052602260045260246000fd5b50919050565b6000602082840312156107ca57600080fd5b8151801515811461077657600080fd5b6000602082840312156107ec57600080fd5b5051919050565b634e487b7160e01b600052601160045260246000fd5b60008282101561081b5761081b6107f3565b500390565b60008219821115610833576108336107f3565b50019056fea26469706673582212205683cb840f531aea90b7af568559590cd21fc5a6e3c89ac85cf01a89e5aa392664736f6c634300080a0033a264697066735822122068977f3d5a5521d132d12660a90da0cd94c7d5a9ff8f29656158f7ee634b250d64736f6c634300080a0033",
  "devdoc": {
    "kind": "dev",
    "methods": {
      "createDAO(string,string,string)": {
        "details": "Include a offchain signer to verify if the structure of the datafile is correct",
        "params": {
          "description": "Description of the DAO",
          "name": "The name of the DAO.",
          "symbol": "The symbol of the DAO."
        }
      }
    },
    "version": 1
  },
  "userdoc": {
    "kind": "user",
    "methods": {
      "createDAO(string,string,string)": {
        "notice": "Create a new DAO."
      }
    },
    "version": 1
  },
  "storageLayout": {
    "storage": [
      {
        "astId": 2357,
        "contract": "contracts/Giv3Core.sol:Giv3Core",
        "label": "GIV3_NFT_FACTORY",
        "offset": 0,
        "slot": "0",
        "type": "t_contract(Giv3NFTFactory)3458"
      },
      {
        "astId": 2360,
        "contract": "contracts/Giv3Core.sol:Giv3Core",
        "label": "GIV3_TREASURY_FACTORY",
        "offset": 0,
        "slot": "1",
        "type": "t_contract(Giv3TreasuryFactory)4165"
      },
      {
        "astId": 2370,
        "contract": "contracts/Giv3Core.sol:Giv3Core",
        "label": "daoIds",
        "offset": 0,
        "slot": "2",
        "type": "t_mapping(t_uint256,t_struct(DAO)2365_storage)"
      },
      {
        "astId": 2374,
        "contract": "contracts/Giv3Core.sol:Giv3Core",
        "label": "treasuryIds",
        "offset": 0,
        "slot": "3",
        "type": "t_mapping(t_uint256,t_address)"
      },
      {
        "astId": 2376,
        "contract": "contracts/Giv3Core.sol:Giv3Core",
        "label": "daoCounter",
        "offset": 0,
        "slot": "4",
        "type": "t_uint256"
      }
    ],
    "types": {
      "t_address": {
        "encoding": "inplace",
        "label": "address",
        "numberOfBytes": "20"
      },
      "t_contract(Giv3NFTFactory)3458": {
        "encoding": "inplace",
        "label": "contract Giv3NFTFactory",
        "numberOfBytes": "20"
      },
      "t_contract(Giv3TreasuryFactory)4165": {
        "encoding": "inplace",
        "label": "contract Giv3TreasuryFactory",
        "numberOfBytes": "20"
      },
      "t_mapping(t_uint256,t_address)": {
        "encoding": "mapping",
        "key": "t_uint256",
        "label": "mapping(uint256 => address)",
        "numberOfBytes": "32",
        "value": "t_address"
      },
      "t_mapping(t_uint256,t_struct(DAO)2365_storage)": {
        "encoding": "mapping",
        "key": "t_uint256",
        "label": "mapping(uint256 => struct Giv3Core.DAO)",
        "numberOfBytes": "32",
        "value": "t_struct(DAO)2365_storage"
      },
      "t_string_storage": {
        "encoding": "bytes",
        "label": "string",
        "numberOfBytes": "32"
      },
      "t_struct(DAO)2365_storage": {
        "encoding": "inplace",
        "label": "struct Giv3Core.DAO",
        "members": [
          {
            "astId": 2362,
            "contract": "contracts/Giv3Core.sol:Giv3Core",
            "label": "contractAddress",
            "offset": 0,
            "slot": "0",
            "type": "t_address"
          },
          {
            "astId": 2364,
            "contract": "contracts/Giv3Core.sol:Giv3Core",
            "label": "description",
            "offset": 0,
            "slot": "1",
            "type": "t_string_storage"
          }
        ],
        "numberOfBytes": "64"
      },
      "t_uint256": {
        "encoding": "inplace",
        "label": "uint256",
        "numberOfBytes": "32"
      }
    }
  }
}