{
  "address": "0xDc64a140Aa3E981100a9becA4E685f962f0cF6C9",
  "abi": [
    {
      "inputs": [
        {
          "internalType": "contract IGiv3Core",
          "name": "_giv3Core",
          "type": "address"
        },
        {
          "internalType": "contract IImageStorage",
          "name": "_staticImageStorage",
          "type": "address"
        },
        {
          "internalType": "contract IImageStorage",
          "name": "_dynamicImageStorage",
          "type": "address"
        }
      ],
      "stateMutability": "nonpayable",
      "type": "constructor"
    },
    {
      "anonymous": false,
      "inputs": [
        {
          "indexed": false,
          "internalType": "uint256",
          "name": "id",
          "type": "uint256"
        },
        {
          "indexed": false,
          "internalType": "address",
          "name": "collection",
          "type": "address"
        }
      ],
      "name": "CollectionCreated",
      "type": "event"
    },
    {
      "inputs": [],
      "name": "DYNAMIC_IMAGE_STORAGE",
      "outputs": [
        {
          "internalType": "contract IImageStorage",
          "name": "",
          "type": "address"
        }
      ],
      "stateMutability": "view",
      "type": "function"
    },
    {
      "inputs": [],
      "name": "GIV3_CORE",
      "outputs": [
        {
          "internalType": "contract IGiv3Core",
          "name": "",
          "type": "address"
        }
      ],
      "stateMutability": "view",
      "type": "function"
    },
    {
      "inputs": [],
      "name": "STATIC_IMAGE_STORAGE",
      "outputs": [
        {
          "internalType": "contract IImageStorage",
          "name": "",
          "type": "address"
        }
      ],
      "stateMutability": "view",
      "type": "function"
    },
    {
      "inputs": [
        {
          "internalType": "string",
          "name": "name",
          "type": "string"
        },
        {
          "internalType": "string",
          "name": "symbol",
          "type": "string"
        }
      ],
      "name": "createCollection",
      "outputs": [
        {
          "internalType": "contract Giv3NFT",
          "name": "",
          "type": "address"
        }
      ],
      "stateMutability": "nonpayable",
      "type": "function"
    },
    {
      "inputs": [
        {
          "internalType": "uint256",
          "name": "id",
          "type": "uint256"
        }
      ],
      "name": "getCollection",
      "outputs": [
        {
          "internalType": "contract Giv3NFT",
          "name": "",
          "type": "address"
        }
      ],
      "stateMutability": "view",
      "type": "function"
    }
  ],
  "transactionHash": "0x7393366170a2c9e0cbb4e64a8a09de4051e810d5fb6509fa53e1264323df9c0e",
  "args": [
    "0xCf7Ed3AccA5a467e9e704C703E8D87F634fB0Fc9",
    "0xe7f1725E7734CE288F8367e1Bb143E90bb3F0512",
    "0x9fE46736679d2D9a65F0992F2272dE9f3c7fa6e0"
  ],
  "numDeployments": 1,
  "solcInputHash": "40a8194097e86e97670a4fd9003e02c2",
  "bytecode": "0x60806040526000805534801561001457600080fd5b506040516128ad3803806128ad8339810160408190526100339161008d565b600280546001600160a01b039485166001600160a01b0319918216179091556003805493851693821693909317909255600480549190931691161790556100da565b6001600160a01b038116811461008a57600080fd5b50565b6000806000606084860312156100a257600080fd5b83516100ad81610075565b60208501519093506100be81610075565b60408501519092506100cf81610075565b809150509250925092565b6127c4806100e96000396000f3fe608060405234801561001057600080fd5b50600436106100575760003560e01c8063176b9b751461005c5780635a1f3c281461008b578063897a2504146100b45780638e4aa826146100c75780639518a3e9146100da575b600080fd5b61006f61006a366004610252565b6100ed565b6040516001600160a01b03909116815260200160405180910390f35b61006f6100993660046102b6565b6000908152600160205260409020546001600160a01b031690565b60035461006f906001600160a01b031681565b60045461006f906001600160a01b031681565b60025461006f906001600160a01b031681565b6002546000906001600160a01b0316331461010757600080fd5b600254600080546003546040519293879387936001600160a01b039283169390921690610133906101a2565b61014195949392919061031c565b604051809103906000f08015801561015d573d6000803e3d6000fd5b5060008054815260016020526040812080546001600160a01b0319166001600160a01b0384161790558054919250806101958361036c565b9091555090949350505050565b6123f98061039683390190565b634e487b7160e01b600052604160045260246000fd5b600082601f8301126101d657600080fd5b813567ffffffffffffffff808211156101f1576101f16101af565b604051601f8301601f19908116603f01168101908282118183101715610219576102196101af565b8160405283815286602085880101111561023257600080fd5b836020870160208301376000602085830101528094505050505092915050565b6000806040838503121561026557600080fd5b823567ffffffffffffffff8082111561027d57600080fd5b610289868387016101c5565b9350602085013591508082111561029f57600080fd5b506102ac858286016101c5565b9150509250929050565b6000602082840312156102c857600080fd5b5035919050565b6000815180845260005b818110156102f5576020818501810151868301820152016102d9565b81811115610307576000602083870101525b50601f01601f19169290920160200192915050565b60a08152600061032f60a08301886102cf565b828103602084015261034181886102cf565b6001600160a01b03968716604085015260608401959095525050921660809092019190915292915050565b600060001982141561038e57634e487b7160e01b600052601160045260246000fd5b506001019056fe60e06040526001608081815260a082905260c09190915262000026906010906003620000c7565b503480156200003457600080fd5b50604051620023f9380380620023f9833981016040819052620000579162000289565b845185908590620000709060009060208501906200010f565b508051620000869060019060208401906200010f565b5050600160065550600c80546001600160a01b039485166001600160a01b031991821617909155600d80549290941691161790915560135550620003669050565b8260038101928215620000fd579160200282015b82811115620000fd578251829060ff16905591602001919060010190620000db565b506200010b9291506200018c565b5090565b8280546200011d9062000329565b90600052602060002090601f016020900481019282620001415760008555620000fd565b82601f106200015c57805160ff1916838001178555620000fd565b82800160010185558215620000fd579182015b82811115620000fd5782518255916020019190600101906200016f565b5b808211156200010b57600081556001016200018d565b634e487b7160e01b600052604160045260246000fd5b600082601f830112620001cb57600080fd5b81516001600160401b0380821115620001e857620001e8620001a3565b604051601f8301601f19908116603f01168101908282118183101715620002135762000213620001a3565b816040528381526020925086838588010111156200023057600080fd5b600091505b8382101562000254578582018301518183018401529082019062000235565b83821115620002665760008385830101525b9695505050505050565b6001600160a01b03811681146200028657600080fd5b50565b600080600080600060a08688031215620002a257600080fd5b85516001600160401b0380821115620002ba57600080fd5b620002c889838a01620001b9565b96506020880151915080821115620002df57600080fd5b50620002ee88828901620001b9565b9450506040860151620003018162000270565b6060870151608088015191945092506200031b8162000270565b809150509295509295909350565b600181811c908216806200033e57607f821691505b602082108114156200036057634e487b7160e01b600052602260045260246000fd5b50919050565b61208380620003766000396000f3fe608060405234801561001057600080fd5b50600436106101cf5760003560e01c80635d240c5811610104578063a22cb465116100a2578063d2e59bfe11610071578063d2e59bfe146103d9578063d8251a14146103ec578063e985e9c5146103ff578063edf877041461043b57600080fd5b8063a22cb46514610380578063b88d4fde14610393578063ba27f50b146103a6578063c87b56dd146103c657600080fd5b80636c0360eb116100de5780636c0360eb1461034a57806370a08231146103525780639518a3e91461036557806395d89b411461037857600080fd5b80635d240c58146103115780636352211e146103245780636a6278421461033757600080fd5b806318160ddd1161017157806342842e0e1161014b57806342842e0e146102cf57806349015aac146102e257806356100e14146102f55780635be980671461030857600080fd5b806318160ddd146102985780631e8f9ffa146102a957806323b872dd146102bc57600080fd5b8063081812fc116101ad578063081812fc14610232578063095ea7b31461025d578063131e2f181461027257806317ef8ae61461028557600080fd5b806301ffc9a7146101d457806306fdde03146101fc57806307e229ae14610211575b600080fd5b6101e76101e236600461182a565b61044e565b60405190151581526020015b60405180910390f35b6102046104a0565b6040516101f391906118a6565b61022461021f3660046118b9565b610532565b6040519081526020016101f3565b6102456102403660046118b9565b610575565b6040516001600160a01b0390911681526020016101f3565b61027061026b3660046118ee565b61059c565b005b6102246102803660046118b9565b6106b2565b6102246102933660046118b9565b6106c9565b600f546001600160801b0316610224565b600d54610245906001600160a01b031681565b6102706102ca366004611918565b610703565b6102706102dd366004611918565b610734565b6102246102f03660046118b9565b61074f565b610270610303366004611954565b610789565b61022460135481565b61027061031f366004611954565b610838565b6102456103323660046118b9565b6108df565b610224610345366004611976565b61093f565b610204610ab9565b610224610360366004611976565b610b47565b600c54610245906001600160a01b031681565b610204610bcd565b61027061038e366004611991565b610bdc565b6102706103a1366004611a3c565b610beb565b6102246103b4366004611976565b60146020526000908152604090205481565b6102046103d43660046118b9565b610c23565b6102246103e73660046118b9565b610c53565b6102706103fa3660046118b9565b610cec565b6101e761040d366004611ae7565b6001600160a01b03918216600090815260056020908152604080832093909416825291909152205460ff1690565b6102046104493660046118b9565b610d6a565b60006001600160e01b031982166380ac58cd60e01b148061047f57506001600160e01b03198216635b5e139f60e01b145b8061049a57506301ffc9a760e01b6001600160e01b03198316145b92915050565b6060600080546104af90611b1a565b80601f01602080910402602001604051908101604052809291908181526020018280546104db90611b1a565b80156105285780601f106104fd57610100808354040283529160200191610528565b820191906000526020600020905b81548152906001019060200180831161050b57829003601f168201915b5050505050905090565b600061053d82610eb8565b6105625760405162461bcd60e51b815260040161055990611b55565b60405180910390fd5b5060009081526008602052604090205490565b600061058082610ed5565b506000908152600460205260409020546001600160a01b031690565b60006105a7826108df565b9050806001600160a01b0316836001600160a01b031614156106155760405162461bcd60e51b815260206004820152602160248201527f4552433732313a20617070726f76616c20746f2063757272656e74206f776e656044820152603960f91b6064820152608401610559565b336001600160a01b03821614806106315750610631813361040d565b6106a35760405162461bcd60e51b815260206004820152603e60248201527f4552433732313a20617070726f76652063616c6c6572206973206e6f7420746f60448201527f6b656e206f776e6572206e6f7220617070726f76656420666f7220616c6c00006064820152608401610559565b6106ad8383610f28565b505050565b601081600381106106c257600080fd5b0154905081565b60006106d482610eb8565b6106f05760405162461bcd60e51b815260040161055990611b55565b506000908152600a602052604090205490565b61070d3382610f96565b6107295760405162461bcd60e51b815260040161055990611ba4565b6106ad838383611015565b6106ad83838360405180602001604052806000815250610beb565b600061075a82610eb8565b6107765760405162461bcd60e51b815260040161055990611b55565b5060009081526009602052604090205490565b600c546001600160a01b031633146107a057600080fd5b6107a9816108df565b6001600160a01b0316326001600160a01b0316146107d95760405162461bcd60e51b815260040161055990611bf2565b6000818152600a6020526040812080548492906107f7908490611c4d565b9091555050604051828152819032907f42e702cca92cac2a67fd87ece90cd65cdc0bdee9a7ae20dc725b73b263468af5906020015b60405180910390a35050565b600c546001600160a01b0316331461084f57600080fd5b610858816108df565b6001600160a01b0316326001600160a01b0316146108885760405162461bcd60e51b815260040161055990611bf2565b600081815260096020526040812080548492906108a6908490611c4d565b9091555050604051828152819032907f81665166aed8384c9df23393834f1b549569bbb3ca825f52f8390f1bbe1638719060200161082c565b6000818152600260205260408120546001600160a01b03168061049a5760405162461bcd60e51b8152602060048201526018602482015277115490cdcc8c4e881a5b9d985b1a59081d1bdad95b88125160421b6044820152606401610559565b600c546000906001600160a01b0316331461095957600080fd5b600260065414156109ac5760405162461bcd60e51b815260206004820152601f60248201527f5265656e7472616e637947756172643a207265656e7472616e742063616c6c006044820152606401610559565b60026006556109ba32610b47565b15610a195760405162461bcd60e51b815260206004820152602960248201527f43616e6e6f74206d696e74206d6f7265207468616e206f6e6520746f6b656e20604482015268617420612074696d6560b81b6064820152608401610559565b600f54610a309083906001600160801b03166111bc565b600f80546001600160801b039081166000908152600b60209081526040808320429055845432845260149092528220908316905582549091169190610a7483611c65565b82546101009290920a6001600160801b03818102199093169183160217909155600f54610aa5925060019116611c8c565b60016006556001600160801b031692915050565b600e8054610ac690611b1a565b80601f0160208091040260200160405190810160405280929190818152602001828054610af290611b1a565b8015610b3f5780601f10610b1457610100808354040283529160200191610b3f565b820191906000526020600020905b815481529060010190602001808311610b2257829003601f168201915b505050505081565b60006001600160a01b038216610bb15760405162461bcd60e51b815260206004820152602960248201527f4552433732313a2061646472657373207a65726f206973206e6f7420612076616044820152683634b21037bbb732b960b91b6064820152608401610559565b506001600160a01b031660009081526003602052604090205490565b6060600180546104af90611b1a565b610be73383836111d6565b5050565b610bf53383610f96565b610c115760405162461bcd60e51b815260040161055990611ba4565b610c1d848484846112a5565b50505050565b6060610c2e82610eb8565b610c4a5760405162461bcd60e51b815260040161055990611b55565b61049a82610d6a565b6000610c5e82610eb8565b610c6a57506000919050565b6000670de0b6b3a7640000610c7e84610532565b610c889190611cca565b90506000610c958461074f565b90506000610ca2856106c9565b601254909150610cb3908290611cf4565b601154610cc1908490611cf4565b601054610ccf908690611cf4565b610cd99190611c4d565b610ce39190611c4d565b95945050505050565b600c546001600160a01b03163314610d0357600080fd5b3260009081526014602090815260408083205480845260089092528220805491928492610d31908490611c4d565b9091555050604051828152819032907f871d2dd633714517795b5e7c02e648de931e9a9d914f99baf5a96995e096be489060200161082c565b60606000610d7783610c53565b905060008115610d8957506000610da7565b60648210610d9957506001610da7565b620f42408210610da7575060025b600d54601354604051639518c22760e01b81526004810191909152602481018390526060916001600160a01b031690639518c22790604401600060405180830381865afa158015610dfc573d6000803e3d6000fd5b505050506040513d6000823e601f3d908101601f19168201604052610e249190810190611d13565b90506000610e306104a0565b610e386104a0565b83610e42876112d8565b604051602001610e559493929190611d9d565b6040516020818303038152906040529050610e8e81604051602001610e7a9190611eba565b6040516020818303038152906040526113d6565b604051602001610e9e9190611ed6565b604051602081830303815290604052945050505050919050565b6000908152600260205260409020546001600160a01b0316151590565b610ede81610eb8565b610f255760405162461bcd60e51b8152602060048201526018602482015277115490cdcc8c4e881a5b9d985b1a59081d1bdad95b88125160421b6044820152606401610559565b50565b600081815260046020526040902080546001600160a01b0319166001600160a01b0384169081179091558190610f5d826108df565b6001600160a01b03167f8c5be1e5ebec7d5bd14f71427d1e84f3dd0314c0f7b2291e5b200ac8c7c3b92560405160405180910390a45050565b600080610fa2836108df565b9050806001600160a01b0316846001600160a01b03161480610fe957506001600160a01b0380821660009081526005602090815260408083209388168352929052205460ff165b8061100d5750836001600160a01b031661100284610575565b6001600160a01b0316145b949350505050565b826001600160a01b0316611028826108df565b6001600160a01b03161461108c5760405162461bcd60e51b815260206004820152602560248201527f4552433732313a207472616e736665722066726f6d20696e636f72726563742060448201526437bbb732b960d91b6064820152608401610559565b6001600160a01b0382166110ee5760405162461bcd60e51b8152602060048201526024808201527f4552433732313a207472616e7366657220746f20746865207a65726f206164646044820152637265737360e01b6064820152608401610559565b6110f983838361153e565b611104600082610f28565b6001600160a01b038316600090815260036020526040812080546001929061112d908490611f1b565b90915550506001600160a01b038216600090815260036020526040812080546001929061115b908490611c4d565b909155505060008181526002602052604080822080546001600160a01b0319166001600160a01b0386811691821790925591518493918716917fddf252ad1be2c89b69c2b068fc378daa952ba7f163c4a11628f55a4df523b3ef91a4505050565b610be78282604051806020016040528060008152506115a4565b816001600160a01b0316836001600160a01b031614156112385760405162461bcd60e51b815260206004820152601960248201527f4552433732313a20617070726f766520746f2063616c6c6572000000000000006044820152606401610559565b6001600160a01b03838116600081815260056020908152604080832094871680845294825291829020805460ff191686151590811790915591519182527f17307eab39ab6107e8899845ad3d59bd9653f200f220920489ca2b5937696c31910160405180910390a3505050565b6112b0848484611015565b6112bc848484846115d7565b610c1d5760405162461bcd60e51b815260040161055990611f32565b6060816112fc5750506040805180820190915260018152600360fc1b602082015290565b8160005b8115611326578061131081611f84565b915061131f9050600a83611cca565b9150611300565b60008167ffffffffffffffff811115611341576113416119cd565b6040519080825280601f01601f19166020018201604052801561136b576020820181803683370190505b5090505b841561100d57611380600183611f1b565b915061138d600a86611f9f565b611398906030611c4d565b60f81b8183815181106113ad576113ad611cde565b60200101906001600160f81b031916908160001a9053506113cf600a86611cca565b945061136f565b60608151600014156113f657505060408051602081019091526000815290565b600060405180606001604052806040815260200161200e60409139905060006003845160026114259190611c4d565b61142f9190611cca565b61143a906004611cf4565b90506000611449826020611c4d565b67ffffffffffffffff811115611461576114616119cd565b6040519080825280601f01601f19166020018201604052801561148b576020820181803683370190505b509050818152600183018586518101602084015b818310156114f95760039283018051603f601282901c811687015160f890811b8552600c83901c8216880151811b6001860152600683901c8216880151811b60028601529116860151901b9382019390935260040161149f565b600389510660018114611513576002811461152457611530565b613d3d60f01b600119830152611530565b603d60f81b6000198301525b509398975050505050505050565b6001600160a01b038316156106ad5760405162461bcd60e51b815260206004820152602660248201527f4552433732313a207472616e736665722066726f6d206e6f6e2d7a65726f206160448201526564647265737360d01b6064820152608401610559565b6115ae83836116d5565b6115bb60008484846115d7565b6106ad5760405162461bcd60e51b815260040161055990611f32565b60006001600160a01b0384163b156116ca57604051630a85bd0160e11b81526001600160a01b0385169063150b7a029061161b903390899088908890600401611fb3565b6020604051808303816000875af1925050508015611656575060408051601f3d908101601f1916820190925261165391810190611ff0565b60015b6116b0573d808015611684576040519150601f19603f3d011682016040523d82523d6000602084013e611689565b606091505b5080516116a85760405162461bcd60e51b815260040161055990611f32565b805181602001fd5b6001600160e01b031916630a85bd0160e11b14905061100d565b506001949350505050565b6001600160a01b03821661172b5760405162461bcd60e51b815260206004820181905260248201527f4552433732313a206d696e7420746f20746865207a65726f20616464726573736044820152606401610559565b61173481610eb8565b156117815760405162461bcd60e51b815260206004820152601c60248201527f4552433732313a20746f6b656e20616c7265616479206d696e746564000000006044820152606401610559565b61178d6000838361153e565b6001600160a01b03821660009081526003602052604081208054600192906117b6908490611c4d565b909155505060008181526002602052604080822080546001600160a01b0319166001600160a01b03861690811790915590518392907fddf252ad1be2c89b69c2b068fc378daa952ba7f163c4a11628f55a4df523b3ef908290a45050565b6001600160e01b031981168114610f2557600080fd5b60006020828403121561183c57600080fd5b813561184781611814565b9392505050565b60005b83811015611869578181015183820152602001611851565b83811115610c1d5750506000910152565b6000815180845261189281602086016020860161184e565b601f01601f19169290920160200192915050565b602081526000611847602083018461187a565b6000602082840312156118cb57600080fd5b5035919050565b80356001600160a01b03811681146118e957600080fd5b919050565b6000806040838503121561190157600080fd5b61190a836118d2565b946020939093013593505050565b60008060006060848603121561192d57600080fd5b611936846118d2565b9250611944602085016118d2565b9150604084013590509250925092565b6000806040838503121561196757600080fd5b50508035926020909101359150565b60006020828403121561198857600080fd5b611847826118d2565b600080604083850312156119a457600080fd5b6119ad836118d2565b9150602083013580151581146119c257600080fd5b809150509250929050565b634e487b7160e01b600052604160045260246000fd5b604051601f8201601f1916810167ffffffffffffffff81118282101715611a0c57611a0c6119cd565b604052919050565b600067ffffffffffffffff821115611a2e57611a2e6119cd565b50601f01601f191660200190565b60008060008060808587031215611a5257600080fd5b611a5b856118d2565b9350611a69602086016118d2565b925060408501359150606085013567ffffffffffffffff811115611a8c57600080fd5b8501601f81018713611a9d57600080fd5b8035611ab0611aab82611a14565b6119e3565b818152886020838501011115611ac557600080fd5b8160208401602083013760006020838301015280935050505092959194509250565b60008060408385031215611afa57600080fd5b611b03836118d2565b9150611b11602084016118d2565b90509250929050565b600181811c90821680611b2e57607f821691505b60208210811415611b4f57634e487b7160e01b600052602260045260246000fd5b50919050565b6020808252602f908201527f4552433732314d657461646174613a2055524920717565727920666f72206e6f60408201526e3732bc34b9ba32b73a103a37b5b2b760891b606082015260800190565b6020808252602e908201527f4552433732313a2063616c6c6572206973206e6f7420746f6b656e206f776e6560408201526d1c881b9bdc88185c1c1c9bdd995960921b606082015260800190565b60208082526025908201527f4f6e6c7920746865206f776e65722063616e20616464206120636f6e747269626040820152643aba34b7b760d91b606082015260800190565b634e487b7160e01b600052601160045260246000fd5b60008219821115611c6057611c60611c37565b500190565b60006001600160801b0380831681811415611c8257611c82611c37565b6001019392505050565b60006001600160801b0383811690831681811015611cac57611cac611c37565b039392505050565b634e487b7160e01b600052601260045260246000fd5b600082611cd957611cd9611cb4565b500490565b634e487b7160e01b600052603260045260246000fd5b6000816000190483118215151615611d0e57611d0e611c37565b500290565b600060208284031215611d2557600080fd5b815167ffffffffffffffff811115611d3c57600080fd5b8201601f81018413611d4d57600080fd5b8051611d5b611aab82611a14565b818152856020838501011115611d7057600080fd5b610ce382602083016020860161184e565b60008151611d9381856020860161184e565b9290920192915050565b683d913730b6b2911d1160b91b81528451600090611dc2816009850160208a0161184e565b6a0204d656d626572736869760ac1b600991840191820181905271111610113232b9b1b934b83a34b7b7111d1160711b60148301528651611e0a816026850160208b0161184e565b60269201918201526c1116101134b6b0b3b2911d101160991b60318201528451611e3b81603e84016020890161184e565b7f222c202261747472696275746573223a205b7b2274726169745f74797065223a9101603e8101919091526d08941bddd95c8813195d995b088b60921b605e82015268113b30b63ab2911d1160b91b606c820152611eaf611e9f6075830186611d81565b63227d5d7d60e01b815260040190565b979650505050505050565b60008251611ecc81846020870161184e565b9190910192915050565b7f646174613a6170706c69636174696f6e2f6a736f6e3b6261736536342c000000815260008251611f0e81601d85016020870161184e565b91909101601d0192915050565b600082821015611f2d57611f2d611c37565b500390565b60208082526032908201527f4552433732313a207472616e7366657220746f206e6f6e20455243373231526560408201527131b2b4bb32b91034b6b83632b6b2b73a32b960711b606082015260800190565b6000600019821415611f9857611f98611c37565b5060010190565b600082611fae57611fae611cb4565b500690565b6001600160a01b0385811682528416602082015260408101839052608060608201819052600090611fe69083018461187a565b9695505050505050565b60006020828403121561200257600080fd5b81516118478161181456fe4142434445464748494a4b4c4d4e4f505152535455565758595a6162636465666768696a6b6c6d6e6f707172737475767778797a303132333435363738392b2fa2646970667358221220ced7474ea0c8f8e517a0072e215b1a355dcaac70ae18d21d9c8fbc099e5bd55664736f6c634300080a0033a26469706673582212207900ad02e61c7b3e44f86e3d6650a8cef00a8372d98e9d420881919641c1ce0664736f6c634300080a0033",
  "devdoc": {
    "kind": "dev",
    "methods": {},
    "version": 1
  },
  "userdoc": {
    "kind": "user",
    "methods": {},
    "version": 1
  },
  "storageLayout": {
    "storage": [
      {
        "astId": 3790,
        "contract": "contracts/Giv3NFTFactory.sol:Giv3NFTFactory",
        "label": "collectionsCounter",
        "offset": 0,
        "slot": "0",
        "type": "t_uint256"
      },
      {
        "astId": 3795,
        "contract": "contracts/Giv3NFTFactory.sol:Giv3NFTFactory",
        "label": "collections",
        "offset": 0,
        "slot": "1",
        "type": "t_mapping(t_uint256,t_contract(Giv3NFT)3784)"
      },
      {
        "astId": 3798,
        "contract": "contracts/Giv3NFTFactory.sol:Giv3NFTFactory",
        "label": "GIV3_CORE",
        "offset": 0,
        "slot": "2",
        "type": "t_contract(IGiv3Core)4736"
      },
      {
        "astId": 3801,
        "contract": "contracts/Giv3NFTFactory.sol:Giv3NFTFactory",
        "label": "STATIC_IMAGE_STORAGE",
        "offset": 0,
        "slot": "3",
        "type": "t_contract(IImageStorage)4838"
      },
      {
        "astId": 3804,
        "contract": "contracts/Giv3NFTFactory.sol:Giv3NFTFactory",
        "label": "DYNAMIC_IMAGE_STORAGE",
        "offset": 0,
        "slot": "4",
        "type": "t_contract(IImageStorage)4838"
      }
    ],
    "types": {
      "t_contract(Giv3NFT)3784": {
        "encoding": "inplace",
        "label": "contract Giv3NFT",
        "numberOfBytes": "20"
      },
      "t_contract(IGiv3Core)4736": {
        "encoding": "inplace",
        "label": "contract IGiv3Core",
        "numberOfBytes": "20"
      },
      "t_contract(IImageStorage)4838": {
        "encoding": "inplace",
        "label": "contract IImageStorage",
        "numberOfBytes": "20"
      },
      "t_mapping(t_uint256,t_contract(Giv3NFT)3784)": {
        "encoding": "mapping",
        "key": "t_uint256",
        "label": "mapping(uint256 => contract Giv3NFT)",
        "numberOfBytes": "32",
        "value": "t_contract(Giv3NFT)3784"
      },
      "t_uint256": {
        "encoding": "inplace",
        "label": "uint256",
        "numberOfBytes": "32"
      }
    }
  }
}