{
  "address": "0x9fE46736679d2D9a65F0992F2272dE9f3c7fa6e0",
  "abi": [
    {
      "inputs": [],
      "stateMutability": "nonpayable",
      "type": "constructor"
    },
    {
      "inputs": [],
      "name": "body",
      "outputs": [
        {
          "internalType": "string",
          "name": "",
          "type": "string"
        }
      ],
      "stateMutability": "view",
      "type": "function"
    },
    {
      "inputs": [
        {
          "internalType": "uint256",
          "name": "",
          "type": "uint256"
        }
      ],
      "name": "clothes",
      "outputs": [
        {
          "internalType": "string",
          "name": "",
          "type": "string"
        }
      ],
      "stateMutability": "view",
      "type": "function"
    },
    {
      "inputs": [],
      "name": "getBody",
      "outputs": [
        {
          "internalType": "string",
          "name": "",
          "type": "string"
        }
      ],
      "stateMutability": "view",
      "type": "function"
    },
    {
      "inputs": [
        {
          "internalType": "uint256",
          "name": "collectionIndex",
          "type": "uint256"
        },
        {
          "internalType": "uint256",
          "name": "imageIndex",
          "type": "uint256"
        }
      ],
      "name": "getImageForCollection",
      "outputs": [
        {
          "internalType": "string",
          "name": "",
          "type": "string"
        }
      ],
      "stateMutability": "view",
      "type": "function"
    },
    {
      "inputs": [
        {
          "internalType": "uint256",
          "name": "_index",
          "type": "uint256"
        }
      ],
      "name": "getLayer1",
      "outputs": [
        {
          "internalType": "string",
          "name": "",
          "type": "string"
        }
      ],
      "stateMutability": "view",
      "type": "function"
    },
    {
      "inputs": [
        {
          "internalType": "uint256",
          "name": "_index",
          "type": "uint256"
        }
      ],
      "name": "getLayer2",
      "outputs": [
        {
          "internalType": "string",
          "name": "",
          "type": "string"
        }
      ],
      "stateMutability": "view",
      "type": "function"
    },
    {
      "inputs": [
        {
          "internalType": "uint256",
          "name": "_index",
          "type": "uint256"
        }
      ],
      "name": "getLayer3",
      "outputs": [
        {
          "internalType": "string",
          "name": "",
          "type": "string"
        }
      ],
      "stateMutability": "view",
      "type": "function"
    },
    {
      "inputs": [
        {
          "internalType": "uint256",
          "name": "_index",
          "type": "uint256"
        }
      ],
      "name": "getLayer4",
      "outputs": [
        {
          "internalType": "string",
          "name": "",
          "type": "string"
        }
      ],
      "stateMutability": "view",
      "type": "function"
    },
    {
      "inputs": [
        {
          "internalType": "uint256",
          "name": "_index",
          "type": "uint256"
        }
      ],
      "name": "getLayer5",
      "outputs": [
        {
          "internalType": "string",
          "name": "",
          "type": "string"
        }
      ],
      "stateMutability": "view",
      "type": "function"
    },
    {
      "inputs": [
        {
          "internalType": "uint256",
          "name": "",
          "type": "uint256"
        }
      ],
      "name": "glasses",
      "outputs": [
        {
          "internalType": "string",
          "name": "",
          "type": "string"
        }
      ],
      "stateMutability": "view",
      "type": "function"
    },
    {
      "inputs": [
        {
          "internalType": "uint256",
          "name": "",
          "type": "uint256"
        }
      ],
      "name": "hat",
      "outputs": [
        {
          "internalType": "string",
          "name": "",
          "type": "string"
        }
      ],
      "stateMutability": "view",
      "type": "function"
    },
    {
      "inputs": [
        {
          "internalType": "uint256",
          "name": "",
          "type": "uint256"
        }
      ],
      "name": "necklace",
      "outputs": [
        {
          "internalType": "string",
          "name": "",
          "type": "string"
        }
      ],
      "stateMutability": "view",
      "type": "function"
    },
    {
      "inputs": [
        {
          "internalType": "uint256",
          "name": "",
          "type": "uint256"
        }
      ],
      "name": "shoes",
      "outputs": [
        {
          "internalType": "string",
          "name": "",
          "type": "string"
        }
      ],
      "stateMutability": "view",
      "type": "function"
    }
  ],
  "transactionHash": "0xff4edc4afeea4c067da42f2ef2cd0e23091a904102d6fc50060e7131bffac4ec",
  "args": [],
  "numDeployments": 1,
  "solcInputHash": "40a8194097e86e97670a4fd9003e02c2",
  "bytecode": "0x6107006040526106566080818152906200380460a03980516200002b9160009160209091019062000480565b503480156200003957600080fd5b50604051806104e001604052806104ae815260200162000b386104ae91396000805260046020908152815162000093927f17ef568e3e12ab5b9c7254a8d58478811de00f9e6eb34345acd53bf8fd09d3ec92019062000480565b50604051806104e001604052806104ae815260200162003e5a6104ae91396001600052600460209081528151620000ee927fabd6e7cb50984ff9c2f3e18a2660c3353dadf4e3291deeb275dae2cd1e44fe0592019062000480565b50604051806104e001604052806104ae8152602001620043086104ae9139600260005260046020908152815162000149927f91da3fd0782e51c6b3986e9e672fd566868e71f3dbc2d6c2cd6fbb3e361af2a792019062000480565b5060405180610c400160405280610c0a81526020016200281c610c0a913960008052600560209081528151620001a3927f05b8ccbb9d4d8fb16ea74ce3c29a41f1b461fbdaff4714a0d9a8eb05499746bc92019062000480565b5060405180610c400160405280610c0a8152602001620047b6610c0a91396001600052600560209081528151620001fe927f1471eb6eb2c5e789fc3de43f8ce62938c7d1836ec861730447e2ada8fd81017b92019062000480565b5060405180610c400160405280610c0a815260200162001834610c0a9139600260005260056020908152815162000259927f89832631fb3c3307a103ba2c84ab569c64d6182a18893dcd163f0f1c2090733a92019062000480565b5060405180610880016040528061084e815260200162005fec61084e913960008052600360209081528151620002b3927f3617319a054d772f909f7c479a2cebe5066e836a939412e32403c99029b92eff92019062000480565b5060405180610880016040528061084e815260200162000fe661084e913960016000526003602090815281516200030e927fa15bc60c955c405d20d9149c709e2460f1c2d9a497496a7f46004d1772c3054c92019062000480565b5060405180610880016040528061084e8152602001620053c061084e9139600260005260036020908152815162000369927fc3a24b0501bd2c13a7e57f2db4369ec4c223447539fc0724a9d55ac4a06ebd4d92019062000480565b506040518061040001604052806103de8152602001620034266103de913960008052600160209081528151620003c3927fa6eef7e35abe7026729641147f7915573c7e97b47efa546f5f6e3230263bcb4992019062000480565b506040518061040001604052806103de81526020016200243e6103de913960016000819052602090815281516200041e927fcc69885fda6bcc1a4ace058b4a62bf5e179ea78fd58a1ccd71c22cc9b688792f92019062000480565b506040518061040001604052806103de815260200162005c0e6103de9139600260005260016020908152815162000479927fd9d16d34ffb15ba3a3d852f0d403e2ce1d691fb54de27ac87cd2f993f3ec330f92019062000480565b5062000563565b8280546200048e9062000526565b90600052602060002090601f016020900481019282620004b25760008555620004fd565b82601f10620004cd57805160ff1916838001178555620004fd565b82800160010185558215620004fd579182015b82811115620004fd578251825591602001919060010190620004e0565b506200050b9291506200050f565b5090565b5b808211156200050b576000815560010162000510565b600181811c908216806200053b57607f821691505b602082108114156200055d57634e487b7160e01b600052602260045260246000fd5b50919050565b6105c580620005736000396000f3fe608060405234801561001057600080fd5b50600436106100cf5760003560e01c80637e5564711161008c578063b982d1b911610066578063b982d1b91461017f578063ccf11cbe14610192578063e1bf8c51146101a5578063f3190281146100d457600080fd5b80637e556471146101515780639518c22714610164578063b14be81c1461017757600080fd5b80632772b776146100d45780632d6b4168146100fd578063364497e4146101105780635ca6bec514610118578063607473cf1461012b578063640ae2ed1461013e575b600080fd5b6100e76100e23660046104c4565b6101b8565b6040516100f491906104dd565b60405180910390f35b6100e761010b3660046104c4565b61025a565b6100e7610277565b6100e76101263660046104c4565b610305565b6100e76101393660046104c4565b61031e565b6100e761014c3660046104c4565b610337565b6100e761015f3660046104c4565b610354565b6100e7610172366004610532565b610371565b6100e76103e7565b6100e761018d3660046104c4565b610479565b6100e76101a03660046104c4565b610492565b6100e76101b33660046104c4565b6104ab565b60008181526001602052604090208054606091906101d590610554565b80601f016020809104026020016040519081016040528092919081815260200182805461020190610554565b801561024e5780601f106102235761010080835404028352916020019161024e565b820191906000526020600020905b81548152906001019060200180831161023157829003601f168201915b50505050509050919050565b60008181526005602052604090208054606091906101d590610554565b6000805461028490610554565b80601f01602080910402602001604051908101604052809291908181526020018280546102b090610554565b80156102fd5780601f106102d2576101008083540402835291602001916102fd565b820191906000526020600020905b8154815290600101906020018083116102e057829003601f168201915b505050505081565b6005602052600090815260409020805461028490610554565b6001602052600090815260409020805461028490610554565b60008181526004602052604090208054606091906101d590610554565b60008181526003602052604090208054606091906101d590610554565b60608261038857610381826101b8565b90506103e1565b826001141561039a57610381826101b8565b82600214156103ac5761038182610354565b82600314156103be5761038182610337565b82600414156103d0576103818261025a565b506040805160208101909152600081525b92915050565b6060600080546103f690610554565b80601f016020809104026020016040519081016040528092919081815260200182805461042290610554565b801561046f5780601f106104445761010080835404028352916020019161046f565b820191906000526020600020905b81548152906001019060200180831161045257829003601f168201915b5050505050905090565b6004602052600090815260409020805461028490610554565b6003602052600090815260409020805461028490610554565b6002602052600090815260409020805461028490610554565b6000602082840312156104d657600080fd5b5035919050565b600060208083528351808285015260005b8181101561050a578581018301518582016040015282016104ee565b8181111561051c576000604083870101525b50601f01601f1916929092016040019392505050565b6000806040838503121561054557600080fd5b50508035926020909101359150565b600181811c9082168061056857607f821691505b6020821081141561058957634e487b7160e01b600052602260045260246000fd5b5091905056fea264697066735822122097027b191ac0638a4dc9d463e15bc953a52ec00555086600456cc53f833ab2a764736f6c634300080a0033646174613a696d6167652f7376672b786d6c3b6261736536342c50484e325a79423361575230614430694e5459774969426f5a576c6e61485139496a55324d4349675a6d6c7362443069626d39755a53496765473173626e4d39496d6830644841364c79393364336375647a4d7562334a6e4c7a49774d44417663335a6e496a3438634746306143426d615778734c584a3162475539496d56325a5735765a47516949474e7361584174636e56735a5430695a585a6c626d396b5a4349675a4430695454497a4e5334314d7a51674d6a5179597a49774c6a45334f43417749444d324c6a557a4e5330784e69347a4e4449674d7a59754e544d314c544d324c6a55674d4330784c6a55794d7930754d446b7a4c544d754d4449304c5334794e7a55744e4334304f5468734c6a55784e5330754d6a4a684d6a41754d6a5579494449774c6a49314d694177494441674d5341784e6934794e7a51754d545132624334314f546b754d6a593559544d324c6a67784f53417a4e6934344d546b674d434177494441744c6a49314d5341304c6a4d774d324d77494449774c6a45314f4341784e69347a4e5463674d7a59754e53417a4e6934314d7a55674d7a59754e554d7a4e4455754e6a517a494449304d69417a4e6a49674d6a49314c6a59314f43417a4e6a49674d6a41314c6a56544d7a51314c6a59304d7941784e6a6b674d7a49314c6a51324e6941784e6a6c6a4c5445334c6a45794d7941774c544d784c6a51354e4341784d5334334e6a63744d7a55754e44557a494449334c6a59304f5745794e4334334e5449674d6a51754e7a5579494441674d4341774c5445354c6a41324f4330754d545933517a49324e6934354d6a63674d5467774c6a59344e5341794e5449754e546b33494445324f5341794d7a55754e544d30494445324f5341794d5455754d7a5533494445324f5341784f546b674d5467314c6a4d304d6941784f546b674d6a41314c6a567a4d5459754d7a553349444d324c6a55674d7a59754e544d3049444d324c6a5636625441744e5334324d54566a4d5463754d446330494441674d7a41754f5445304c54457a4c6a67794f43417a4d4334354d5451744d7a41754f446731494441744d5463754d4455334c54457a4c6a67304c544d774c6a67344e53307a4d4334354d5451744d7a41754f4467314c5445334c6a41334d7941774c544d774c6a6b784d7941784d7934344d6a67744d7a41754f54457a49444d774c6a67344e534177494445334c6a41314e7941784d7934344e43417a4d4334344f4455674d7a41754f54457a49444d774c6a67344e5870744f446b754f544d794944426a4d5463754d44637a494441674d7a41754f54457a4c54457a4c6a67794f43417a4d4334354d544d744d7a41754f446731494441744d5463754d4455334c54457a4c6a67304c544d774c6a67344e53307a4d4334354d544d744d7a41754f4467314c5445334c6a41334e4341774c544d774c6a6b784e4341784d7934344d6a67744d7a41754f54453049444d774c6a67344e534177494445334c6a41314e7941784d7934344e43417a4d4334344f4455674d7a41754f54453049444d774c6a67344e586f6949475a706247773949694e47525456474e5455694c7a34384c334e325a7a343d646174613a696d6167652f7376672b786d6c3b6261736536342c50484e325a79423361575230614430694e5459774969426f5a576c6e61485139496a55324d4349675a6d6c7362443069626d39755a53496765473173626e4d39496d6830644841364c79393364336375647a4d7562334a6e4c7a49774d44417663335a6e496a3438634746306143426b50534a4e4d7a6730494449314f574530494451674d434177494445744e43347a4e546b674d7934354f44526a4c5467754e545931494451754d7a45784c5449774c6a59344d7941354c6a6b344e79307a4d7934354d546b674d5455754e446731595451754d44417a494451754d44417a494441674d4341784c5455754d7a5135494449754d546732494451304f4334794d7a4d674e4451344c6a497a4d794177494441674d5330354c6a457a4d53417a4c6a55314f574d744f5334794d4455674d7934304e7a45744d5467754e6a4135494459754e6a51354c5449334c6a517a4f4341354c6a41794e6d45304c6a41774d6941304c6a41774d694177494441674d5330324c6a55334f4341784c6a59304d6d4d744e6934774d6a63674d53347a4e7a63744d5445754e6a5930494449754d6a67314c5445324c6a597a4d7941794c6a55304d3245754f5467314c6a6b344e534177494441674d5341754d7a55344c6a55774d6d77794c6a51784e7941334c6a517a4f474578494445674d434177494441674c6a6b314d5334324f54466f4e7934344d6d4d754f545935494441674d53347a4e7a49674d5334794d7a6b754e546734494445754f444135624330324c6a4d794e7941304c6a55354e6d4d744c6a4d314c6a49314e5330754e446b334c6a63774e7930754d7a597a494445754d544535624449754e444533494463754e444d33597934794f546b754f5449794c5334334e5459674d5334324f4467744d5334314d7a6b674d5334784d5468734c5459754d7a49334c5451754e546b32595445674d534177494441674d4330784c6a45334e694177624330324c6a4d794e7941304c6a55354e6d4d744c6a63344d7934314e7930784c6a677a4f4330754d546b324c5445754e544d354c5445754d544534624449754e4445334c5463754e444d33595445754d444179494445754d444179494441674d4341774c53347a4e6a4d744d5334784d546c734c5459754d7a49334c5451754e546b32597930754e7a67304c5334314e7930754d7a67784c5445754f4441354c6a55344f4330784c6a67774f5767334c6a6779595445674d534177494441674d4341754f5455784c5334324f5446734d6934304d5463744e7934304d7a68684c6a6b354d7934354f544d674d434177494445674c6a49354e4330754e445578597930754e5449304c6a41784e6930784c6a417a4f5334774d6a51744d5334314e4459754d4449304c5459754e6a4d78494441744d5451754e5459794c5445754d7a597a4c54497a4c6a41324e53307a4c6a55334f5745304c6a41774d6941304c6a41774d694177494441674d5330324c6a55344e6930784c6a67304e324d744e79347a4f4463744d6934794d5330784e5334774e5330304c6a6b7a4e6930794d6934314e4463744e7934344e7a46684e44457a4c6a677a494451784d7934344d794177494441674d5330304c6a55774e4330784c6a63354e534130494451674d434177494445744e5334354f4463744d6934304f4449674e446b794c6a6332494451354d6934334e694177494441674d5330794d7934774e6a51744d5441754e446733494451754d444178494451754d444178494441674d4341784c5459754d4445344c5449754f54633349444d324f4334354d446b674d7a59344c6a6b774f534177494441674d5330344c6a49774e7930304c6a49314f5341794c6a51354f5341794c6a51354f534177494441674d5330784c6a41794d69307a4c6a4d344e4341794c6a51354f5341794c6a51354f534177494441674d53417a4c6a4d344e4330784c6a41794d69417a4e7a51754d7a593049444d334e43347a4e6a51674d434177494441674f4334314d6a59674e4334304d5463674e4334774d4449674e4334774d4449674d434177494445674e5334774f4463674d6934314d5459674e4467354c6a45314d5341304f446b754d545578494441674d4341774944497a4c6a51314e5341784d4334324e7a4d674e4334774d4445674e4334774d4445674d434177494445674e5334314d7a51674d6934794f54526a4d5334314d7a6b754e6a493149444d754d446733494445754d6a517a494451754e6a4d35494445754f4455674e7934324f43417a4c6a41774e6941784e5334304d4449674e5334334d7a59674d6a49754e7a4934494463754f54413259544d754f546b3449444d754f546b34494441674d434178494455754d6a6332494445754e446778597a67754d7a6b33494449754d6a4979494445324c6a41354e43417a4c6a55324e6941794d69347a4e7a45674d7934314e6a59674e53347a4d5445674d4341784d5334334d7a49744c6a6b324d6941784f4334344c5449754e6a417a59544d754f546b3449444d754f546b34494441674d434178494455754e4445334c5445754d7a5530597a67754e6a63784c5449754d7a4579494445344c6a41334f5330314c6a51324f4341794e7934304e6a51744f5334774d4464684e4455784c6a63794f5341304e5445754e7a4935494441674d434177494467754e6a41314c544d754d7a5135494451674e434177494441674d5341324c6a45304d7930794c6a55784d574d784d6934794e4467744e5334784944497a4c6a55774e6930784d43347a4e4449674d7a45754e7a67744d5451754e44597a515451674e434177494445674d53417a4f4451674d6a5535656949675a6d6c7362443069497a68425130524651534976506a777663335a6e50673d3d646174613a696d6167652f7376672b786d6c3b6261736536342c50484e325a79423361575230614430694e5459774969426f5a576c6e61485139496a55324d4349675a6d6c7362443069626d39755a53496765473173626e4d39496d6830644841364c79393364336375647a4d7562334a6e4c7a49774d44417663335a6e496a3438634746306143426d615778734c584a3162475539496d56325a5735765a47516949474e7361584174636e56735a5430695a585a6c626d396b5a4349675a4430695454497a4f5334784e4467674d7a41754d444d7a597934774d6a6b744e4334354e7930794c6a51774f5330354c6a41784e5330314c6a51304e7930354c6a417a4d79307a4c6a417a4e7930754d4445344c5455754e54493049444d754f546b334c5455754e54557a494467754f5459334c5334774d4455754f4449314c6a41314f4341784c6a59794e4334784f4341794c6a4d344e4745354c6a453549446b754d546b674d434177494441744c6a45784d7930754d5445795979307a4c6a55324e53307a4c6a51324e4330344c6a45334d5330304c6a55774e6930784d4334794f4467744d69347a4d6a63744d6934784d5463674d6934784e7a67744c6a6b304d7941324c6a63314d6941794c6a59794d6941784d4334794d545a684d5451754e445531494445304c6a51314e534177494441674d4341784c6a67774e6941784c6a51354e574d744c6a6b344d6934784f4459744d5334354f5467754e446b324c544d754d4441354c6a6b7a4e6930304c6a55314e7941784c6a6b344d7930334c6a49324f5341314c6a67314c5459754d445533494467754e6a4d31494445754d6a4579494449754e7a6731494455754f446b674d7934304d7a55674d5441754e445133494445754e445578595445304c6a45794e5341784e4334784d6a55674d434177494441674d6934344e5467744d5334324e5455674d5451754d6a6b34494445304c6a49354f434177494441674d4330784c6a49314e7941794c6a5978597930784c6a63774d6941304c6a59334c5334334e6a67674f5334794f5467674d6934774f4459674d5441754d7a4d34494449754f445530494445754d4451674e6934314e4463744d5334354d4449674f4334794e446b744e6934314e7a49754d54637a4c5334304e7a59754d7a45354c5334354e5445754e444d344c5445754e4449794c6a45334d7934324e43347a4f5463674d5334794f4467754e6a6330494445754f544d30494445754f545532494451754e5463674e5334344d4459674e79347a4d4455674f4334314f5467674e6934784d5341794c6a4d354e7930784c6a41794e79417a4c6a497a4e6930304c6a59784e4341794c6a45344f5330344c6a51354f5341304c6a63324f5341784c6a59774e5341784d4334774f5455674e4334314e4459674d5451754e6a453249446b754d7a5131494459754f4341334c6a49784f4341784d6934784d6a55674d546b754d444132494445774c6a55794f43417a4e7934344d6a68684e434130494441674d534177494463754f5463784c6a59334e6d4d784c6a63324d7930794d4334334e7a49744e4334784d5449744d7a51754f5330784d6934324e7a63744e444d754f546c684e444d754e6a59344944517a4c6a59324f434177494441674d4330784d7934794e7a6b744f5334314f544a6a4d6934774e5445744d5334774d4467674d79347a4e6a51744d6934314e5455674d79347a4e6a51744e4334794f446b674d43307a4c6a417a4e7930304c6a41794f5330314c6a55744f5330314c6a55744c6a63774d7941774c5445754d7a67334c6a41314c5449754d44517a4c6a45304d3245784e4334334d7941784e4334334d794177494441674d4341784c6a457a4e4330754f54597a597a4d754e6a497a4c544d754e44417a494451754f4463314c5463754f545532494449754e7a6b314c5445774c6a45334c5449754d4463354c5449754d6a45314c5459754e7a41794c5445754d6a55784c5445774c6a4d794e5341794c6a45314d5745784e4334794f5341784e4334794f534177494441674d4330784c6a6b774e4341794c6a45344d324d754d6a55744d5334774d5455754d7a6b744d6934784d69347a4f5463744d7934794e7a6836625330794c6a457a4e4341334c6a41314d5330754d444d754d545178595449754f546732494449754f546732494441674d4341774c5334774e6a67744c6a41784f4777754d446b344c5334784d6a4e364969426d615778735053496a4e6a46464e7a67324969382b50484268644767675a6d6c73624331796457786c50534a6c646d56756232526b4969426a62476c774c584a3162475539496d56325a5735765a47516949475139496b30794f5467754e6a6779494451314c6a5132597934774d6a45744d7934314e5451744d5334334d6a4d744e6934304e4463744d7934344f5455744e6934304e6930794c6a45334d7930754d44457a4c544d754f545578494449754f4455354c544d754f54637a494459754e4445304c5334774d444d754e546b754d445179494445754d5459784c6a457a494445754e7a4131624330754d4467794c5334774f474d744d6934314e5330794c6a51334f4330314c6a67304e43307a4c6a49794d7930334c6a4d314f4330784c6a59324e5330784c6a55784e4341784c6a55314f4330754e6a6330494451754f444d674d5334344e7a55674e79347a4d4463754e4445314c6a51774d7934344e446b754e7a59674d5334794f5449674d5334774e3245784d4334784e6941784d4334784e694177494441674d4330794c6a45314d6934324e6a6c6a4c544d754d6a5535494445754e4445354c5455754d546b35494451754d5467304c5451754d7a4d79494459754d5463324c6a67304f4341784c6a6b31494451754d446379494449754e444d32494463754d6a5931494445754d5449314c5451754d544d3149444d754e7a41314c5463754e44497a494467754e7a6b744f5334324f546b674d5451754e5455784c544d754d6a5532494467754d6a4d344c5451754e545979494445344c6a45794f43307a4c6a49304e7941794f4334784d546c734e5334354e4467744c6a63344d6d4d744d5334784f4455744f5334774d5334774d446b744d5463754f4463674d6934344e7a6b744d6a55754d544d78494445754e5441354c544d754f44453549444d754e4451354c5463754d54497a494455754e6a6b794c546b754e7a63304c6a4d7a4d5334304e7a45754e7a55344c6a6779494445754d6a6378494445754d444134494449754d4451784c6a63304d7941304c6a59344d7930784c6a4d324d5341314c6a6b744e4334334d4449754d5449304c53347a4e4334794d6a67744c6a59344c6a4d784e4330784c6a41784e7934784d6a4d754e4455344c6a49344d7934354d6a49754e446778494445754d7a6730494445754e43417a4c6a49324f4341304c6a45314d7941314c6a49794e4341324c6a4531494451754d7a63674d5334354f5467744c6a67314e6941794c6a51344d6930304c6a45354f4341784c6a41344d7930334c6a51324e3245784d4341784d434177494441674d4330784c6a4d304d5330794c6a493349446b754f44633549446b754f446335494441674d434177494449754f54457a4c6a51794e474d7a4c6a55314e534177494459754e444d334c5445754e7a5978494459754e444d334c544d754f544d30637930794c6a67344d69307a4c6a6b7a4e4330324c6a517a4e79307a4c6a6b7a4e474d744c6a55774d7941774c5334354f5449754d444d314c5445754e4459784c6a45774d6934794e7a59744c6a49784d5334314e4463744c6a51304c6a67784d5330754e6a6735494449754e546b784c5449754e444d7a49444d754e4467334c5455754e6a6b674d5334354f546b744e7934794e7a51744d5334304f4463744d5334314f4451744e4334334f5451744c6a67354e5330334c6a4d344e5341784c6a55304c5334314d6a59754e446b7a4c5334354f4445674d5334774d6930784c6a4d324d6941784c6a5532595445774c6a4134494445774c6a4134494441674d434177494334794f4451744d69347a4e445236625330784c6a55794e6941314c6a41304e4745784c6a6731494445754f4455674d434177494441744c6a41794d5334784d4446734c5334774e446b744c6a41784d7934774e7930754d446734656949675a6d6c7362443069497a5978525463344e694976506a777663335a6e50673d3d646174613a696d6167652f7376672b786d6c3b6261736536342c50484e325a79423361575230614430694e5459774969426f5a576c6e61485139496a55324d4349675a6d6c7362443069626d39755a53496765473173626e4d39496d6830644841364c79393364336375647a4d7562334a6e4c7a49774d44417663335a6e496a3438634746306143426d615778734c584a3162475539496d56325a5735765a47516949474e7361584174636e56735a5430695a585a6c626d396b5a4349675a443069625449774e7934324e5451674e5445344c6a6b774d53307a4c6a457a4e5341794c6a51774e7941334c6a63774e6941354c6a51334f4330784c6a55314d5341784c6a49324d5330334c6a63304c546b754e5449794c544d754d544d31494449754e444133494463754e6a637949446b754e444d344c5445754e5455674d5334794e6930334c6a63774f4330354c6a51344d5330784d5334304d5463674f4334334e6a566a4c5445754e544531494445754d54597a4c5334324f544d674d7934314f4459674d5334794d5467674d7934314f445a6f4e7a4d754d545978595449674d694177494441674d4341794c544a574e544177595449674d694177494441674d4330794c544a6f4c5451354c6a59354e6d4579494449674d434177494441744d694179646a45324c6a55784e474d774943347a4f4459744c6a45784d6934334e546b744c6a4d784e5341784c6a41334e3277334c6a67784e4341354c6a59784d5330784c6a5531494445754d6a59784c5463754e7a63304c546b754e545979656b307a4e5449754e544978494455784f4334354d4446734d7934784d7a51674d6934304d4463744e7934334d4455674f5334304e7a67674d5334314e5341784c6a49324d5341334c6a63304d5330354c6a55794d69417a4c6a457a4e5341794c6a51774e7930334c6a59334d7941354c6a517a4f4341784c6a55314d5341784c6a4932494463754e7a41344c546b754e446778494445784c6a51784e7941344c6a63324e574d784c6a55784e5341784c6a45324d7934324f5449674d7934314f4459744d5334794d5467674d7934314f445a494d6a6b35595449674d694177494441674d5330794c544a574e544177595449674d694177494441674d5341794c544a6f4e446b754e6a6b32595449674d694177494441674d53417949444a324d5459754e544530597a41674c6a4d344e6934784d5445754e7a55354c6a4d784e4341784c6a41334e3277744e7934344d544d674f5334324d5445674d5334314e5341784c6a49324d5341334c6a63334e4330354c6a55324d6e6f6949475a706247773949694d3451554e45525545694c7a34384c334e325a7a343d646174613a696d6167652f7376672b786d6c3b6261736536342c50484e325a79423361575230614430694e5459774969426f5a576c6e61485139496a55324d4349675a6d6c7362443069626d39755a53496765473173626e4d39496d6830644841364c79393364336375647a4d7562334a6e4c7a49774d44417663335a6e496a3438634746306143426d615778734c584a3162475539496d56325a5735765a47516949474e7361584174636e56735a5430695a585a6c626d396b5a4349675a4430695454497a4f5334784e4467674d7a41754d444d7a597934774d6a6b744e4334354e7930794c6a51774f5330354c6a41784e5330314c6a51304e7930354c6a417a4d79307a4c6a417a4e7930754d4445344c5455754e54493049444d754f546b334c5455754e54557a494467754f5459334c5334774d4455754f4449314c6a41314f4341784c6a59794e4334784f4341794c6a4d344e4745354c6a453549446b754d546b674d434177494441744c6a45784d7930754d5445795979307a4c6a55324e53307a4c6a51324e4330344c6a45334d5330304c6a55774e6930784d4334794f4467744d69347a4d6a63744d6934784d5463674d6934784e7a67744c6a6b304d7941324c6a63314d6941794c6a59794d6941784d4334794d545a684d5451754e445531494445304c6a51314e534177494441674d4341784c6a67774e6941784c6a51354e574d744c6a6b344d6934784f4459744d5334354f5467754e446b324c544d754d4441354c6a6b7a4e6930304c6a55314e7941784c6a6b344d7930334c6a49324f5341314c6a67314c5459754d445533494467754e6a4d31494445754d6a4579494449754e7a6731494455754f446b674d7934304d7a55674d5441754e445133494445754e445578595445304c6a45794e5341784e4334784d6a55674d434177494441674d6934344e5467744d5334324e5455674d5451754d6a6b34494445304c6a49354f434177494441674d4330784c6a49314e7941794c6a5978597930784c6a63774d6941304c6a59334c5334334e6a67674f5334794f5467674d6934774f4459674d5441754d7a4d34494449754f445530494445754d4451674e6934314e4463744d5334354d4449674f4334794e446b744e6934314e7a49754d54637a4c5334304e7a59754d7a45354c5334354e5445754e444d344c5445754e4449794c6a45334d7934324e43347a4f5463674d5334794f4467754e6a6330494445754f544d30494445754f545532494451754e5463674e5334344d4459674e79347a4d4455674f4334314f5467674e6934784d5341794c6a4d354e7930784c6a41794e79417a4c6a497a4e6930304c6a59784e4341794c6a45344f5330344c6a51354f5341304c6a63324f5341784c6a59774e5341784d4334774f5455674e4334314e4459674d5451754e6a453249446b754d7a5131494459754f4341334c6a49784f4341784d6934784d6a55674d546b754d444132494445774c6a55794f43417a4e7934344d6a68684e434130494441674d534177494463754f5463784c6a59334e6d4d784c6a63324d7930794d4334334e7a49744e4334784d5449744d7a51754f5330784d6934324e7a63744e444d754f546c684e444d754e6a59344944517a4c6a59324f434177494441674d4330784d7934794e7a6b744f5334314f544a6a4d6934774e5445744d5334774d4467674d79347a4e6a51744d6934314e5455674d79347a4e6a51744e4334794f446b674d43307a4c6a417a4e7930304c6a41794f5330314c6a55744f5330314c6a55744c6a63774d7941774c5445754d7a67334c6a41314c5449754d44517a4c6a45304d3245784e4334334d7941784e4334334d794177494441674d4341784c6a457a4e4330754f54597a597a4d754e6a497a4c544d754e44417a494451754f4463314c5463754f545532494449754e7a6b314c5445774c6a45334c5449754d4463354c5449754d6a45314c5459754e7a41794c5445754d6a55784c5445774c6a4d794e5341794c6a45314d5745784e4334794f5341784e4334794f534177494441674d4330784c6a6b774e4341794c6a45344d324d754d6a51354c5445754d4445314c6a4d354c5449754d5449754d7a6b334c544d754d6a6334656d30744d6934784d7a51674e7934774e5445744c6a417a4c6a45304d5745794c6a6b344e6941794c6a6b344e694177494441674d4330754d4459344c5334774d5468734c6a41354f4330754d54497a656949675a6d6c736244306949305a464e5559314e534976506a78775958526f49475a7062477774636e56735a5430695a585a6c626d396b5a43496759327870634331796457786c50534a6c646d56756232526b4969426b50534a4e4d6a6b344c6a59344d6941304e5334304e6d4d754d4449784c544d754e5455304c5445754e7a497a4c5459754e4451334c544d754f446b314c5459754e4459744d6934784e7a4d744c6a41784d79307a4c6a6b314d5341794c6a67314f53307a4c6a6b334d7941324c6a51784e4330754d44417a4c6a55354c6a41304d6941784c6a45324d5334784d7941784c6a63774e5777744c6a41344d6930754d44686a4c5449754e5455744d6934304e7a67744e5334344e4451744d7934794d6a4d744e79347a4e5467744d5334324e6a55744d5334314d5451674d5334314e5467744c6a59334e4341304c6a677a494445754f446331494463754d7a41334c6a51784e5334304d444d754f4451354c6a6332494445754d6a6b79494445754d4464684d5441754d5459674d5441754d5459674d434177494441744d6934784e5449754e6a59355979307a4c6a49314f5341784c6a51784f5330314c6a45354f5341304c6a45344e4330304c6a4d7a4d6941324c6a45334e6934344e4467674d5334354e5341304c6a41334d6941794c6a517a4e6941334c6a49324e5341784c6a45794e5330304c6a457a4e53417a4c6a63774e5330334c6a51794d7941344c6a63354c546b754e6a6b35494445304c6a55314d53307a4c6a49314e6941344c6a497a4f4330304c6a55324d6941784f4334784d6a67744d7934794e4463674d6a67754d544535624455754f5451344c5334334f444a6a4c5445754d5467314c546b754d4445754d4441354c5445334c6a6733494449754f4463354c5449314c6a457a4d5341784c6a55774f53307a4c6a67784f53417a4c6a51304f5330334c6a45794d7941314c6a59354d6930354c6a63334e43347a4d7a45754e4463784c6a63314f4334344d6941784c6a49334d5341784c6a41774f4341794c6a41304d5334334e444d674e4334324f444d744d53347a4e6a45674e5334354c5451754e7a41794c6a45794e4330754d7a51754d6a49344c5334324f43347a4d5451744d5334774d5463754d54497a4c6a51314f4334794f444d754f5449794c6a51344d5341784c6a4d344e4341784c6a51674d7934794e6a67674e4334784e544d674e5334794d6a51674e6934784e5341304c6a4d33494445754f546b344c5334344e5459674d6934304f4449744e4334784f5467674d5334774f444d744e7934304e6a64684d5441674d5441674d434177494441744d53347a4e4445744d6934794e7941354c6a67334f5341354c6a67334f534177494441674d4341794c6a6b784d7934304d6a526a4d7934314e5455674d4341324c6a517a4e7930784c6a63324d5341324c6a517a4e79307a4c6a6b7a4e484d744d6934344f4449744d7934354d7a51744e6934304d7a63744d7934354d7a526a4c5334314d444d674d4330754f546b794c6a417a4e5330784c6a51324d5334784d4449754d6a63324c5334794d5445754e5451334c5334304e4334344d5445744c6a59344f5341794c6a55354d5330794c6a517a4d79417a4c6a51344e7930314c6a5935494445754f546b354c5463754d6a63304c5445754e4467334c5445754e5467304c5451754e7a6b304c5334344f5455744e79347a4f4455674d5334314e4330754e5449324c6a51354d7930754f546778494445754d4449744d53347a4e6a49674d5334314e6d45784d4334774f4341784d4334774f434177494441674d4341754d6a67304c5449754d7a5130656d30744d5334314d6a59674e5334774e4452684d5334344e5341784c6a6731494441674d4341774c5334774d6a45754d544178624330754d4451354c5334774d544d754d4463744c6a41344f486f6949475a706247773949694e47525456474e5455694c7a34384c334e325a7a343d646174613a696d6167652f7376672b786d6c3b6261736536342c50484e325a79423361575230614430694e5459774969426f5a576c6e61485139496a55324d4349675a6d6c7362443069626d39755a53496765473173626e4d39496d6830644841364c79393364336375647a4d7562334a6e4c7a49774d44417663335a6e496a3438634746306143426d615778734c584a3162475539496d56325a5735765a47516949474e7361584174636e56735a5430695a585a6c626d396b5a4349675a443069625449774e7934324e5451674e5445344c6a6b774d53307a4c6a457a4e5341794c6a51774e7941334c6a63774e6941354c6a51334f4330784c6a55314d5341784c6a49324d5330334c6a63304c546b754e5449794c544d754d544d31494449754e444133494463754e6a637949446b754e444d344c5445754e5455674d5334794e6930334c6a63774f4330354c6a51344d5330784d5334304d5463674f4334334e6a566a4c5445754e544531494445754d54597a4c5334324f544d674d7934314f4459674d5334794d5467674d7934314f445a6f4e7a4d754d545978595449674d694177494441674d4341794c544a574e544177595449674d694177494441674d4330794c544a6f4c5451354c6a59354e6d4579494449674d434177494441744d694179646a45324c6a55784e474d774943347a4f4459744c6a45784d6934334e546b744c6a4d784e5341784c6a41334e3277334c6a67784e4341354c6a59784d5330784c6a5531494445754d6a59784c5463754e7a63304c546b754e545979656b307a4e5449754e544978494455784f4334354d4446734d7934784d7a51674d6934304d4463744e7934334d4455674f5334304e7a67674d5334314e5341784c6a49324d5341334c6a63304d5330354c6a55794d69417a4c6a457a4e5341794c6a51774e7930334c6a59334d7941354c6a517a4f4341784c6a55314d5341784c6a4932494463754e7a41344c546b754e446778494445784c6a51784e7941344c6a63324e574d784c6a55784e5341784c6a45324d7934324f5449674d7934314f4459744d5334794d5467674d7934314f445a494d6a6b35595449674d694177494441674d5330794c544a574e544177595449674d694177494441674d5341794c544a6f4e446b754e6a6b32595449674d694177494441674d53417949444a324d5459754e544530597a41674c6a4d344e6934784d5445754e7a55354c6a4d784e4341784c6a41334e3277744e7934344d544d674f5334324d5445674d5334314e5341784c6a49324d5341334c6a63334e4330354c6a55324d6e6f6949475a706247773949694e47525456474e5455694c7a34384c334e325a7a343d646174613a696d6167652f7376672b786d6c3b6261736536342c50484e325a79423361575230614430694e5459774969426f5a576c6e61485139496a55324d4349675a6d6c7362443069626d39755a53496765473173626e4d39496d6830644841364c79393364336375647a4d7562334a6e4c7a49774d44417663335a6e496a3438634746306143426d615778734c584a3162475539496d56325a5735765a47516949474e7361584174636e56735a5430695a585a6c626d396b5a4349675a443069545449314e5334354d5451674d5445354c6a597a4d574d784d4334344e4459744d5467754d6a6b3249444d334c6a4d794e6930784f4334794f5459674e4467754d546379494442734e6a4d754e6a6332494445774e7934304d54524d4e54417749444d774e533431597a4930494459754d5459334944597a4c6a63674d6a41674d7a41754e5341794e6c4d304f4449754d7a4d7a49444d794e7941304e7a6b674d7a4978624330334d7934344d6a49744d7a41754f444d3349444d794c6a51354d5341314e4334344d446c6a4d5445754d445930494445344c6a59324e5330794c6a4d344f4341304d6934794e7a67744d6a51754d446732494451794c6a49334f4767744e6a4d754f574d754d6a41344c6a67344d79347a4d5463674d5334344d4451754d7a4533494449754e7a56324d5449344c6a63334d574d77494334794f4334784e7a55754e54497a4c6a51774d6934324f445a734d6a41754e7a4534494445304c6a6b79597a45754e546332494445754d544d314c6a63334d79417a4c6a59794d7930784c6a45324f53417a4c6a59794d3267744e6a63754d6a5533595455754e6a6b30494455754e6a6b30494441674d4341784c5455754e6a6b304c5455754e6a6b30566a4d354d474d774c5334354e4459754d5445744d5334344e6a63754d7a45334c5449754e7a566f4c544d304c6a597a4e474d754d6a41344c6a67344d79347a4d5463674d5334344d4451754d7a4533494449754e7a56324d5451794c6a49324d5745314c6a637a4f4341314c6a637a4f434177494441674d5330314c6a637a4f5341314c6a637a4f5767744e6a63754d6a5533597930784c6a6b304d6941774c5449754e7a51314c5449754e4467344c5445754d5459354c544d754e6a497a624449774c6a63784f4330784e4334354d6d4d754d6a51354c5334784e7a6b754e4451334c5334304e4455754e4451334c5334334e544a574d7a6b77597a41744c6a6b304e6934784d5330784c6a67324e79347a4d5463744d6934334e5767744e6a4d754f574d744d6a45754e6a6b34494441744d7a55754d5455744d6a4d754e6a457a4c5449304c6a41344e6930304d6934794e7a68734d7a49754e7a55324c5455314c6a49314e3077344d4334784f5451674d7a49785979307a4c6a4d7a4d7941324c5445344c6a4d674d5459754e5330314d533431494445774c6a567a4e6934314c5445354c6a677a4d79417a4d4334314c5449326244457a4d7934304f4449744e7a6b754d546b794944597a4c6a497a4f4330784d4459754e6a6333656d307a4c6a417a4f4341784d6a45754d44493559544d754e54417949444d754e544179494441674d434178494451754d7a6734494449754d6a6b795979347a4d444d754f54593349444d754f446733494459754e545134494445334c6a4d324e6941324c6a55304f4341784d7934314e4467674d4341784e5334334e546b744e5334314e5341784e5334344d7a59744e6934774e444a684d7934314d4445674d7934314d4445674d434177494445674e6934354d5459674d5334774f44526a4c5334344e6a51674e5334314d4467744e7934324f446b674d5445754f5455344c5449794c6a63314d6941784d5334354e5467744d5455754d544d7a494441744d6a49754e4459324c5459754e4445354c5449304c6a41304e5330784d5334304e544a684d79343149444d754e534177494441674d5341794c6a49354d5330304c6a4d344f48704e4d6a557a494449774d574530494451674d434177494441744e434130646a4577595451674e434177494441674d434134494442324c544577595451674e434177494441674d4330304c54523662545134494452684e434130494441674d434178494467674d4859784d474530494451674d434177494445744f434177646930784d486f6949475a706247773949694e47515546424d7a6b694c7a34384c334e325a7a343d646174613a696d6167652f7376672b786d6c3b6261736536342c50484e325a79423361575230614430694e5459774969426f5a576c6e61485139496a55324d4349675a6d6c7362443069626d39755a53496765473173626e4d39496d6830644841364c79393364336375647a4d7562334a6e4c7a49774d44417663335a6e496a3438634746306143426d615778734c584a3162475539496d56325a5735765a47516949474e7361584174636e56735a5430695a585a6c626d396b5a4349675a4430695454497a4e5334314d7a51674d6a5179597a49774c6a45334f43417749444d324c6a557a4e5330784e69347a4e4449674d7a59754e544d314c544d324c6a55674d4330784c6a55794d7930754d446b7a4c544d754d4449304c5334794e7a55744e4334304f5468734c6a55784e5330754d6a4a684d6a41754d6a5579494449774c6a49314d694177494441674d5341784e6934794e7a51754d545132624334314f546b754d6a593559544d324c6a67784f53417a4e6934344d546b674d434177494441744c6a49314d5341304c6a4d774d324d77494449774c6a45314f4341784e69347a4e5463674d7a59754e53417a4e6934314d7a55674d7a59754e554d7a4e4455754e6a517a494449304d69417a4e6a49674d6a49314c6a59314f43417a4e6a49674d6a41314c6a56544d7a51314c6a59304d7941784e6a6b674d7a49314c6a51324e6941784e6a6c6a4c5445334c6a45794d7941774c544d784c6a51354e4341784d5334334e6a63744d7a55754e44557a494449334c6a59304f5745794e4334334e5449674d6a51754e7a5579494441674d4341774c5445354c6a41324f4330754d545933517a49324e6934354d6a63674d5467774c6a59344e5341794e5449754e546b33494445324f5341794d7a55754e544d30494445324f5341794d5455754d7a5533494445324f5341784f546b674d5467314c6a4d304d6941784f546b674d6a41314c6a567a4d5459754d7a553349444d324c6a55674d7a59754e544d3049444d324c6a5636625441744e5334324d54566a4d5463754d446330494441674d7a41754f5445304c54457a4c6a67794f43417a4d4334354d5451744d7a41754f446731494441744d5463754d4455334c54457a4c6a67304c544d774c6a67344e53307a4d4334354d5451744d7a41754f4467314c5445334c6a41334d7941774c544d774c6a6b784d7941784d7934344d6a67744d7a41754f54457a49444d774c6a67344e534177494445334c6a41314e7941784d7934344e43417a4d4334344f4455674d7a41754f54457a49444d774c6a67344e5870744f446b754f544d794944426a4d5463754d44637a494441674d7a41754f54457a4c54457a4c6a67794f43417a4d4334354d544d744d7a41754f446731494441744d5463754d4455334c54457a4c6a67304c544d774c6a67344e53307a4d4334354d544d744d7a41754f4467314c5445334c6a41334e4341774c544d774c6a6b784e4341784d7934344d6a67744d7a41754f54453049444d774c6a67344e534177494445334c6a41314e7941784d7934344e43417a4d4334344f4455674d7a41754f54453049444d774c6a67344e586f6949475a706247773949694d3451554e45525545694c7a34384c334e325a7a343d646174613a696d6167652f7376672b786d6c3b6261736536342c50484e325a79423361575230614430694e5459774969426f5a576c6e61485139496a55324d4349675a6d6c7362443069626d39755a53496765473173626e4d39496d6830644841364c79393364336375647a4d7562334a6e4c7a49774d44417663335a6e496a3438634746306143426d615778734c584a3162475539496d56325a5735765a47516949474e7361584174636e56735a5430695a585a6c626d396b5a4349675a4430695454497a4e5334314d7a51674d6a5179597a49774c6a45334f43417749444d324c6a557a4e5330784e69347a4e4449674d7a59754e544d314c544d324c6a55674d4330784c6a55794d7930754d446b7a4c544d754d4449304c5334794e7a55744e4334304f5468734c6a55784e5330754d6a4a684d6a41754d6a5579494449774c6a49314d694177494441674d5341784e6934794e7a51754d545132624334314f546b754d6a593559544d324c6a67784f53417a4e6934344d546b674d434177494441744c6a49314d5341304c6a4d774d324d77494449774c6a45314f4341784e69347a4e5463674d7a59754e53417a4e6934314d7a55674d7a59754e554d7a4e4455754e6a517a494449304d69417a4e6a49674d6a49314c6a59314f43417a4e6a49674d6a41314c6a56544d7a51314c6a59304d7941784e6a6b674d7a49314c6a51324e6941784e6a6c6a4c5445334c6a45794d7941774c544d784c6a51354e4341784d5334334e6a63744d7a55754e44557a494449334c6a59304f5745794e4334334e5449674d6a51754e7a5579494441674d4341774c5445354c6a41324f4330754d545933517a49324e6934354d6a63674d5467774c6a59344e5341794e5449754e546b33494445324f5341794d7a55754e544d30494445324f5341794d5455754d7a5533494445324f5341784f546b674d5467314c6a4d304d6941784f546b674d6a41314c6a567a4d5459754d7a553349444d324c6a55674d7a59754e544d3049444d324c6a5636625441744e5334324d54566a4d5463754d446330494441674d7a41754f5445304c54457a4c6a67794f43417a4d4334354d5451744d7a41754f446731494441744d5463754d4455334c54457a4c6a67304c544d774c6a67344e53307a4d4334354d5451744d7a41754f4467314c5445334c6a41334d7941774c544d774c6a6b784d7941784d7934344d6a67744d7a41754f54457a49444d774c6a67344e534177494445334c6a41314e7941784d7934344e43417a4d4334344f4455674d7a41754f54457a49444d774c6a67344e5870744f446b754f544d794944426a4d5463754d44637a494441674d7a41754f54457a4c54457a4c6a67794f43417a4d4334354d544d744d7a41754f446731494441744d5463754d4455334c54457a4c6a67304c544d774c6a67344e53307a4d4334354d544d744d7a41754f4467314c5445334c6a41334e4341774c544d774c6a6b784e4341784d7934344d6a67744d7a41754f54453049444d774c6a67344e534177494445334c6a41314e7941784d7934344e43417a4d4334344f4455674d7a41754f54453049444d774c6a67344e586f6949475a706247773949694d324d5555334f4459694c7a34384c334e325a7a343d646174613a696d6167652f7376672b786d6c3b6261736536342c50484e325a79423361575230614430694e5459774969426f5a576c6e61485139496a55324d4349675a6d6c7362443069626d39755a53496765473173626e4d39496d6830644841364c79393364336375647a4d7562334a6e4c7a49774d44417663335a6e496a3438634746306143426d615778734c584a3162475539496d56325a5735765a47516949474e7361584174636e56735a5430695a585a6c626d396b5a4349675a4430695454497a4f5334784e4467674d7a41754d444d7a597934774d6a6b744e4334354e7930794c6a51774f5330354c6a41784e5330314c6a51304e7930354c6a417a4d79307a4c6a417a4e7930754d4445344c5455754e54493049444d754f546b334c5455754e54557a494467754f5459334c5334774d4455754f4449314c6a41314f4341784c6a59794e4334784f4341794c6a4d344e4745354c6a453549446b754d546b674d434177494441744c6a45784d7930754d5445795979307a4c6a55324e53307a4c6a51324e4330344c6a45334d5330304c6a55774e6930784d4334794f4467744d69347a4d6a63744d6934784d5463674d6934784e7a67744c6a6b304d7941324c6a63314d6941794c6a59794d6941784d4334794d545a684d5451754e445531494445304c6a51314e534177494441674d4341784c6a67774e6941784c6a51354e574d744c6a6b344d6934784f4459744d5334354f5467754e446b324c544d754d4441354c6a6b7a4e6930304c6a55314e7941784c6a6b344d7930334c6a49324f5341314c6a67314c5459754d445533494467754e6a4d31494445754d6a4579494449754e7a6731494455754f446b674d7934304d7a55674d5441754e445133494445754e445578595445304c6a45794e5341784e4334784d6a55674d434177494441674d6934344e5467744d5334324e5455674d5451754d6a6b34494445304c6a49354f434177494441674d4330784c6a49314e7941794c6a5978597930784c6a63774d6941304c6a59334c5334334e6a67674f5334794f5467674d6934774f4459674d5441754d7a4d34494449754f445530494445754d4451674e6934314e4463744d5334354d4449674f4334794e446b744e6934314e7a49754d54637a4c5334304e7a59754d7a45354c5334354e5445754e444d344c5445754e4449794c6a45334d7934324e43347a4f5463674d5334794f4467754e6a6330494445754f544d30494445754f545532494451754e5463674e5334344d4459674e79347a4d4455674f4334314f5467674e6934784d5341794c6a4d354e7930784c6a41794e79417a4c6a497a4e6930304c6a59784e4341794c6a45344f5330344c6a51354f5341304c6a63324f5341784c6a59774e5341784d4334774f5455674e4334314e4459674d5451754e6a453249446b754d7a5131494459754f4341334c6a49784f4341784d6934784d6a55674d546b754d444132494445774c6a55794f43417a4e7934344d6a68684e434130494441674d534177494463754f5463784c6a59334e6d4d784c6a63324d7930794d4334334e7a49744e4334784d5449744d7a51754f5330784d6934324e7a63744e444d754f546c684e444d754e6a59344944517a4c6a59324f434177494441674d4330784d7934794e7a6b744f5334314f544a6a4d6934774e5445744d5334774d4467674d79347a4e6a51744d6934314e5455674d79347a4e6a51744e4334794f446b674d43307a4c6a417a4e7930304c6a41794f5330314c6a55744f5330314c6a55744c6a63774d7941774c5445754d7a67334c6a41314c5449754d44517a4c6a45304d3245784e4334334d7941784e4334334d794177494441674d4341784c6a457a4e4330754f54597a597a4d754e6a497a4c544d754e44417a494451754f4463314c5463754f545532494449754e7a6b314c5445774c6a45334c5449754d4463354c5449754d6a45314c5459754e7a41794c5445754d6a55784c5445774c6a4d794e5341794c6a45314d5745784e4334794f5341784e4334794f534177494441674d4330784c6a6b774e4341794c6a45344d324d754d6a55744d5334774d5455754d7a6b744d6934784d69347a4f5463744d7934794e7a6836625330794c6a457a4e4341334c6a41314d5330754d444d754d545178595449754f546732494449754f546732494441674d4341774c5334774e6a67744c6a41784f4777754d446b344c5334784d6a4e364969426d615778735053496a4f454644524556424969382b50484268644767675a6d6c73624331796457786c50534a6c646d56756232526b4969426a62476c774c584a3162475539496d56325a5735765a47516949475139496b30794f5467754e6a6779494451314c6a5132597934774d6a45744d7934314e5451744d5334334d6a4d744e6934304e4463744d7934344f5455744e6934304e6930794c6a45334d7930754d44457a4c544d754f545578494449754f4455354c544d754f54637a494459754e4445304c5334774d444d754e546b754d445179494445754d5459784c6a457a494445754e7a4131624330754d4467794c5334774f474d744d6934314e5330794c6a51334f4330314c6a67304e43307a4c6a49794d7930334c6a4d314f4330784c6a59324e5330784c6a55784e4341784c6a55314f4330754e6a6330494451754f444d674d5334344e7a55674e79347a4d4463754e4445314c6a51774d7934344e446b754e7a59674d5334794f5449674d5334774e3245784d4334784e6941784d4334784e694177494441674d4330794c6a45314d6934324e6a6c6a4c544d754d6a5535494445754e4445354c5455754d546b35494451754d5467304c5451754d7a4d79494459754d5463324c6a67304f4341784c6a6b31494451754d446379494449754e444d32494463754d6a5931494445754d5449314c5451754d544d3149444d754e7a41314c5463754e44497a494467754e7a6b744f5334324f546b674d5451754e5455784c544d754d6a5532494467754d6a4d344c5451754e545979494445344c6a45794f43307a4c6a49304e7941794f4334784d546c734e5334354e4467744c6a63344d6d4d744d5334784f4455744f5334774d5334774d446b744d5463754f4463674d6934344e7a6b744d6a55754d544d78494445754e5441354c544d754f44453549444d754e4451354c5463754d54497a494455754e6a6b794c546b754e7a63304c6a4d7a4d5334304e7a45754e7a55344c6a6779494445754d6a6378494445754d444134494449754d4451784c6a63304d7941304c6a59344d7930784c6a4d324d5341314c6a6b744e4334334d4449754d5449304c53347a4e4334794d6a67744c6a59344c6a4d784e4330784c6a41784e7934784d6a4d754e4455344c6a49344d7934354d6a49754e446778494445754d7a6730494445754e43417a4c6a49324f4341304c6a45314d7941314c6a49794e4341324c6a4531494451754d7a63674d5334354f5467744c6a67314e6941794c6a51344d6930304c6a45354f4341784c6a41344d7930334c6a51324e3245784d4341784d434177494441674d4330784c6a4d304d5330794c6a493349446b754f44633549446b754f446335494441674d434177494449754f54457a4c6a51794e474d7a4c6a55314e534177494459754e444d334c5445754e7a5978494459754e444d334c544d754f544d30637930794c6a67344d69307a4c6a6b7a4e4330324c6a517a4e79307a4c6a6b7a4e474d744c6a55774d7941774c5334354f5449754d444d314c5445754e4459784c6a45774d6934794e7a59744c6a49784d5334314e4463744c6a51304c6a67784d5330754e6a6735494449754e546b784c5449754e444d7a49444d754e4467334c5455754e6a6b674d5334354f546b744e7934794e7a51744d5334304f4463744d5334314f4451744e4334334f5451744c6a67354e5330334c6a4d344e5341784c6a55304c5334314d6a59754e446b7a4c5334354f4445674d5334774d6930784c6a4d324d6941784c6a5532595445774c6a4134494445774c6a4134494441674d434177494334794f4451744d69347a4e445236625330784c6a55794e6941314c6a41304e4745784c6a6731494445754f4455674d434177494441744c6a41794d5334784d4446734c5334774e446b744c6a41784d7934774e7930754d446734656949675a6d6c7362443069497a68425130524651534976506a777663335a6e50673d3d646174613a696d6167652f7376672b786d6c3b6261736536342c50484e325a79423361575230614430694e5459774969426f5a576c6e61485139496a55324d4349675a6d6c7362443069626d39755a53496765473173626e4d39496d6830644841364c79393364336375647a4d7562334a6e4c7a49774d44417663335a6e496a3438634746306143426b50534a4e4d7a6730494449314f574530494451674d434177494445744e43347a4e546b674d7934354f44526a4c5467754e545931494451754d7a45784c5449774c6a59344d7941354c6a6b344e79307a4d7934354d546b674d5455754e446731595451754d44417a494451754d44417a494441674d4341784c5455754d7a5135494449754d546732494451304f4334794d7a4d674e4451344c6a497a4d794177494441674d5330354c6a457a4d53417a4c6a55314f574d744f5334794d4455674d7934304e7a45744d5467754e6a4135494459754e6a51354c5449334c6a517a4f4341354c6a41794e6d45304c6a41774d6941304c6a41774d694177494441674d5330324c6a55334f4341784c6a59304d6d4d744e6934774d6a63674d53347a4e7a63744d5445754e6a5930494449754d6a67314c5445324c6a597a4d7941794c6a55304d3245754f5467314c6a6b344e534177494441674d5341754d7a55344c6a55774d6d77794c6a51784e7941334c6a517a4f474578494445674d434177494441674c6a6b314d5334324f54466f4e7934344d6d4d754f545935494441674d53347a4e7a49674d5334794d7a6b754e546734494445754f444135624330324c6a4d794e7941304c6a55354e6d4d744c6a4d314c6a49314e5330754e446b334c6a63774e7930754d7a597a494445754d544535624449754e444533494463754e444d33597934794f546b754f5449794c5334334e5459674d5334324f4467744d5334314d7a6b674d5334784d5468734c5459754d7a49334c5451754e546b32595445674d534177494441674d4330784c6a45334e694177624330324c6a4d794e7941304c6a55354e6d4d744c6a63344d7934314e7930784c6a677a4f4330754d546b324c5445754e544d354c5445754d544534624449754e4445334c5463754e444d33595445754d444179494445754d444179494441674d4341774c53347a4e6a4d744d5334784d546c734c5459754d7a49334c5451754e546b32597930754e7a67304c5334314e7930754d7a67784c5445754f4441354c6a55344f4330784c6a67774f5767334c6a6779595445674d534177494441674d4341754f5455784c5334324f5446734d6934304d5463744e7934304d7a68684c6a6b354d7934354f544d674d434177494445674c6a49354e4330754e445578597930754e5449304c6a41784e6930784c6a417a4f5334774d6a51744d5334314e4459754d4449304c5459754e6a4d78494441744d5451754e5459794c5445754d7a597a4c54497a4c6a41324e53307a4c6a55334f5745304c6a41774d6941304c6a41774d694177494441674d5330324c6a55344e6930784c6a67304e324d744e79347a4f4463744d6934794d5330784e5334774e5330304c6a6b7a4e6930794d6934314e4463744e7934344e7a46684e44457a4c6a677a494451784d7934344d794177494441674d5330304c6a55774e4330784c6a63354e534130494451674d434177494445744e5334354f4463744d6934304f4449674e446b794c6a6332494451354d6934334e694177494441674d5330794d7934774e6a51744d5441754e446733494451754d444178494451754d444178494441674d4341784c5459754d4445344c5449754f54633349444d324f4334354d446b674d7a59344c6a6b774f534177494441674d5330344c6a49774e7930304c6a49314f5341794c6a51354f5341794c6a51354f534177494441674d5330784c6a41794d69307a4c6a4d344e4341794c6a51354f5341794c6a51354f534177494441674d53417a4c6a4d344e4330784c6a41794d69417a4e7a51754d7a593049444d334e43347a4e6a51674d434177494441674f4334314d6a59674e4334304d5463674e4334774d4449674e4334774d4449674d434177494445674e5334774f4463674d6934314d5459674e4467354c6a45314d5341304f446b754d545578494441674d4341774944497a4c6a51314e5341784d4334324e7a4d674e4334774d4445674e4334774d4445674d434177494445674e5334314d7a51674d6934794f54526a4d5334314d7a6b754e6a493149444d754d446733494445754d6a517a494451754e6a4d35494445754f4455674e7934324f43417a4c6a41774e6941784e5334304d4449674e5334334d7a59674d6a49754e7a4934494463754f54413259544d754f546b3449444d754f546b34494441674d434178494455754d6a6332494445754e446778597a67754d7a6b33494449754d6a4979494445324c6a41354e43417a4c6a55324e6941794d69347a4e7a45674d7934314e6a59674e53347a4d5445674d4341784d5334334d7a49744c6a6b324d6941784f4334344c5449754e6a417a59544d754f546b3449444d754f546b34494441674d434178494455754e4445334c5445754d7a5530597a67754e6a63784c5449754d7a4579494445344c6a41334f5330314c6a51324f4341794e7934304e6a51744f5334774d4464684e4455784c6a63794f5341304e5445754e7a4935494441674d434177494467754e6a41314c544d754d7a5135494451674e434177494441674d5341324c6a45304d7930794c6a55784d574d784d6934794e4467744e5334784944497a4c6a55774e6930784d43347a4e4449674d7a45754e7a67744d5451754e44597a515451674e434177494445674d53417a4f4451674d6a5535656949675a6d6c7362443069497a5978525463344e694976506a777663335a6e50673d3d646174613a696d6167652f7376672b786d6c3b6261736536342c50484e325a79423361575230614430694e5459774969426f5a576c6e61485139496a55324d4349675a6d6c7362443069626d39755a53496765473173626e4d39496d6830644841364c79393364336375647a4d7562334a6e4c7a49774d44417663335a6e496a3438634746306143426d615778734c584a3162475539496d56325a5735765a47516949474e7361584174636e56735a5430695a585a6c626d396b5a4349675a443069625449774e7934324e5451674e5445344c6a6b774d53307a4c6a457a4e5341794c6a51774e7941334c6a63774e6941354c6a51334f4330784c6a55314d5341784c6a49324d5330334c6a63304c546b754e5449794c544d754d544d31494449754e444133494463754e6a637949446b754e444d344c5445754e5455674d5334794e6930334c6a63774f4330354c6a51344d5330784d5334304d5463674f4334334e6a566a4c5445754e544531494445754d54597a4c5334324f544d674d7934314f4459674d5334794d5467674d7934314f445a6f4e7a4d754d545978595449674d694177494441674d4341794c544a574e544177595449674d694177494441674d4330794c544a6f4c5451354c6a59354e6d4579494449674d434177494441744d694179646a45324c6a55784e474d774943347a4f4459744c6a45784d6934334e546b744c6a4d784e5341784c6a41334e3277334c6a67784e4341354c6a59784d5330784c6a5531494445754d6a59784c5463754e7a63304c546b754e545979656b307a4e5449754e544978494455784f4334354d4446734d7934784d7a51674d6934304d4463744e7934334d4455674f5334304e7a67674d5334314e5341784c6a49324d5341334c6a63304d5330354c6a55794d69417a4c6a457a4e5341794c6a51774e7930334c6a59334d7941354c6a517a4f4341784c6a55314d5341784c6a4932494463754e7a41344c546b754e446778494445784c6a51784e7941344c6a63324e574d784c6a55784e5341784c6a45324d7934324f5449674d7934314f4459744d5334794d5467674d7934314f445a494d6a6b35595449674d694177494441674d5330794c544a574e544177595449674d694177494441674d5341794c544a6f4e446b754e6a6b32595449674d694177494441674d53417949444a324d5459754e544530597a41674c6a4d344e6934784d5445754e7a55354c6a4d784e4341784c6a41334e3277744e7934344d544d674f5334324d5445674d5334314e5341784c6a49324d5341334c6a63334e4330354c6a55324d6e6f6949475a706247773949694d324d5555334f4459694c7a34384c334e325a7a343d646174613a696d6167652f7376672b786d6c3b6261736536342c50484e325a79423361575230614430694e5459774969426f5a576c6e61485139496a55324d4349675a6d6c7362443069626d39755a53496765473173626e4d39496d6830644841364c79393364336375647a4d7562334a6e4c7a49774d44417663335a6e496a3438634746306143426b50534a4e4d7a6730494449314f574530494451674d434177494445744e43347a4e546b674d7934354f44526a4c5467754e545931494451754d7a45784c5449774c6a59344d7941354c6a6b344e79307a4d7934354d546b674d5455754e446731595451754d44417a494451754d44417a494441674d4341784c5455754d7a5135494449754d546732494451304f4334794d7a4d674e4451344c6a497a4d794177494441674d5330354c6a457a4d53417a4c6a55314f574d744f5334794d4455674d7934304e7a45744d5467754e6a4135494459754e6a51354c5449334c6a517a4f4341354c6a41794e6d45304c6a41774d6941304c6a41774d694177494441674d5330324c6a55334f4341784c6a59304d6d4d744e6934774d6a63674d53347a4e7a63744d5445754e6a5930494449754d6a67314c5445324c6a597a4d7941794c6a55304d3245754f5467314c6a6b344e534177494441674d5341754d7a55344c6a55774d6d77794c6a51784e7941334c6a517a4f474578494445674d434177494441674c6a6b314d5334324f54466f4e7934344d6d4d754f545935494441674d53347a4e7a49674d5334794d7a6b754e546734494445754f444135624330324c6a4d794e7941304c6a55354e6d4d744c6a4d314c6a49314e5330754e446b334c6a63774e7930754d7a597a494445754d544535624449754e444533494463754e444d33597934794f546b754f5449794c5334334e5459674d5334324f4467744d5334314d7a6b674d5334784d5468734c5459754d7a49334c5451754e546b32595445674d534177494441674d4330784c6a45334e694177624330324c6a4d794e7941304c6a55354e6d4d744c6a63344d7934314e7930784c6a677a4f4330754d546b324c5445754e544d354c5445754d544534624449754e4445334c5463754e444d33595445754d444179494445754d444179494441674d4341774c53347a4e6a4d744d5334784d546c734c5459754d7a49334c5451754e546b32597930754e7a67304c5334314e7930754d7a67784c5445754f4441354c6a55344f4330784c6a67774f5767334c6a6779595445674d534177494441674d4341754f5455784c5334324f5446734d6934304d5463744e7934304d7a68684c6a6b354d7934354f544d674d434177494445674c6a49354e4330754e445578597930754e5449304c6a41784e6930784c6a417a4f5334774d6a51744d5334314e4459754d4449304c5459754e6a4d78494441744d5451754e5459794c5445754d7a597a4c54497a4c6a41324e53307a4c6a55334f5745304c6a41774d6941304c6a41774d694177494441674d5330324c6a55344e6930784c6a67304e324d744e79347a4f4463744d6934794d5330784e5334774e5330304c6a6b7a4e6930794d6934314e4463744e7934344e7a46684e44457a4c6a677a494451784d7934344d794177494441674d5330304c6a55774e4330784c6a63354e534130494451674d434177494445744e5334354f4463744d6934304f4449674e446b794c6a6332494451354d6934334e694177494441674d5330794d7934774e6a51744d5441754e446733494451754d444178494451754d444178494441674d4341784c5459754d4445344c5449754f54633349444d324f4334354d446b674d7a59344c6a6b774f534177494441674d5330344c6a49774e7930304c6a49314f5341794c6a51354f5341794c6a51354f534177494441674d5330784c6a41794d69307a4c6a4d344e4341794c6a51354f5341794c6a51354f534177494441674d53417a4c6a4d344e4330784c6a41794d69417a4e7a51754d7a593049444d334e43347a4e6a51674d434177494441674f4334314d6a59674e4334304d5463674e4334774d4449674e4334774d4449674d434177494445674e5334774f4463674d6934314d5459674e4467354c6a45314d5341304f446b754d545578494441674d4341774944497a4c6a51314e5341784d4334324e7a4d674e4334774d4445674e4334774d4445674d434177494445674e5334314d7a51674d6934794f54526a4d5334314d7a6b754e6a493149444d754d446733494445754d6a517a494451754e6a4d35494445754f4455674e7934324f43417a4c6a41774e6941784e5334304d4449674e5334334d7a59674d6a49754e7a4934494463754f54413259544d754f546b3449444d754f546b34494441674d434178494455754d6a6332494445754e446778597a67754d7a6b33494449754d6a4979494445324c6a41354e43417a4c6a55324e6941794d69347a4e7a45674d7934314e6a59674e53347a4d5445674d4341784d5334334d7a49744c6a6b324d6941784f4334344c5449754e6a417a59544d754f546b3449444d754f546b34494441674d434178494455754e4445334c5445754d7a5530597a67754e6a63784c5449754d7a4579494445344c6a41334f5330314c6a51324f4341794e7934304e6a51744f5334774d4464684e4455784c6a63794f5341304e5445754e7a4935494441674d434177494467754e6a41314c544d754d7a5135494451674e434177494441674d5341324c6a45304d7930794c6a55784d574d784d6934794e4467744e5334784944497a4c6a55774e6930784d43347a4e4449674d7a45754e7a67744d5451754e44597a515451674e434177494445674d53417a4f4451674d6a5535656949675a6d6c736244306949305a464e5559314e534976506a777663335a6e50673d3d",
  "devdoc": {
    "kind": "dev",
    "methods": {},
    "version": 1
  },
  "userdoc": {
    "kind": "user",
    "methods": {},
    "version": 1
  },
  "storageLayout": {
    "storage": [
      {
        "astId": 4208,
        "contract": "contracts/ImageStorage.sol:ImageStorage",
        "label": "body",
        "offset": 0,
        "slot": "0",
        "type": "t_string_storage"
      },
      {
        "astId": 4212,
        "contract": "contracts/ImageStorage.sol:ImageStorage",
        "label": "shoes",
        "offset": 0,
        "slot": "1",
        "type": "t_mapping(t_uint256,t_string_storage)"
      },
      {
        "astId": 4216,
        "contract": "contracts/ImageStorage.sol:ImageStorage",
        "label": "clothes",
        "offset": 0,
        "slot": "2",
        "type": "t_mapping(t_uint256,t_string_storage)"
      },
      {
        "astId": 4220,
        "contract": "contracts/ImageStorage.sol:ImageStorage",
        "label": "necklace",
        "offset": 0,
        "slot": "3",
        "type": "t_mapping(t_uint256,t_string_storage)"
      },
      {
        "astId": 4224,
        "contract": "contracts/ImageStorage.sol:ImageStorage",
        "label": "glasses",
        "offset": 0,
        "slot": "4",
        "type": "t_mapping(t_uint256,t_string_storage)"
      },
      {
        "astId": 4228,
        "contract": "contracts/ImageStorage.sol:ImageStorage",
        "label": "hat",
        "offset": 0,
        "slot": "5",
        "type": "t_mapping(t_uint256,t_string_storage)"
      }
    ],
    "types": {
      "t_mapping(t_uint256,t_string_storage)": {
        "encoding": "mapping",
        "key": "t_uint256",
        "label": "mapping(uint256 => string)",
        "numberOfBytes": "32",
        "value": "t_string_storage"
      },
      "t_string_storage": {
        "encoding": "bytes",
        "label": "string",
        "numberOfBytes": "32"
      },
      "t_uint256": {
        "encoding": "inplace",
        "label": "uint256",
        "numberOfBytes": "32"
      }
    }
  }
}