{
  "address": "0xac0E7a538C3cf5eF6F64927B657226a8895b82e9",
  "abi": [
    {
      "inputs": [
        {
          "internalType": "string",
          "name": "name_",
          "type": "string"
        },
        {
          "internalType": "string",
          "name": "symbol_",
          "type": "string"
        },
        {
          "internalType": "contract IGiv3Core",
          "name": "_giv3Core",
          "type": "address"
        },
        {
          "internalType": "contract IImageStorage",
          "name": "_imageStorage",
          "type": "address"
        }
      ],
      "stateMutability": "nonpayable",
      "type": "constructor"
    },
    {
      "anonymous": false,
      "inputs": [
        {
          "indexed": true,
          "internalType": "address",
          "name": "owner",
          "type": "address"
        },
        {
          "indexed": true,
          "internalType": "address",
          "name": "approved",
          "type": "address"
        },
        {
          "indexed": true,
          "internalType": "uint256",
          "name": "tokenId",
          "type": "uint256"
        }
      ],
      "name": "Approval",
      "type": "event"
    },
    {
      "anonymous": false,
      "inputs": [
        {
          "indexed": true,
          "internalType": "address",
          "name": "owner",
          "type": "address"
        },
        {
          "indexed": true,
          "internalType": "address",
          "name": "operator",
          "type": "address"
        },
        {
          "indexed": false,
          "internalType": "bool",
          "name": "approved",
          "type": "bool"
        }
      ],
      "name": "ApprovalForAll",
      "type": "event"
    },
    {
      "anonymous": false,
      "inputs": [
        {
          "indexed": true,
          "internalType": "address",
          "name": "from",
          "type": "address"
        },
        {
          "indexed": true,
          "internalType": "address",
          "name": "to",
          "type": "address"
        },
        {
          "indexed": true,
          "internalType": "uint256",
          "name": "tokenId",
          "type": "uint256"
        }
      ],
      "name": "Transfer",
      "type": "event"
    },
    {
      "inputs": [],
      "name": "DYNAMIC_IMAGE_STORAGE",
      "outputs": [
        {
          "internalType": "contract IImageStorage",
          "name": "",
          "type": "address"
        }
      ],
      "stateMutability": "view",
      "type": "function"
    },
    {
      "inputs": [],
      "name": "GIV3_CORE",
      "outputs": [
        {
          "internalType": "contract IGiv3Core",
          "name": "",
          "type": "address"
        }
      ],
      "stateMutability": "view",
      "type": "function"
    },
    {
      "inputs": [
        {
          "internalType": "address",
          "name": "to",
          "type": "address"
        },
        {
          "internalType": "uint256",
          "name": "tokenId",
          "type": "uint256"
        }
      ],
      "name": "approve",
      "outputs": [],
      "stateMutability": "nonpayable",
      "type": "function"
    },
    {
      "inputs": [
        {
          "internalType": "address",
          "name": "owner",
          "type": "address"
        }
      ],
      "name": "balanceOf",
      "outputs": [
        {
          "internalType": "uint256",
          "name": "",
          "type": "uint256"
        }
      ],
      "stateMutability": "view",
      "type": "function"
    },
    {
      "inputs": [
        {
          "internalType": "uint256",
          "name": "tokenId",
          "type": "uint256"
        }
      ],
      "name": "getApproved",
      "outputs": [
        {
          "internalType": "address",
          "name": "",
          "type": "address"
        }
      ],
      "stateMutability": "view",
      "type": "function"
    },
    {
      "inputs": [
        {
          "internalType": "address",
          "name": "owner",
          "type": "address"
        },
        {
          "internalType": "address",
          "name": "operator",
          "type": "address"
        }
      ],
      "name": "isApprovedForAll",
      "outputs": [
        {
          "internalType": "bool",
          "name": "",
          "type": "bool"
        }
      ],
      "stateMutability": "view",
      "type": "function"
    },
    {
      "inputs": [
        {
          "internalType": "address",
          "name": "_to",
          "type": "address"
        }
      ],
      "name": "mint",
      "outputs": [],
      "stateMutability": "nonpayable",
      "type": "function"
    },
    {
      "inputs": [],
      "name": "name",
      "outputs": [
        {
          "internalType": "string",
          "name": "",
          "type": "string"
        }
      ],
      "stateMutability": "view",
      "type": "function"
    },
    {
      "inputs": [
        {
          "internalType": "uint256",
          "name": "tokenId",
          "type": "uint256"
        }
      ],
      "name": "ownerOf",
      "outputs": [
        {
          "internalType": "address",
          "name": "",
          "type": "address"
        }
      ],
      "stateMutability": "view",
      "type": "function"
    },
    {
      "inputs": [
        {
          "internalType": "address",
          "name": "from",
          "type": "address"
        },
        {
          "internalType": "address",
          "name": "to",
          "type": "address"
        },
        {
          "internalType": "uint256",
          "name": "tokenId",
          "type": "uint256"
        }
      ],
      "name": "safeTransferFrom",
      "outputs": [],
      "stateMutability": "nonpayable",
      "type": "function"
    },
    {
      "inputs": [
        {
          "internalType": "address",
          "name": "from",
          "type": "address"
        },
        {
          "internalType": "address",
          "name": "to",
          "type": "address"
        },
        {
          "internalType": "uint256",
          "name": "tokenId",
          "type": "uint256"
        },
        {
          "internalType": "bytes",
          "name": "data",
          "type": "bytes"
        }
      ],
      "name": "safeTransferFrom",
      "outputs": [],
      "stateMutability": "nonpayable",
      "type": "function"
    },
    {
      "inputs": [
        {
          "internalType": "address",
          "name": "operator",
          "type": "address"
        },
        {
          "internalType": "bool",
          "name": "approved",
          "type": "bool"
        }
      ],
      "name": "setApprovalForAll",
      "outputs": [],
      "stateMutability": "nonpayable",
      "type": "function"
    },
    {
      "inputs": [
        {
          "internalType": "bytes4",
          "name": "interfaceId",
          "type": "bytes4"
        }
      ],
      "name": "supportsInterface",
      "outputs": [
        {
          "internalType": "bool",
          "name": "",
          "type": "bool"
        }
      ],
      "stateMutability": "view",
      "type": "function"
    },
    {
      "inputs": [],
      "name": "symbol",
      "outputs": [
        {
          "internalType": "string",
          "name": "",
          "type": "string"
        }
      ],
      "stateMutability": "view",
      "type": "function"
    },
    {
      "inputs": [
        {
          "internalType": "address",
          "name": "",
          "type": "address"
        }
      ],
      "name": "tokenMapping",
      "outputs": [
        {
          "internalType": "uint256",
          "name": "",
          "type": "uint256"
        }
      ],
      "stateMutability": "view",
      "type": "function"
    },
    {
      "inputs": [
        {
          "internalType": "uint256",
          "name": "tokenId",
          "type": "uint256"
        }
      ],
      "name": "tokenURI",
      "outputs": [
        {
          "internalType": "string",
          "name": "",
          "type": "string"
        }
      ],
      "stateMutability": "view",
      "type": "function"
    },
    {
      "inputs": [],
      "name": "totalSupply",
      "outputs": [
        {
          "internalType": "uint256",
          "name": "",
          "type": "uint256"
        }
      ],
      "stateMutability": "view",
      "type": "function"
    },
    {
      "inputs": [
        {
          "internalType": "address",
          "name": "from",
          "type": "address"
        },
        {
          "internalType": "address",
          "name": "to",
          "type": "address"
        },
        {
          "internalType": "uint256",
          "name": "tokenId",
          "type": "uint256"
        }
      ],
      "name": "transferFrom",
      "outputs": [],
      "stateMutability": "nonpayable",
      "type": "function"
    }
  ],
  "transactionHash": "0x363c868862a9602fe5aee487a7f0c09e3e280f49f8b27b7689e0a1ed938ddf54",
  "args": [
    "GIV3 Avatar",
    "GIV3NFT",
    "0x908EF60C0Ea7FD75D9553d9A29EabBFAAC6ED4Ae",
    "0x5a095fC8b33CfAAe3B5d62D8f5eE23BfB5505581"
  ],
  "numDeployments": 1,
  "solcInputHash": "40a8194097e86e97670a4fd9003e02c2",
  "bytecode": "0x6102406040526092610180818152608091829190620028546101a03981526020016040518060a0016040528060688152602001620029516068913981526020016040518060a00160405280606b8152602001620028e6606b913981526020016040518060a00160405280606b8152602001620028e6606b913981526020016040518060a00160405280606b8152602001620028e6606b913981526020016040518060a00160405280606b8152602001620028e6606b913981526020016040518060a00160405280606b8152602001620028e6606b913981526020016040518060400160405280600a81526020016911179f101e17b9bb339f60b11b815250815250600890600862000112929190620001ae565b503480156200012057600080fd5b50604051620029b9380380620029b98339810160408190526200014391620003fa565b8351849084906200015c90600090602085019062000212565b5080516200017290600190602084019062000212565b5050600780546001600160a01b039485166001600160a01b031991821617909155600680549390941692169190911790915550620004cb915050565b82805482825590600052602060002090810192821562000200579160200282015b82811115620002005782518051620001ef91849160209091019062000212565b5091602001919060010190620001cf565b506200020e9291506200029d565b5090565b82805462000220906200048e565b90600052602060002090601f0160209004810192826200024457600085556200028f565b82601f106200025f57805160ff19168380011785556200028f565b828001600101855582156200028f579182015b828111156200028f57825182559160200191906001019062000272565b506200020e929150620002be565b808211156200020e576000620002b48282620002d5565b506001016200029d565b5b808211156200020e5760008155600101620002bf565b508054620002e3906200048e565b6000825580601f10620002f4575050565b601f016020900490600052602060002090810190620003149190620002be565b50565b634e487b7160e01b600052604160045260246000fd5b600082601f8301126200033f57600080fd5b81516001600160401b03808211156200035c576200035c62000317565b604051601f8301601f19908116603f0116810190828211818310171562000387576200038762000317565b81604052838152602092508683858801011115620003a457600080fd5b600091505b83821015620003c85785820183015181830184015290820190620003a9565b83821115620003da5760008385830101525b9695505050505050565b6001600160a01b03811681146200031457600080fd5b600080600080608085870312156200041157600080fd5b84516001600160401b03808211156200042957600080fd5b62000437888389016200032d565b955060208701519150808211156200044e57600080fd5b506200045d878288016200032d565b93505060408501516200047081620003e4565b60608601519092506200048381620003e4565b939692955090935050565b600181811c90821680620004a357607f821691505b60208210811415620004c557634e487b7160e01b600052602260045260246000fd5b50919050565b61237980620004db6000396000f3fe608060405234801561001057600080fd5b50600436106101165760003560e01c806370a08231116100a2578063a22cb46511610071578063a22cb46514610240578063b88d4fde14610253578063ba27f50b14610266578063c87b56dd14610286578063e985e9c51461029957600080fd5b806370a08231146101ff5780638e4aa826146102125780639518a3e91461022557806395d89b411461023857600080fd5b806318160ddd116100e957806318160ddd1461019857806323b872dd146101b357806342842e0e146101c65780636352211e146101d95780636a627842146101ec57600080fd5b806301ffc9a71461011b57806306fdde0314610143578063081812fc14610158578063095ea7b314610183575b600080fd5b61012e6101293660046118c2565b6102d5565b60405190151581526020015b60405180910390f35b61014b610327565b60405161013a919061193e565b61016b610166366004611951565b6103b9565b6040516001600160a01b03909116815260200161013a565b610196610191366004611986565b6103e0565b005b6009546001600160801b03165b60405190815260200161013a565b6101966101c13660046119b0565b6104fb565b6101966101d43660046119b0565b61052c565b61016b6101e7366004611951565b610547565b6101966101fa3660046119ec565b6105a7565b6101a561020d3660046119ec565b61062d565b60065461016b906001600160a01b031681565b60075461016b906001600160a01b031681565b61014b6106b3565b61019661024e366004611a07565b6106c2565b610196610261366004611ab2565b6106d1565b6101a56102743660046119ec565b600a6020526000908152604090205481565b61014b610294366004611951565b610709565b61012e6102a7366004611b5d565b6001600160a01b03918216600090815260056020908152604080832093909416825291909152205460ff1690565b60006001600160e01b031982166380ac58cd60e01b148061030657506001600160e01b03198216635b5e139f60e01b145b8061032157506301ffc9a760e01b6001600160e01b03198316145b92915050565b60606000805461033690611b90565b80601f016020809104026020016040519081016040528092919081815260200182805461036290611b90565b80156103af5780601f10610384576101008083540402835291602001916103af565b820191906000526020600020905b81548152906001019060200180831161039257829003601f168201915b5050505050905090565b60006103c482610adf565b506000908152600460205260409020546001600160a01b031690565b60006103eb82610547565b9050806001600160a01b0316836001600160a01b0316141561045e5760405162461bcd60e51b815260206004820152602160248201527f4552433732313a20617070726f76616c20746f2063757272656e74206f776e656044820152603960f91b60648201526084015b60405180910390fd5b336001600160a01b038216148061047a575061047a81336102a7565b6104ec5760405162461bcd60e51b815260206004820152603e60248201527f4552433732313a20617070726f76652063616c6c6572206973206e6f7420746f60448201527f6b656e206f776e6572206e6f7220617070726f76656420666f7220616c6c00006064820152608401610455565b6104f68383610b41565b505050565b6105053382610baf565b6105215760405162461bcd60e51b815260040161045590611bcb565b6104f6838383610c2e565b6104f6838383604051806020016040528060008152506106d1565b6000818152600260205260408120546001600160a01b0316806103215760405162461bcd60e51b8152602060048201526018602482015277115490cdcc8c4e881a5b9d985b1a59081d1bdad95b88125160421b6044820152606401610455565b6007546001600160a01b031633146105be57600080fd5b6009546105d59082906001600160801b0316610dd5565b60098054326000908152600a602052604081206001600160801b0392831690558254909116919061060583611c2f565b91906101000a8154816001600160801b0302191690836001600160801b031602179055505050565b60006001600160a01b0382166106975760405162461bcd60e51b815260206004820152602960248201527f4552433732313a2061646472657373207a65726f206973206e6f7420612076616044820152683634b21037bbb732b960b91b6064820152608401610455565b506001600160a01b031660009081526003602052604090205490565b60606001805461033690611b90565b6106cd338383610def565b5050565b6106db3383610baf565b6106f75760405162461bcd60e51b815260040161045590611bcb565b61070384848484610ebe565b50505050565b6000818152600260205260409020546060906001600160a01b03166107695760405162461bcd60e51b8152602060048201526016602482015275151bdad95b925108191bd95cc81b9bdd08195e1a5cdd60521b6044820152606401610455565b600754604051632d506fe160e01b815260006004820181905260248201859052916001600160a01b031690632d506fe190604401602060405180830381865afa1580156107ba573d6000803e3d6000fd5b505050506040513d601f19601f820116820180604052508101906107de9190611c56565b600754604051632d506fe160e01b815260016004820152602481018690529192506000916001600160a01b0390911690632d506fe190604401602060405180830381865afa158015610834573d6000803e3d6000fd5b505050506040513d601f19601f820116820180604052508101906108589190611c56565b600754604051632d506fe160e01b815260026004820152602481018790529192506000916001600160a01b0390911690632d506fe190604401602060405180830381865afa1580156108ae573d6000803e3d6000fd5b505050506040513d601f19601f820116820180604052508101906108d29190611c56565b600754604051632d506fe160e01b815260036004820152602481018890529192506000916001600160a01b0390911690632d506fe190604401602060405180830381865afa158015610928573d6000803e3d6000fd5b505050506040513d601f19601f8201168201806040525081019061094c9190611c56565b600754604051632d506fe160e01b8152600480820152602481018990529192506000916001600160a01b0390911690632d506fe190604401602060405180830381865afa1580156109a1573d6000803e3d6000fd5b505050506040513d601f19601f820116820180604052508101906109c59190611c56565b905060006109d1610327565b6109da89610ef1565b6040516020016109eb929190611c8b565b604051602081830303815290604052905080604051602001610a0d9190611cee565b604051602081830303815290604052905080610a2883610ef1565b610a3185610ef1565b610a3a87610ef1565b610a4389610ef1565b610a4c8b610ef1565b604051602001610a6196959493929190611d2f565b6040516020818303038152906040529050610ab081610a8b610a868989898989610fef565b61145f565b604051602001610a9c929190611eff565b60405160208183030381529060405261145f565b905080604051602001610ac39190611f79565b6040516020818303038152906040529650505050505050919050565b6000818152600260205260409020546001600160a01b0316610b3e5760405162461bcd60e51b8152602060048201526018602482015277115490cdcc8c4e881a5b9d985b1a59081d1bdad95b88125160421b6044820152606401610455565b50565b600081815260046020526040902080546001600160a01b0319166001600160a01b0384169081179091558190610b7682610547565b6001600160a01b03167f8c5be1e5ebec7d5bd14f71427d1e84f3dd0314c0f7b2291e5b200ac8c7c3b92560405160405180910390a45050565b600080610bbb83610547565b9050806001600160a01b0316846001600160a01b03161480610c0257506001600160a01b0380821660009081526005602090815260408083209388168352929052205460ff165b80610c265750836001600160a01b0316610c1b846103b9565b6001600160a01b0316145b949350505050565b826001600160a01b0316610c4182610547565b6001600160a01b031614610ca55760405162461bcd60e51b815260206004820152602560248201527f4552433732313a207472616e736665722066726f6d20696e636f72726563742060448201526437bbb732b960d91b6064820152608401610455565b6001600160a01b038216610d075760405162461bcd60e51b8152602060048201526024808201527f4552433732313a207472616e7366657220746f20746865207a65726f206164646044820152637265737360e01b6064820152608401610455565b610d128383836115c7565b610d1d600082610b41565b6001600160a01b0383166000908152600360205260408120805460019290610d46908490611fbe565b90915550506001600160a01b0382166000908152600360205260408120805460019290610d74908490611fd5565b909155505060008181526002602052604080822080546001600160a01b0319166001600160a01b0386811691821790925591518493918716917fddf252ad1be2c89b69c2b068fc378daa952ba7f163c4a11628f55a4df523b3ef91a4505050565b6106cd82826040518060200160405280600081525061162d565b816001600160a01b0316836001600160a01b03161415610e515760405162461bcd60e51b815260206004820152601960248201527f4552433732313a20617070726f766520746f2063616c6c6572000000000000006044820152606401610455565b6001600160a01b03838116600081815260056020908152604080832094871680845294825291829020805460ff191686151590811790915591519182527f17307eab39ab6107e8899845ad3d59bd9653f200f220920489ca2b5937696c31910160405180910390a3505050565b610ec9848484610c2e565b610ed584848484611660565b6107035760405162461bcd60e51b815260040161045590611fed565b606081610f155750506040805180820190915260018152600360fc1b602082015290565b8160005b8115610f3f5780610f298161203f565b9150610f389050600a83612070565b9150610f19565b60008167ffffffffffffffff811115610f5a57610f5a611a43565b6040519080825280601f01601f191660200182016040528015610f84576020820181803683370190505b5090505b8415610c2657610f99600183611fbe565b9150610fa6600a86612084565b610fb1906030611fd5565b60f81b818381518110610fc657610fc6612098565b60200101906001600160f81b031916908160001a905350610fe8600a86612070565b9450610f88565b60606000600660009054906101000a90046001600160a01b03166001600160a01b031663b14be81c6040518163ffffffff1660e01b8152600401600060405180830381865afa158015611046573d6000803e3d6000fd5b505050506040513d6000823e601f3d908101601f1916820160405261106e91908101906120ae565b6006546040516313b95bbb60e11b8152600481018a90529192506000916001600160a01b0390911690632772b77690602401600060405180830381865afa1580156110bd573d6000803e3d6000fd5b505050506040513d6000823e601f3d908101601f191682016040526110e591908101906120ae565b60065460405163f319028160e01b8152600481018a90529192506000916001600160a01b039091169063f319028190602401600060405180830381865afa158015611134573d6000803e3d6000fd5b505050506040513d6000823e601f3d908101601f1916820160405261115c91908101906120ae565b600654604051637e55647160e01b8152600481018a90529192506000916001600160a01b0390911690637e55647190602401600060405180830381865afa1580156111ab573d6000803e3d6000fd5b505050506040513d6000823e601f3d908101601f191682016040526111d391908101906120ae565b60065460405163640ae2ed60e01b8152600481018a90529192506000916001600160a01b039091169063640ae2ed90602401600060405180830381865afa158015611222573d6000803e3d6000fd5b505050506040513d6000823e601f3d908101601f1916820160405261124a91908101906120ae565b6006546040516305ad682d60e31b8152600481018a90529192506000916001600160a01b0390911690632d6b416890602401600060405180830381865afa158015611299573d6000803e3d6000fd5b505050506040513d6000823e601f3d908101601f191682016040526112c191908101906120ae565b9050600060086000815481106112d9576112d9612098565b9060005260206000200160086001815481106112f7576112f7612098565b9060005260206000200188600860028154811061131657611316612098565b9060005260206000200160405160200161133394939291906121bf565b60405160208183030381529060405290508086600860038154811061135a5761135a612098565b90600052602060002001604051602001611376939291906121fc565b60405160208183030381529060405290508085600860048154811061139d5761139d612098565b906000526020600020018660086005815481106113bc576113bc612098565b906000526020600020016040516020016113da959493929190612239565b60405160208183030381529060405290508083600860068154811061140157611401612098565b9060005260206000200184600860078154811061142057611420612098565b9060005260206000200160405160200161143e959493929190612239565b60408051808303601f190181529190529d9c50505050505050505050505050565b606081516000141561147f57505060408051602081019091526000815290565b600060405180606001604052806040815260200161230460409139905060006003845160026114ae9190611fd5565b6114b89190612070565b6114c390600461228a565b905060006114d2826020611fd5565b67ffffffffffffffff8111156114ea576114ea611a43565b6040519080825280601f01601f191660200182016040528015611514576020820181803683370190505b509050818152600183018586518101602084015b818310156115825760039283018051603f601282901c811687015160f890811b8552600c83901c8216880151811b6001860152600683901c8216880151811b60028601529116860151901b93820193909352600401611528565b60038951066001811461159c57600281146115ad576115b9565b613d3d60f01b6001198301526115b9565b603d60f81b6000198301525b509398975050505050505050565b6001600160a01b038316156104f65760405162461bcd60e51b815260206004820152602660248201527f4552433732313a207472616e736665722066726f6d206e6f6e2d7a65726f206160448201526564647265737360d01b6064820152608401610455565b611637838361175e565b6116446000848484611660565b6104f65760405162461bcd60e51b815260040161045590611fed565b60006001600160a01b0384163b1561175357604051630a85bd0160e11b81526001600160a01b0385169063150b7a02906116a49033908990889088906004016122a9565b6020604051808303816000875af19250505080156116df575060408051601f3d908101601f191682019092526116dc918101906122e6565b60015b611739573d80801561170d576040519150601f19603f3d011682016040523d82523d6000602084013e611712565b606091505b5080516117315760405162461bcd60e51b815260040161045590611fed565b805181602001fd5b6001600160e01b031916630a85bd0160e11b149050610c26565b506001949350505050565b6001600160a01b0382166117b45760405162461bcd60e51b815260206004820181905260248201527f4552433732313a206d696e7420746f20746865207a65726f20616464726573736044820152606401610455565b6000818152600260205260409020546001600160a01b0316156118195760405162461bcd60e51b815260206004820152601c60248201527f4552433732313a20746f6b656e20616c7265616479206d696e746564000000006044820152606401610455565b611825600083836115c7565b6001600160a01b038216600090815260036020526040812080546001929061184e908490611fd5565b909155505060008181526002602052604080822080546001600160a01b0319166001600160a01b03861690811790915590518392907fddf252ad1be2c89b69c2b068fc378daa952ba7f163c4a11628f55a4df523b3ef908290a45050565b6001600160e01b031981168114610b3e57600080fd5b6000602082840312156118d457600080fd5b81356118df816118ac565b9392505050565b60005b838110156119015781810151838201526020016118e9565b838111156107035750506000910152565b6000815180845261192a8160208601602086016118e6565b601f01601f19169290920160200192915050565b6020815260006118df6020830184611912565b60006020828403121561196357600080fd5b5035919050565b80356001600160a01b038116811461198157600080fd5b919050565b6000806040838503121561199957600080fd5b6119a28361196a565b946020939093013593505050565b6000806000606084860312156119c557600080fd5b6119ce8461196a565b92506119dc6020850161196a565b9150604084013590509250925092565b6000602082840312156119fe57600080fd5b6118df8261196a565b60008060408385031215611a1a57600080fd5b611a238361196a565b915060208301358015158114611a3857600080fd5b809150509250929050565b634e487b7160e01b600052604160045260246000fd5b604051601f8201601f1916810167ffffffffffffffff81118282101715611a8257611a82611a43565b604052919050565b600067ffffffffffffffff821115611aa457611aa4611a43565b50601f01601f191660200190565b60008060008060808587031215611ac857600080fd5b611ad18561196a565b9350611adf6020860161196a565b925060408501359150606085013567ffffffffffffffff811115611b0257600080fd5b8501601f81018713611b1357600080fd5b8035611b26611b2182611a8a565b611a59565b818152886020838501011115611b3b57600080fd5b8160208401602083013760006020838301015280935050505092959194509250565b60008060408385031215611b7057600080fd5b611b798361196a565b9150611b876020840161196a565b90509250929050565b600181811c90821680611ba457607f821691505b60208210811415611bc557634e487b7160e01b600052602260045260246000fd5b50919050565b6020808252602e908201527f4552433732313a2063616c6c6572206973206e6f7420746f6b656e206f776e6560408201526d1c881b9bdc88185c1c1c9bdd995960921b606082015260800190565b634e487b7160e01b600052601160045260246000fd5b60006001600160801b0380831681811415611c4c57611c4c611c19565b6001019392505050565b600060208284031215611c6857600080fd5b5051919050565b60008151611c818185602086016118e6565b9290920192915050565b693d913730b6b2911d101160b11b81528251600090611cb181600a8501602088016118e6565b61011960f51b600a918401918201528351611cd381600c8401602088016118e6565b61088b60f21b600c9290910191820152600e01949350505050565b60008251611d008184602087016118e6565b7f226465736372697074696f6e223a202247697633204e465421222c0000000000920191825250601b01919050565b60008751611d41818460208c016118e6565b80830190507f2261747472696275746573223a205b7b2274726169745f74797065223a20224881526e30ba111610113b30b63ab2911d101160891b60208201528751611d9481602f840160208c016118e6565b62089f4b60ea1b602f929091019182018190527f7b2274726169745f74797065223a20225370656373222c202276616c7565223a603283015261101160f11b60528301528751611deb816054850160208c016118e6565b6054920191820152611ef2611ee2611edc611ea8611e9a611e94611e5e611e4f611e4960578a017f7b2274726169745f74797065223a20224e65636b6c616365222c202276616c7581526432911d101160d91b602082015260250190565b8e611c6f565b62089f4b60ea1b815260030190565b7f7b2274726169745f74797065223a2022436c6f74686573222c202276616c7565815263111d101160e11b602082015260240190565b8a611c6f565b61227d60f01b815260020190565b7f7b2274726169745f74797065223a202253686f6573222c202276616c7565223a815261101160f11b602082015260220190565b86611c6f565b63089f574b60e21b815260040190565b9998505050505050505050565b60008351611f118184602088016118e6565b80830190507f22696d6167655f64617461223a2022646174613a696d6167652f7376672b786d8152681b0ed8985cd94d8d0b60ba1b60208201528351611f5e8160298401602088016118e6565b61227d60f01b60299290910191820152602b01949350505050565b7f646174613a6170706c69636174696f6e2f6a736f6e3b6261736536342c000000815260008251611fb181601d8501602087016118e6565b91909101601d0192915050565b600082821015611fd057611fd0611c19565b500390565b60008219821115611fe857611fe8611c19565b500190565b60208082526032908201527f4552433732313a207472616e7366657220746f206e6f6e20455243373231526560408201527131b2b4bb32b91034b6b83632b6b2b73a32b960711b606082015260800190565b600060001982141561205357612053611c19565b5060010190565b634e487b7160e01b600052601260045260246000fd5b60008261207f5761207f61205a565b500490565b6000826120935761209361205a565b500690565b634e487b7160e01b600052603260045260246000fd5b6000602082840312156120c057600080fd5b815167ffffffffffffffff8111156120d757600080fd5b8201601f810184136120e857600080fd5b80516120f6611b2182611a8a565b81815285602083850101111561210b57600080fd5b61211c8260208301602086016118e6565b95945050505050565b8054600090600181811c908083168061213f57607f831692505b602080841082141561216157634e487b7160e01b600052602260045260246000fd5b8180156121755760018114612186576121b3565b60ff198616895284890196506121b3565b60008881526020902060005b868110156121ab5781548b820152908501908301612192565b505084890196505b50505050505092915050565b60006121d46121ce8388612125565b86612125565b84516121e48183602089016118e6565b6121f081830186612125565b98975050505050505050565b6000845161220e8184602089016118e6565b8451908301906122228183602089016118e6565b61222e81830186612125565b979650505050505050565b6000865161224b818460208b016118e6565b86519083019061225f818360208b016118e6565b61226b81830188612125565b915050845161227e8183602089016118e6565b611ef281830186612125565b60008160001904831182151516156122a4576122a4611c19565b500290565b6001600160a01b03858116825284166020820152604081018390526080606082018190526000906122dc90830184611912565b9695505050505050565b6000602082840312156122f857600080fd5b81516118df816118ac56fe4142434445464748494a4b4c4d4e4f505152535455565758595a6162636465666768696a6b6c6d6e6f707172737475767778797a303132333435363738392b2fa26469706673582212209755269ec3fbeb339fd80264d7e55fb3af1f6a0eaa7c7e558b4f191d9647246964736f6c634300080a00333c7376672077696474683d223130302522206865696768743d2231303025222076657273696f6e3d22312e31222076696577426f783d2230203020353630203536302220786d6c6e733d22687474703a2f2f7777772e77332e6f72672f323030302f7376672220786d6c6e733a786c696e6b3d22687474703a2f2f7777772e77332e6f72672f313939392f786c696e6b223e222f3e203c696d6167652077696474683d2235363022206865696768743d223536302220696d6167652d72656e646572696e673d22706978656c6174656422207072657365727665417370656374526174696f3d22784d6964594d69642220786c696e6b3a687265663d22223c696d6167652077696474683d2235363022206865696768743d223536302220696d6167652d72656e646572696e673d22706978656c6174656422207072657365727665417370656374526174696f3d22784d6964594d69642220786c696e6b3a687265663d22",
  "devdoc": {
    "kind": "dev",
    "methods": {
      "approve(address,uint256)": {
        "details": "See {IERC721-approve}."
      },
      "balanceOf(address)": {
        "details": "See {IERC721-balanceOf}."
      },
      "getApproved(uint256)": {
        "details": "See {IERC721-getApproved}."
      },
      "isApprovedForAll(address,address)": {
        "details": "See {IERC721-isApprovedForAll}."
      },
      "name()": {
        "details": "See {IERC721Metadata-name}."
      },
      "ownerOf(uint256)": {
        "details": "See {IERC721-ownerOf}."
      },
      "safeTransferFrom(address,address,uint256)": {
        "details": "See {IERC721-safeTransferFrom}."
      },
      "safeTransferFrom(address,address,uint256,bytes)": {
        "details": "See {IERC721-safeTransferFrom}."
      },
      "setApprovalForAll(address,bool)": {
        "details": "See {IERC721-setApprovalForAll}."
      },
      "supportsInterface(bytes4)": {
        "details": "See {IERC165-supportsInterface}."
      },
      "symbol()": {
        "details": "See {IERC721Metadata-symbol}."
      },
      "tokenURI(uint256)": {
        "details": "See {IERC721Metadata-tokenURI}."
      },
      "totalSupply()": {
        "returns": {
          "_0": "Current Total Supply"
        }
      },
      "transferFrom(address,address,uint256)": {
        "details": "See {IERC721-transferFrom}."
      }
    },
    "version": 1
  },
  "userdoc": {
    "kind": "user",
    "methods": {
      "totalSupply()": {
        "notice": "Get Total Supply of Tokens Minted"
      }
    },
    "version": 1
  },
  "storageLayout": {
    "storage": [
      {
        "astId": 867,
        "contract": "contracts/Giv3AvatarNFT.sol:Giv3AvatarNFT",
        "label": "_name",
        "offset": 0,
        "slot": "0",
        "type": "t_string_storage"
      },
      {
        "astId": 869,
        "contract": "contracts/Giv3AvatarNFT.sol:Giv3AvatarNFT",
        "label": "_symbol",
        "offset": 0,
        "slot": "1",
        "type": "t_string_storage"
      },
      {
        "astId": 873,
        "contract": "contracts/Giv3AvatarNFT.sol:Giv3AvatarNFT",
        "label": "_owners",
        "offset": 0,
        "slot": "2",
        "type": "t_mapping(t_uint256,t_address)"
      },
      {
        "astId": 877,
        "contract": "contracts/Giv3AvatarNFT.sol:Giv3AvatarNFT",
        "label": "_balances",
        "offset": 0,
        "slot": "3",
        "type": "t_mapping(t_address,t_uint256)"
      },
      {
        "astId": 881,
        "contract": "contracts/Giv3AvatarNFT.sol:Giv3AvatarNFT",
        "label": "_tokenApprovals",
        "offset": 0,
        "slot": "4",
        "type": "t_mapping(t_uint256,t_address)"
      },
      {
        "astId": 887,
        "contract": "contracts/Giv3AvatarNFT.sol:Giv3AvatarNFT",
        "label": "_operatorApprovals",
        "offset": 0,
        "slot": "5",
        "type": "t_mapping(t_address,t_mapping(t_address,t_bool))"
      },
      {
        "astId": 2524,
        "contract": "contracts/Giv3AvatarNFT.sol:Giv3AvatarNFT",
        "label": "DYNAMIC_IMAGE_STORAGE",
        "offset": 0,
        "slot": "6",
        "type": "t_contract(IImageStorage)4838"
      },
      {
        "astId": 2527,
        "contract": "contracts/Giv3AvatarNFT.sol:Giv3AvatarNFT",
        "label": "GIV3_CORE",
        "offset": 0,
        "slot": "7",
        "type": "t_contract(IGiv3Core)4736"
      },
      {
        "astId": 2539,
        "contract": "contracts/Giv3AvatarNFT.sol:Giv3AvatarNFT",
        "label": "z",
        "offset": 0,
        "slot": "8",
        "type": "t_array(t_string_storage)dyn_storage"
      },
      {
        "astId": 2541,
        "contract": "contracts/Giv3AvatarNFT.sol:Giv3AvatarNFT",
        "label": "_currentIndex",
        "offset": 0,
        "slot": "9",
        "type": "t_uint128"
      },
      {
        "astId": 2545,
        "contract": "contracts/Giv3AvatarNFT.sol:Giv3AvatarNFT",
        "label": "tokenMapping",
        "offset": 0,
        "slot": "10",
        "type": "t_mapping(t_address,t_uint256)"
      }
    ],
    "types": {
      "t_address": {
        "encoding": "inplace",
        "label": "address",
        "numberOfBytes": "20"
      },
      "t_array(t_string_storage)dyn_storage": {
        "base": "t_string_storage",
        "encoding": "dynamic_array",
        "label": "string[]",
        "numberOfBytes": "32"
      },
      "t_bool": {
        "encoding": "inplace",
        "label": "bool",
        "numberOfBytes": "1"
      },
      "t_contract(IGiv3Core)4736": {
        "encoding": "inplace",
        "label": "contract IGiv3Core",
        "numberOfBytes": "20"
      },
      "t_contract(IImageStorage)4838": {
        "encoding": "inplace",
        "label": "contract IImageStorage",
        "numberOfBytes": "20"
      },
      "t_mapping(t_address,t_bool)": {
        "encoding": "mapping",
        "key": "t_address",
        "label": "mapping(address => bool)",
        "numberOfBytes": "32",
        "value": "t_bool"
      },
      "t_mapping(t_address,t_mapping(t_address,t_bool))": {
        "encoding": "mapping",
        "key": "t_address",
        "label": "mapping(address => mapping(address => bool))",
        "numberOfBytes": "32",
        "value": "t_mapping(t_address,t_bool)"
      },
      "t_mapping(t_address,t_uint256)": {
        "encoding": "mapping",
        "key": "t_address",
        "label": "mapping(address => uint256)",
        "numberOfBytes": "32",
        "value": "t_uint256"
      },
      "t_mapping(t_uint256,t_address)": {
        "encoding": "mapping",
        "key": "t_uint256",
        "label": "mapping(uint256 => address)",
        "numberOfBytes": "32",
        "value": "t_address"
      },
      "t_string_storage": {
        "encoding": "bytes",
        "label": "string",
        "numberOfBytes": "32"
      },
      "t_uint128": {
        "encoding": "inplace",
        "label": "uint128",
        "numberOfBytes": "16"
      },
      "t_uint256": {
        "encoding": "inplace",
        "label": "uint256",
        "numberOfBytes": "32"
      }
    }
  }
}