{
  "address": "0xa018A6FE9419DB3De366Ac7fB0a3e5886D9FFd78",
  "abi": [
    {
      "inputs": [],
      "stateMutability": "nonpayable",
      "type": "constructor"
    },
    {
      "inputs": [
        {
          "internalType": "uint256",
          "name": "",
          "type": "uint256"
        }
      ],
      "name": "clothes",
      "outputs": [
        {
          "internalType": "string",
          "name": "",
          "type": "string"
        }
      ],
      "stateMutability": "view",
      "type": "function"
    },
    {
      "inputs": [],
      "name": "getBody",
      "outputs": [
        {
          "internalType": "string",
          "name": "",
          "type": "string"
        }
      ],
      "stateMutability": "view",
      "type": "function"
    },
    {
      "inputs": [
        {
          "internalType": "uint256",
          "name": "collectionIndex",
          "type": "uint256"
        },
        {
          "internalType": "uint256",
          "name": "imageIndex",
          "type": "uint256"
        }
      ],
      "name": "getImageForCollection",
      "outputs": [
        {
          "internalType": "string",
          "name": "",
          "type": "string"
        }
      ],
      "stateMutability": "view",
      "type": "function"
    },
    {
      "inputs": [
        {
          "internalType": "uint256",
          "name": "_index",
          "type": "uint256"
        }
      ],
      "name": "getLayer1",
      "outputs": [
        {
          "internalType": "string",
          "name": "",
          "type": "string"
        }
      ],
      "stateMutability": "view",
      "type": "function"
    },
    {
      "inputs": [
        {
          "internalType": "uint256",
          "name": "_index",
          "type": "uint256"
        }
      ],
      "name": "getLayer2",
      "outputs": [
        {
          "internalType": "string",
          "name": "",
          "type": "string"
        }
      ],
      "stateMutability": "view",
      "type": "function"
    },
    {
      "inputs": [
        {
          "internalType": "uint256",
          "name": "_index",
          "type": "uint256"
        }
      ],
      "name": "getLayer3",
      "outputs": [
        {
          "internalType": "string",
          "name": "",
          "type": "string"
        }
      ],
      "stateMutability": "view",
      "type": "function"
    },
    {
      "inputs": [
        {
          "internalType": "uint256",
          "name": "_index",
          "type": "uint256"
        }
      ],
      "name": "getLayer4",
      "outputs": [
        {
          "internalType": "string",
          "name": "",
          "type": "string"
        }
      ],
      "stateMutability": "view",
      "type": "function"
    },
    {
      "inputs": [
        {
          "internalType": "uint256",
          "name": "_index",
          "type": "uint256"
        }
      ],
      "name": "getLayer5",
      "outputs": [
        {
          "internalType": "string",
          "name": "",
          "type": "string"
        }
      ],
      "stateMutability": "view",
      "type": "function"
    },
    {
      "inputs": [
        {
          "internalType": "uint256",
          "name": "",
          "type": "uint256"
        }
      ],
      "name": "glasses",
      "outputs": [
        {
          "internalType": "string",
          "name": "",
          "type": "string"
        }
      ],
      "stateMutability": "view",
      "type": "function"
    },
    {
      "inputs": [
        {
          "internalType": "uint256",
          "name": "",
          "type": "uint256"
        }
      ],
      "name": "hat",
      "outputs": [
        {
          "internalType": "string",
          "name": "",
          "type": "string"
        }
      ],
      "stateMutability": "view",
      "type": "function"
    },
    {
      "inputs": [
        {
          "internalType": "uint256",
          "name": "",
          "type": "uint256"
        }
      ],
      "name": "necklace",
      "outputs": [
        {
          "internalType": "string",
          "name": "",
          "type": "string"
        }
      ],
      "stateMutability": "view",
      "type": "function"
    },
    {
      "inputs": [
        {
          "internalType": "uint256",
          "name": "",
          "type": "uint256"
        }
      ],
      "name": "shoes",
      "outputs": [
        {
          "internalType": "string",
          "name": "",
          "type": "string"
        }
      ],
      "stateMutability": "view",
      "type": "function"
    }
  ],
  "transactionHash": "0xd87bf446d9ce83c5f0fd8a298769aac0333484ed398ffc6543fd1f69e9d6368c",
  "args": [],
  "numDeployments": 1,
  "solcInputHash": "40a8194097e86e97670a4fd9003e02c2",
  "bytecode": "0x60806040523480156200001157600080fd5b50604051806103c0016040528061038a81526020016200416561038a9139600080526003602090815281516200006b927f3617319a054d772f909f7c479a2cebe5066e836a939412e32403c99029b92eff92019062000457565b50604051806103c0016040528061038a815260200162000a8561038a91396001600052600360209081528151620000c6927fa15bc60c955c405d20d9149c709e2460f1c2d9a497496a7f46004d1772c3054c92019062000457565b50604051806103c0016040528061038a815260200162002dcf61038a9139600260005260036020908152815162000121927fc3a24b0501bd2c13a7e57f2db4369ec4c223447539fc0724a9d55ac4a06ebd4d92019062000457565b5060405180610c600160405280610c268152602001620048a9610c269139600080526004602090815281516200017b927f17ef568e3e12ab5b9c7254a8d58478811de00f9e6eb34345acd53bf8fd09d3ec92019062000457565b5060405180610c600160405280610c26815260200162000e0f610c2691396001600052600460209081528151620001d6927fabd6e7cb50984ff9c2f3e18a2660c3353dadf4e3291deeb275dae2cd1e44fe0592019062000457565b5060405180610c600160405280610c26815260200162001def610c269139600260005260046020908152815162000231927f91da3fd0782e51c6b3986e9e672fd566868e71f3dbc2d6c2cd6fbb3e361af2a792019062000457565b506040518061084001604052806108068152602001620031596108069139600080526002602090815281516200028b927fac33ff75c19e70fe83507db0d683fd3465c996598dc972688b7ace676c89077b92019062000457565b506040518061084001604052806108068152602001620054cf61080691396001600052600260209081528151620002e6927fe90b7bceb6e7df5418fb78d8ee546e97c83a08bbccc01a0644d599ccd2a7c2e092019062000457565b5060405180610840016040528061080681526020016200395f6108069139600260008190526020908152815162000341927f679795a0195a1b76cdebb7c51d74e058aee92919b8c3389af86ef24535e8a28c92019062000457565b50604051806103e001604052806103ba815260200162002a156103ba91396000808052602090815281516200039a927fad3228b676f7d3cd4284a5443f17f1962b36e491b30a40b2405849e597ba5fb592019062000457565b50604051806103e001604052806103ba815260200162001a356103ba91396001600090815260209081528151620003f5927fada5013122d395ba3c54772283fb069b10426056ef8ca54750cb9bb552a59e7d92019062000457565b50604051806103e001604052806103ba8152602001620044ef6103ba9139600260009081526020908152815162000450927fabbb5caa7dda850e60932de0934eb1f9d0f59695050f761dc64e443e5030a56992019062000457565b506200053a565b8280546200046590620004fd565b90600052602060002090601f016020900481019282620004895760008555620004d4565b82601f10620004a457805160ff1916838001178555620004d4565b82800160010185558215620004d4579182015b82811115620004d4578251825591602001919060010190620004b7565b50620004e2929150620004e6565b5090565b5b80821115620004e25760008155600101620004e7565b600181811c908216806200051257607f821691505b602082108114156200053457634e487b7160e01b600052602260045260246000fd5b50919050565b61053b806200054a6000396000f3fe608060405234801561001057600080fd5b50600436106100b45760003560e01c80639518c227116100715780639518c22714610141578063b14be81c14610154578063b982d1b914610168578063ccf11cbe1461017b578063e1bf8c511461018e578063f3190281146101a157600080fd5b80632772b776146100b95780632d6b4168146100e25780635ca6bec5146100f5578063607473cf14610108578063640ae2ed1461011b5780637e5564711461012e575b600080fd5b6100cc6100c736600461043a565b6101c2565b6040516100d99190610453565b60405180910390f35b6100cc6100f036600461043a565b610264565b6100cc61010336600461043a565b610281565b6100cc61011636600461043a565b61031b565b6100cc61012936600461043a565b610334565b6100cc61013c36600461043a565b610351565b6100cc61014f3660046104a8565b61036e565b6040805160208101909152600081526100cc565b6100cc61017636600461043a565b6103ef565b6100cc61018936600461043a565b610408565b6100cc61019c36600461043a565b610421565b6100cc6101af36600461043a565b5060408051602081019091526000815290565b60008181526020819052604090208054606091906101df906104ca565b80601f016020809104026020016040519081016040528092919081815260200182805461020b906104ca565b80156102585780601f1061022d57610100808354040283529160200191610258565b820191906000526020600020905b81548152906001019060200180831161023b57829003601f168201915b50505050509050919050565b60008181526004602052604090208054606091906101df906104ca565b6004602052600090815260409020805461029a906104ca565b80601f01602080910402602001604051908101604052809291908181526020018280546102c6906104ca565b80156103135780601f106102e857610100808354040283529160200191610313565b820191906000526020600020905b8154815290600101906020018083116102f657829003601f168201915b505050505081565b6000602081905290815260409020805461029a906104ca565b60008181526003602052604090208054606091906101df906104ca565b60008181526002602052604090208054606091906101df906104ca565b6060826103855761037e826101c2565b90506103e9565b82600114156103a25760408051602081019091526000815261037e565b82600214156103b45761037e82610351565b82600314156103c65761037e82610334565b82600414156103d85761037e82610264565b506040805160208101909152600081525b92915050565b6003602052600090815260409020805461029a906104ca565b6002602052600090815260409020805461029a906104ca565b6001602052600090815260409020805461029a906104ca565b60006020828403121561044c57600080fd5b5035919050565b600060208083528351808285015260005b8181101561048057858101830151858201604001528201610464565b81811115610492576000604083870101525b50601f01601f1916929092016040019392505050565b600080604083850312156104bb57600080fd5b50508035926020909101359150565b600181811c908216806104de57607f821691505b602082108114156104ff57634e487b7160e01b600052602260045260246000fd5b5091905056fea264697066735822122024ab6d60da1dd5d3707762da0884e68c6f7e100af7ee3e57ff196ea0909bfd8f64736f6c634300080a0033646174613a696d6167652f7376672b786d6c3b6261736536342c50484e325a79423361575230614430694d5451314969426f5a576c6e61485139496a59314969426d6157787350534a756232356c4969423462577875637a30696148523063446f764c336433647935334d793576636d63764d6a41774d43397a646d6369506a78775958526f49475a7062477774636e56735a5430695a585a6c626d396b5a43496759327870634331796457786c50534a6c646d56756232526b4969426b50534a4e4d7a49754e5341324e554d314d4334304e5341324e5341324e5341314d4334304e5341324e53417a4d693431597a41744d53347a4e5459744c6a41344d7930794c6a59354d7930754d6a51304c5451754d444131624334304e5463744c6a45354e6d45784f4341784f434177494441674d5341784e4334304e7a63754d544e734c6a557a4d7934794e45457a4d6934344e5455674d7a49754f445531494441674d4341774944677749444d794c6a56444f4441674e5441754e4455674f5451754e5455674e6a55674d5445794c6a55674e6a566a4d5463754f545135494441674d7a49754e5330784e4334314e53417a4d6934314c544d794c6a56544d544d774c6a51304f534177494445784d693431494442444f5463754d6a5935494441674f4451754e446730494445774c6a51334f4341344d4334354e6a49674d6a51754e6a45355154497949444979494441674d43417749445930494449304c6a5133517a59774c6a51794e7941784d4334304d4455674e4463754e6a6334494441674d7a49754e534177494445304c6a5531494441674d4341784e4334314e53417749444d794c6a56544d5451754e5455674e6a55674d7a49754e5341324e5870744d433031517a51334c6a59344f4341324d4341324d4341304e7934324f4467674e6a41674d7a49754e564d304e7934324f4467674e53417a4d693431494455674e5341784e79347a4d5449674e53417a4d693431494445334c6a4d784d6941324d43417a4d69343149445977656d30344d434177597a45314c6a45344f434177494449334c6a55744d5449754d7a4579494449334c6a55744d6a63754e564d784d6a63754e6a6734494455674d5445794c6a55674e5341344e5341784e79347a4d5449674f4455674d7a49754e5341354e79347a4d5449674e6a41674d5445794c6a55674e6a42364969426d615778735053496a4f454644524556424969382b5043397a646d632b646174613a696d6167652f7376672b786d6c3b6261736536342c50484e325a79423361575230614430694d5441774969426f5a576c6e61485139496a67324969426d6157787350534a756232356c4969423462577875637a30696148523063446f764c336433647935334d793576636d63764d6a41774d43397a646d6369506a78775958526f49475a7062477774636e56735a5430695a585a6c626d396b5a43496759327870634331796457786c50534a6c646d56756232526b4969426b50534a4e4d6a59754d54513449446b754d444d7a517a49324c6a45334f4341304c6a41324d7941794d7934334d7a67754d444534494449774c6a63674d474d744d7934774d7a63744c6a41784f4330314c6a55794e43417a4c6a6b354e7930314c6a55314d7941344c6a6b324e7930754d4441314c6a67794e5334774e5467674d5334324d6a51754d5467674d69347a4f4452684d544d754d7a67304944457a4c6a4d344e434177494441674d4330754d5445304c5334784d544a444d5445754e6a55674e7934334e7a55674e7934774e4451674e6934334d7a4d674e4334354d6a63674f4334354d544a6a4c5449754d544533494449754d5463344c5334354e444d674e6934334e5449674d6934324d6a49674d5441754d6a4532595445304c6a5133494445304c6a5133494441674d434177494445754f444132494445754e446b31597930754f5467794c6a45344e6930784c6a6b354f4334304f5459744d7934774d446b754f544d324c5451754e545533494445754f54677a4c5463754d6a63674e5334344e5330324c6a41314e7941344c6a597a4e5341784c6a49784d6941794c6a63344e5341314c6a673549444d754e444d31494445774c6a51304e7941784c6a51314d5745784e4334784d7a55674d5451754d544d31494441674d434177494449754f4455344c5445754e6a5531494445304c6a49354d6941784e4334794f5449674d434177494441744d5334794e5463674d6934324d574d744d5334334d4449674e4334324e7930754e7a593449446b754d6a6b34494449754d446732494445774c6a4d7a4f4341794c6a67314e4341784c6a4130494459754e5451334c5445754f544179494467754d6a51354c5459754e5463794c6a45334d7930754e4463324c6a4d784f5330754f5455784c6a517a4f4330784c6a51794d6934784e7a4d754e6a51754d7a6b33494445754d6a67344c6a59334e4341784c6a6b7a4e4341784c6a6b314e6941304c6a5533494455754f444132494463754d7a4131494467754e546b34494459754d5445674d69347a4f5463744d5334774d6a63674d7934794d7a59744e4334324d5451674d6934784f446b744f4334304f546b674e4334334e7941784c6a59774e5341784d4334774f5455674e4334314e4459674d5451754e6a453249446b754d7a5131494459754f4341334c6a49784f4341784d6934784d6a55674d546b754d444132494445774c6a55794f43417a4e7934344d6a68684e434130494441674d434177494463754f5463784c6a59334e6d4d784c6a63324d7930794d4334334e7a49744e4334784d5449744d7a51754f5330784d6934324e7a63744e444d754f546c684e444d754e6a637a4944517a4c6a59334d794177494441674d4330784d7934794f4330354c6a55354d6d4d794c6a41314d6930784c6a41774f43417a4c6a4d324e5330794c6a55314e53417a4c6a4d324e5330304c6a49344f5341774c544d754d444d334c5451754d444d744e5334314c546b744e5334314c5334334d444d674d4330784c6a4d344e7934774e5330794c6a41304d7934784e444d754d7a67324c5334794f5459754e7a59314c5334324d5463674d5334784d7a51744c6a6b324d79417a4c6a59794d79307a4c6a51774d7941304c6a67334e5330334c6a6b314e6941794c6a63354e5330784d4334784e7930794c6a41334f5330794c6a49784e5330324c6a63774d6930784c6a49314d5330784d43347a4d6a55674d6934784e5446684d5451754d6a6732494445304c6a49344e694177494441674d4330784c6a6b774e4341794c6a45344d324d754d6a55744d5334774d5455754d7a6b744d6934784d69347a4f5459744d7934794e7a6836625330794c6a457a4e4341334c6a41314d5330754d444d754d545179595455754f445130494455754f445130494441674d4341774c5334774e6a67744c6a4179624334774f5467744c6a45794d6e6f6949475a706247773949694d324d5555334f4459694c7a3438634746306143426d615778734c584a3162475539496d56325a5735765a47516949474e7361584174636e56735a5430695a585a6c626d396b5a4349675a443069545467314c6a59344d6941794e4334304e6d4d754d4449784c544d754e5455314c5445754e7a497a4c5459754e4451334c544d754f446b314c5459754e4459744d6934784e7a4d744c6a41784d79307a4c6a6b314d5341794c6a67314f53307a4c6a6b334d7941324c6a51784e4330754d44417a4c6a55354c6a41304d6941784c6a45324d6934784d7941784c6a63774e5745784d69347a4e6a59674d5449754d7a5932494441674d4341774c5334774f4449744c6a4134597930794c6a55314c5449754e4463344c5455754f4451304c544d754d6a497a4c5463754d7a55344c5445754e6a59314c5445754e544530494445754e5455344c5334324e7a55674e4334344d7941784c6a67334e5341334c6a4d774e7934304d5455754e44417a4c6a67314c6a6332494445754d6a6b79494445754d4464684d5441754d5455674d5441754d5455674d434177494441744d6934784e5449754e6a59355979307a4c6a4932494445754e4445354c5455754d6941304c6a45344e4330304c6a4d7a4d6941324c6a45334e6934344e446b674d5334354e5341304c6a41334d6941794c6a517a4e6941334c6a49324e5341784c6a45794e5330304c6a457a4e53417a4c6a63774e5330334c6a51794d7941344c6a63354c546b754e7941784e4334314e5449744d7934794e5455674f4334794d7a63744e4334314e6941784f4334784d6a63744d7934794e4459674d6a67754d544534624455754f5451344c5334334f444a6a4c5445754d5467314c546b754d4445754d4441354c5445334c6a6733494449754f4463354c5449314c6a457a4d5341784c6a55774f43307a4c6a67784f53417a4c6a51304f5330334c6a45794d7941314c6a59354d6930354c6a63334e43347a4d7a45754e4463784c6a63314f4334344d6941784c6a4933494445754d444134494449754d4451794c6a63304d7941304c6a59344e4330784c6a4d324d5341314c6a6b744e4334334d4449754d5449314c53347a4e4334794d7930754e6a67754d7a45314c5445754d4445334c6a45794d7934304e5467754d6a677a4c6a6b794d6934304f4445674d53347a4f4451674d53343049444d754d6a5934494451754d54557a494455754d6a4930494459754d5455674e43347a4e7941784c6a6b354f4330754f445532494449754e4467794c5451754d546b35494445754d44677a4c5463754e445933595445774c6a41774e7941784d4334774d4463674d434177494441744d53347a4e4330794c6a493349446b754f44637a49446b754f44637a494441674d434177494449754f5445794c6a51794e474d7a4c6a55314e534177494459754e444d334c5445754e7a5978494459754e444d334c544d754f544d30637930794c6a67344d69307a4c6a6b7a4e4330324c6a517a4e79307a4c6a6b7a4e474d744c6a55774d7941774c5334354f5449754d444d314c5445754e4459784c6a45774d6934794e7a59744c6a49784d5334314e4463744c6a51304c6a67784c5334324f446b674d6934314f5449744d6934304d7a4d674d7934304f4467744e5334324f5341794c5463754d6a63304c5445754e4467334c5445754e5467304c5451754e7a6b7a4c5334344f5451744e79347a4f4455674d5334314e4330754e5449324c6a51354d7930754f546778494445754d4449744d53347a4e6a49674d5334314e6934784e7a6b744c6a63794e6934794e7a6b744d5334314d5463754d6a67304c5449754d7a5130656d30744d5334314d6a59674e5334774e4452684e4334334e7a63674e4334334e7a63674d434177494441744c6a41794d5334784d4446734c5334774e5330754d44457a595451754e7a6b674e4334334f534177494441674d4341754d4463744c6a41344f486f6949475a706247773949694d324d5555334f4459694c7a34384c334e325a7a343d646174613a696d6167652f7376672b786d6c3b6261736536342c50484e325a79423361575230614430694d5467354969426f5a576c6e61485139496a51794969426d6157787350534a756232356c4969423462577875637a30696148523063446f764c336433647935334d793576636d63764d6a41774d43397a646d6369506a78775958526f49475a7062477774636e56735a5430695a585a6c626d396b5a43496759327870634331796457786c50534a6c646d56756232526b4969426b50534a744d6a45754e6a5130494449784c6a6b774d53307a4c6a457a4e5341794c6a51774e7941334c6a63774e6941354c6a51334f4330784c6a5531494445754d6a59744e7934334e4449744f5334314d6a45744d7934784d7a51674d6934304d4463674e7934324e7a49674f5334304d7a67744d5334314e5341784c6a49324c5463754e7a41344c546b754e446778544334334f4459674d7a63754f544530517930754e7a4d674d7a6b754d4463334c6a41354d7941304d533431494449754d444130494451784c6a566f4e7a4d754d545a684d694179494441674d434177494449744d6c597a595449674d694177494441674d4330794c544a494d6a55754e4464684d694179494441674d4341774c5449674d6e59784e6934314d5452684d694179494441674d4341784c53347a4d5455674d5334774e7a64734e7934344d5451674f5334324d5445744d5334314e5341784c6a49324d5330334c6a63334e4330354c6a55324d6e704e4d5459324c6a5578494449774c6a6b774d57777a4c6a457a4e5341794c6a51774e7930334c6a63774e5341354c6a51334f4341784c6a5531494445754d6a59674e7934334e4445744f5334314d6a45674d7934784d7a55674d6934304d4463744e7934324e7a4d674f5334304d7a67674d5334314e5445674d5334794e6941334c6a63774f4330354c6a51344d5341784d5334304d5459674f4334334e6a566a4d5334314d5459674d5334784e6a4d754e6a6b7a49444d754e5467324c5445754d6a453449444d754e546732614330334d7934784e6d4579494449674d434177494445744d693079566a4a684d694179494441674d434178494449744d6d67304f5334324f5456684d694179494441674d434178494449674d6e59784e6934314d5452684d694179494441674d4341774943347a4d5455674d5334774e7a64734c5463754f44457a49446b754e6a4578494445754e5455674d5334794e6a45674e7934334e7a4d744f5334314e6a4a364969426d615778735053496a4f454644524556424969382b5043397a646d632b646174613a696d6167652f7376672b786d6c3b6261736536342c50484e325a79423361575230614430694d5441774969426f5a576c6e61485139496a67324969426d6157787350534a756232356c4969423462577875637a30696148523063446f764c336433647935334d793576636d63764d6a41774d43397a646d6369506a78775958526f49475a7062477774636e56735a5430695a585a6c626d396b5a43496759327870634331796457786c50534a6c646d56756232526b4969426b50534a4e4d6a59754d54513449446b754d444d7a517a49324c6a45334f4341304c6a41324d7941794d7934334d7a67754d444534494449774c6a63674d474d744d7934774d7a63744c6a41784f4330314c6a55794e43417a4c6a6b354e7930314c6a55314d7941344c6a6b324e7930754d4441314c6a67794e5334774e5467674d5334324d6a51754d5467674d69347a4f4452684d544d754d7a67304944457a4c6a4d344e434177494441674d4330754d5445304c5334784d544a444d5445754e6a55674e7934334e7a55674e7934774e4451674e6934334d7a4d674e4334354d6a63674f4334354d544a6a4c5449754d544533494449754d5463344c5334354e444d674e6934334e5449674d6934324d6a49674d5441754d6a4532595445304c6a5133494445304c6a5133494441674d434177494445754f444132494445754e446b31597930754f5467794c6a45344e6930784c6a6b354f4334304f5459744d7934774d446b754f544d324c5451754e545533494445754f54677a4c5463754d6a63674e5334344e5330324c6a41314e7941344c6a597a4e5341784c6a49784d6941794c6a63344e5341314c6a673549444d754e444d31494445774c6a51304e7941784c6a51314d5745784e4334784d7a55674d5451754d544d31494441674d434177494449754f4455344c5445754e6a5531494445304c6a49354d6941784e4334794f5449674d434177494441744d5334794e5463674d6934324d574d744d5334334d4449674e4334324e7930754e7a593449446b754d6a6b34494449754d446732494445774c6a4d7a4f4341794c6a67314e4341784c6a4130494459754e5451334c5445754f544179494467754d6a51354c5459754e5463794c6a45334d7930754e4463324c6a4d784f5330754f5455784c6a517a4f4330784c6a51794d6934784e7a4d754e6a51754d7a6b33494445754d6a67344c6a59334e4341784c6a6b7a4e4341784c6a6b314e6941304c6a5533494455754f444132494463754d7a4131494467754e546b34494459754d5445674d69347a4f5463744d5334774d6a63674d7934794d7a59744e4334324d5451674d6934784f446b744f4334304f546b674e4334334e7941784c6a59774e5341784d4334774f5455674e4334314e4459674d5451754e6a453249446b754d7a5131494459754f4341334c6a49784f4341784d6934784d6a55674d546b754d444132494445774c6a55794f43417a4e7934344d6a68684e434130494441674d434177494463754f5463784c6a59334e6d4d784c6a63324d7930794d4334334e7a49744e4334784d5449744d7a51754f5330784d6934324e7a63744e444d754f546c684e444d754e6a637a4944517a4c6a59334d794177494441674d4330784d7934794f4330354c6a55354d6d4d794c6a41314d6930784c6a41774f43417a4c6a4d324e5330794c6a55314e53417a4c6a4d324e5330304c6a49344f5341774c544d754d444d334c5451754d444d744e5334314c546b744e5334314c5334334d444d674d4330784c6a4d344e7934774e5330794c6a41304d7934784e444d754d7a67324c5334794f5459754e7a59314c5334324d5463674d5334784d7a51744c6a6b324d79417a4c6a59794d79307a4c6a51774d7941304c6a67334e5330334c6a6b314e6941794c6a63354e5330784d4334784e7930794c6a41334f5330794c6a49784e5330324c6a63774d6930784c6a49314d5330784d43347a4d6a55674d6934784e5446684d5451754d6a6732494445304c6a49344e694177494441674d4330784c6a6b774e4341794c6a45344d324d754d6a55744d5334774d5455754d7a6b744d6934784d69347a4f5459744d7934794e7a6836625330794c6a457a4e4341334c6a41314d5330754d444d754d545179595455754f445130494455754f445130494441674d4341774c5334774e6a67744c6a4179624334774f5467744c6a45794d6e6f6949475a706247773949694d3451554e45525545694c7a3438634746306143426d615778734c584a3162475539496d56325a5735765a47516949474e7361584174636e56735a5430695a585a6c626d396b5a4349675a443069545467314c6a59344d6941794e4334304e6d4d754d4449784c544d754e5455314c5445754e7a497a4c5459754e4451334c544d754f446b314c5459754e4459744d6934784e7a4d744c6a41784d79307a4c6a6b314d5341794c6a67314f53307a4c6a6b334d7941324c6a51784e4330754d44417a4c6a55354c6a41304d6941784c6a45324d6934784d7941784c6a63774e5745784d69347a4e6a59674d5449754d7a5932494441674d4341774c5334774f4449744c6a4134597930794c6a55314c5449754e4463344c5455754f4451304c544d754d6a497a4c5463754d7a55344c5445754e6a59314c5445754e544530494445754e5455344c5334324e7a55674e4334344d7941784c6a67334e5341334c6a4d774e7934304d5455754e44417a4c6a67314c6a6332494445754d6a6b79494445754d4464684d5441754d5455674d5441754d5455674d434177494441744d6934784e5449754e6a59355979307a4c6a4932494445754e4445354c5455754d6941304c6a45344e4330304c6a4d7a4d6941324c6a45334e6934344e446b674d5334354e5341304c6a41334d6941794c6a517a4e6941334c6a49324e5341784c6a45794e5330304c6a457a4e53417a4c6a63774e5330334c6a51794d7941344c6a63354c546b754e7941784e4334314e5449744d7934794e5455674f4334794d7a63744e4334314e6941784f4334784d6a63744d7934794e4459674d6a67754d544534624455754f5451344c5334334f444a6a4c5445754d5467314c546b754d4445754d4441354c5445334c6a6733494449754f4463354c5449314c6a457a4d5341784c6a55774f43307a4c6a67784f53417a4c6a51304f5330334c6a45794d7941314c6a59354d6930354c6a63334e43347a4d7a45754e4463784c6a63314f4334344d6941784c6a4933494445754d444134494449754d4451794c6a63304d7941304c6a59344e4330784c6a4d324d5341314c6a6b744e4334334d4449754d5449314c53347a4e4334794d7930754e6a67754d7a45314c5445754d4445334c6a45794d7934304e5467754d6a677a4c6a6b794d6934304f4445674d53347a4f4451674d53343049444d754d6a5934494451754d54557a494455754d6a4930494459754d5455674e43347a4e7941784c6a6b354f4330754f445532494449754e4467794c5451754d546b35494445754d44677a4c5463754e445933595445774c6a41774e7941784d4334774d4463674d434177494441744d53347a4e4330794c6a493349446b754f44637a49446b754f44637a494441674d434177494449754f5445794c6a51794e474d7a4c6a55314e534177494459754e444d334c5445754e7a5978494459754e444d334c544d754f544d30637930794c6a67344d69307a4c6a6b7a4e4330324c6a517a4e79307a4c6a6b7a4e474d744c6a55774d7941774c5334354f5449754d444d314c5445754e4459784c6a45774d6934794e7a59744c6a49784d5334314e4463744c6a51304c6a67784c5334324f446b674d6934314f5449744d6934304d7a4d674d7934304f4467744e5334324f5341794c5463754d6a63304c5445754e4467334c5445754e5467304c5451754e7a6b7a4c5334344f5451744e79347a4f4455674d5334314e4330754e5449324c6a51354d7930754f546778494445754d4449744d53347a4e6a49674d5334314e6934784e7a6b744c6a63794e6934794e7a6b744d5334314d5463754d6a67304c5449754d7a5130656d30744d5334314d6a59674e5334774e4452684e4334334e7a63674e4334334e7a63674d434177494441744c6a41794d5334784d4446734c5334774e5330754d44457a595451754e7a6b674e4334334f534177494441674d4341754d4463744c6a41344f486f6949475a706247773949694d3451554e45525545694c7a34384c334e325a7a343d646174613a696d6167652f7376672b786d6c3b6261736536342c50484e325a79423361575230614430694d5467354969426f5a576c6e61485139496a51794969426d6157787350534a756232356c4969423462577875637a30696148523063446f764c336433647935334d793576636d63764d6a41774d43397a646d6369506a78775958526f49475a7062477774636e56735a5430695a585a6c626d396b5a43496759327870634331796457786c50534a6c646d56756232526b4969426b50534a744d6a45754e6a5130494449784c6a6b774d53307a4c6a457a4e5341794c6a51774e7941334c6a63774e6941354c6a51334f4330784c6a5531494445754d6a59744e7934334e4449744f5334314d6a45744d7934784d7a51674d6934304d4463674e7934324e7a49674f5334304d7a67744d5334314e5341784c6a49324c5463754e7a41344c546b754e446778544334334f4459674d7a63754f544530517930754e7a4d674d7a6b754d4463334c6a41354d7941304d533431494449754d444130494451784c6a566f4e7a4d754d545a684d694179494441674d434177494449744d6c597a595449674d694177494441674d4330794c544a494d6a55754e4464684d694179494441674d4341774c5449674d6e59784e6934314d5452684d694179494441674d4341784c53347a4d5455674d5334774e7a64734e7934344d5451674f5334324d5445744d5334314e5341784c6a49324d5330334c6a63334e4330354c6a55324d6e704e4d5459324c6a5578494449774c6a6b774d57777a4c6a457a4e5341794c6a51774e7930334c6a63774e5341354c6a51334f4341784c6a5531494445754d6a59674e7934334e4445744f5334314d6a45674d7934784d7a55674d6934304d4463744e7934324e7a4d674f5334304d7a67674d5334314e5445674d5334794e6941334c6a63774f4330354c6a51344d5341784d5334304d5459674f4334334e6a566a4d5334314d5459674d5334784e6a4d754e6a6b7a49444d754e5467324c5445754d6a453449444d754e546732614330334d7934784e6d4579494449674d434177494445744d693079566a4a684d694179494441674d434178494449744d6d67304f5334324f5456684d694179494441674d434178494449674d6e59784e6934314d5452684d694179494441674d4341774943347a4d5455674d5334774e7a64734c5463754f44457a49446b754e6a4578494445754e5455674d5334794e6a45674e7934334e7a4d744f5334314e6a4a364969426d615778735053496a526b5531526a55314969382b5043397a646d632b646174613a696d6167652f7376672b786d6c3b6261736536342c50484e325a79423361575230614430694d5451314969426f5a576c6e61485139496a59314969426d6157787350534a756232356c4969423462577875637a30696148523063446f764c336433647935334d793576636d63764d6a41774d43397a646d6369506a78775958526f49475a7062477774636e56735a5430695a585a6c626d396b5a43496759327870634331796457786c50534a6c646d56756232526b4969426b50534a4e4d7a49754e5341324e554d314d4334304e5341324e5341324e5341314d4334304e5341324e53417a4d693431597a41744d53347a4e5459744c6a41344d7930794c6a59354d7930754d6a51304c5451754d444131624334304e5463744c6a45354e6d45784f4341784f434177494441674d5341784e4334304e7a63754d544e734c6a557a4d7934794e45457a4d6934344e5455674d7a49754f445531494441674d4341774944677749444d794c6a56444f4441674e5441754e4455674f5451754e5455674e6a55674d5445794c6a55674e6a566a4d5463754f545135494441674d7a49754e5330784e4334314e53417a4d6934314c544d794c6a56544d544d774c6a51304f534177494445784d693431494442444f5463754d6a5935494441674f4451754e446730494445774c6a51334f4341344d4334354e6a49674d6a51754e6a45355154497949444979494441674d43417749445930494449304c6a5133517a59774c6a51794e7941784d4334304d4455674e4463754e6a6334494441674d7a49754e534177494445304c6a5531494441674d4341784e4334314e53417749444d794c6a56544d5451754e5455674e6a55674d7a49754e5341324e5870744d433031517a51334c6a59344f4341324d4341324d4341304e7934324f4467674e6a41674d7a49754e564d304e7934324f4467674e53417a4d693431494455674e5341784e79347a4d5449674e53417a4d693431494445334c6a4d784d6941324d43417a4d69343149445977656d30344d434177597a45314c6a45344f434177494449334c6a55744d5449754d7a4579494449334c6a55744d6a63754e564d784d6a63754e6a6734494455674d5445794c6a55674e5341344e5341784e79347a4d5449674f4455674d7a49754e5341354e79347a4d5449674e6a41674d5445794c6a55674e6a42364969426d615778735053496a4e6a46464e7a67324969382b5043397a646d632b646174613a696d6167652f7376672b786d6c3b6261736536342c50484e325a79423361575230614430694d6a41344969426f5a576c6e61485139496a59344969426d6157787350534a756232356c4969423462577875637a30696148523063446f764c336433647935334d793576636d63764d6a41774d43397a646d6369506a78775958526f49475139496b30794d4463754e534130595451674e434177494441674d5330304c6a4d314f53417a4c6a6b344e474d744f4334314e6a55674e43347a4d5445744d6a41754e6a677a49446b754f5467334c544d7a4c6a6b784f5341784e5334304f4456684e4334774d4449674e4334774d4449674d434177494445744e53347a4e4467674d6934784f4459674e44557a4c6a51354e5341304e544d754e446b31494441674d4341784c546b754d544d7849444d754e545a6a4c546b754d6a413149444d754e4463744d5467754e6a45674e6934324e4467744d6a63754e444d3449446b754d444931595451754d444179494451754d444179494441674d4341784c5459754e546334494445754e6a5179597930324c6a41794e7941784c6a4d334e7930784d5334324e6a51674d6934794f4455744d5459754e6a4d30494449754e54517a595334354f4463754f546733494441674d4341784943347a4e546b754e544179624449754e444532494463754e444d34595445674d534177494441674d4341754f5455784c6a5935614463754f444978597934354e6a67674d4341784c6a4d334d5341784c6a49304c6a55344e7941784c6a6778624330324c6a4d794e6941304c6a55354e6d4578494445674d434177494441744c6a4d324e4341784c6a45784f5777794c6a51784e7941334c6a517a4e324d754d6a6b354c6a6b794d6930754e7a5531494445754e6a67344c5445754e544d35494445754d544534624330324c6a4d794e7930304c6a55354e324578494445674d434177494441744d5334784e7a55674d4777744e69347a4d6a63674e4334314f54646a4c5334334f4451754e5463744d5334344d7a67744c6a45354e7930784c6a557a4f5330784c6a45784f4777794c6a51784e7930334c6a517a4e324578494445674d434177494441744c6a4d324e4330784c6a45784f4777744e69347a4d6a59744e4334314f54646a4c5334334f4451744c6a55334c53347a4f4449744d5334344d5334314f4463744d5334344d5767334c6a6779595445674d534177494441674d4341754f5455794c5334324f5777794c6a51784e6930334c6a517a4f474d754d4459794c5334784f446b754d5459324c53347a4e4334794f5451744c6a51314c5334314d6a4d754d4445314c5445754d444d354c6a41794d7930784c6a55304e6934774d6a4d744e6934324d7941774c5445304c6a55324d6930784c6a4d324d7930794d7934774e6a51744d7934314e7a68684e4334774d4449674e4334774d4449674d434177494445744e6934314f4463744d5334344e44686a4c5463754d7a67334c5449754d6a45744d5455754d4455744e4334354d7a59744d6a49754e5451324c5463754f44637859544d354e6934324f43417a4f5459754e6a67674d434177494445744e4334314d4451744d5334334f5455674e4334774d4445674e4334774d4445674d434177494445744e5334354f4467744d6934304f4449674e446b7a4c6a45324e4341304f544d754d545930494441674d4341784c54497a4c6a41324e4330784d4334304f4463674e434130494441674d4341784c5459754d4445344c5449754f54633351544d334d4334794d69417a4e7a41754d6a49674d434177494445674d53347a4d6941334c6a49774d3245794c6a55674d693431494441674d534178494449754d7a597a4c5451754e44413249444d324f43347a4d4459674d7a59344c6a4d774e694177494441674d4341344c6a55794e6941304c6a51784e6941304c6a41774d6941304c6a41774d694177494441674d5341314c6a41344e7941794c6a55784e7941304f4467754d444d34494451344f4334774d7a67674d434177494441674d6a4d754e445530494445774c6a59334d7941304c6a41774d6941304c6a41774d694177494441674d5341314c6a557a4e4341794c6a49354e474d784c6a55304c6a59794e53417a4c6a41344e7941784c6a49304d7941304c6a5930494445754f4455674e7934324f43417a4c6a41774e6941784e5334304d4445674e5334334d7a59674d6a49754e7a4933494463754f54413259544d754f546b3449444d754f546b34494441674d434178494455754d6a6332494445754e446779597a67754d7a6b34494449754d6a4978494445324c6a41354e53417a4c6a55324e5341794d69347a4e7a45674d7934314e6a55674e53347a4d5445674d4341784d5334334d7a49744c6a6b324d6941784f4334344c5449754e6a417a59544d754f546b3449444d754f546b34494441674d434178494455754e4445334c5445754d7a5530597a67754e6a63794c5449754d7a4579494445344c6a41334f5330314c6a51324f4341794e7934304e6a55744f5334774d4464684e4451344c6a67354e6941304e4467754f446b32494441674d434177494467754e6a41304c544d754d7a5135494451754d444179494451754d444179494441674d434178494459754d54517a4c5449754e54466a4d5449754d6a51344c5455754d5441784944497a4c6a55774e7930784d43347a4e444d674d7a45754e7a67744d5451754e445930515451674e434177494445674d5341794d4463754e534130656949675a6d6c736244306949305a464e5559314e534976506a777663335a6e50673d3d646174613a696d6167652f7376672b786d6c3b6261736536342c50484e325a79423361575230614430694d6a41344969426f5a576c6e61485139496a59344969426d6157787350534a756232356c4969423462577875637a30696148523063446f764c336433647935334d793576636d63764d6a41774d43397a646d6369506a78775958526f49475139496b30794d4463754e534130595451674e434177494441674d5330304c6a4d314f53417a4c6a6b344e474d744f4334314e6a55674e43347a4d5445744d6a41754e6a677a49446b754f5467334c544d7a4c6a6b784f5341784e5334304f4456684e4334774d4449674e4334774d4449674d434177494445744e53347a4e4467674d6934784f4459674e44557a4c6a51354e5341304e544d754e446b31494441674d4341784c546b754d544d7849444d754e545a6a4c546b754d6a413149444d754e4463744d5467754e6a45674e6934324e4467744d6a63754e444d3449446b754d444931595451754d444179494451754d444179494441674d4341784c5459754e546334494445754e6a5179597930324c6a41794e7941784c6a4d334e7930784d5334324e6a51674d6934794f4455744d5459754e6a4d30494449754e54517a595334354f4463754f546733494441674d4341784943347a4e546b754e544179624449754e444532494463754e444d34595445674d534177494441674d4341754f5455784c6a5935614463754f444978597934354e6a67674d4341784c6a4d334d5341784c6a49304c6a55344e7941784c6a6778624330324c6a4d794e6941304c6a55354e6d4578494445674d434177494441744c6a4d324e4341784c6a45784f5777794c6a51784e7941334c6a517a4e324d754d6a6b354c6a6b794d6930754e7a5531494445754e6a67344c5445754e544d35494445754d544534624330324c6a4d794e7930304c6a55354e324578494445674d434177494441744d5334784e7a55674d4777744e69347a4d6a63674e4334314f54646a4c5334334f4451754e5463744d5334344d7a67744c6a45354e7930784c6a557a4f5330784c6a45784f4777794c6a51784e7930334c6a517a4e324578494445674d434177494441744c6a4d324e4330784c6a45784f4777744e69347a4d6a59744e4334314f54646a4c5334334f4451744c6a55334c53347a4f4449744d5334344d5334314f4463744d5334344d5767334c6a6779595445674d534177494441674d4341754f5455794c5334324f5777794c6a51784e6930334c6a517a4f474d754d4459794c5334784f446b754d5459324c53347a4e4334794f5451744c6a51314c5334314d6a4d754d4445314c5445754d444d354c6a41794d7930784c6a55304e6934774d6a4d744e6934324d7941774c5445304c6a55324d6930784c6a4d324d7930794d7934774e6a51744d7934314e7a68684e4334774d4449674e4334774d4449674d434177494445744e6934314f4463744d5334344e44686a4c5463754d7a67334c5449754d6a45744d5455754d4455744e4334354d7a59744d6a49754e5451324c5463754f44637859544d354e6934324f43417a4f5459754e6a67674d434177494445744e4334314d4451744d5334334f5455674e4334774d4445674e4334774d4445674d434177494445744e5334354f4467744d6934304f4449674e446b7a4c6a45324e4341304f544d754d545930494441674d4341784c54497a4c6a41324e4330784d4334304f4463674e434130494441674d4341784c5459754d4445344c5449754f54633351544d334d4334794d69417a4e7a41754d6a49674d434177494445674d53347a4d6941334c6a49774d3245794c6a55674d693431494441674d534178494449754d7a597a4c5451754e44413249444d324f43347a4d4459674d7a59344c6a4d774e694177494441674d4341344c6a55794e6941304c6a51784e6941304c6a41774d6941304c6a41774d694177494441674d5341314c6a41344e7941794c6a55784e7941304f4467754d444d34494451344f4334774d7a67674d434177494441674d6a4d754e445530494445774c6a59334d7941304c6a41774d6941304c6a41774d694177494441674d5341314c6a557a4e4341794c6a49354e474d784c6a55304c6a59794e53417a4c6a41344e7941784c6a49304d7941304c6a5930494445754f4455674e7934324f43417a4c6a41774e6941784e5334304d4445674e5334334d7a59674d6a49754e7a4933494463754f54413259544d754f546b3449444d754f546b34494441674d434178494455754d6a6332494445754e446779597a67754d7a6b34494449754d6a4978494445324c6a41354e53417a4c6a55324e5341794d69347a4e7a45674d7934314e6a55674e53347a4d5445674d4341784d5334334d7a49744c6a6b324d6941784f4334344c5449754e6a417a59544d754f546b3449444d754f546b34494441674d434178494455754e4445334c5445754d7a5530597a67754e6a63794c5449754d7a4579494445344c6a41334f5330314c6a51324f4341794e7934304e6a55744f5334774d4464684e4451344c6a67354e6941304e4467754f446b32494441674d434177494467754e6a41304c544d754d7a5135494451754d444179494451754d444179494441674d434178494459754d54517a4c5449754e54466a4d5449754d6a51344c5455754d5441784944497a4c6a55774e7930784d43347a4e444d674d7a45754e7a67744d5451754e445930515451674e434177494445674d5341794d4463754e534130656949675a6d6c7362443069497a5978525463344e694976506a777663335a6e50673d3d646174613a696d6167652f7376672b786d6c3b6261736536342c50484e325a79423361575230614430694d5451314969426f5a576c6e61485139496a59314969426d6157787350534a756232356c4969423462577875637a30696148523063446f764c336433647935334d793576636d63764d6a41774d43397a646d6369506a78775958526f49475a7062477774636e56735a5430695a585a6c626d396b5a43496759327870634331796457786c50534a6c646d56756232526b4969426b50534a4e4d7a49754e5341324e554d314d4334304e5341324e5341324e5341314d4334304e5341324e53417a4d693431597a41744d53347a4e5459744c6a41344d7930794c6a59354d7930754d6a51304c5451754d444131624334304e5463744c6a45354e6d45784f4341784f434177494441674d5341784e4334304e7a63754d544e734c6a557a4d7934794e45457a4d6934344e5455674d7a49754f445531494441674d4341774944677749444d794c6a56444f4441674e5441754e4455674f5451754e5455674e6a55674d5445794c6a55674e6a566a4d5463754f545135494441674d7a49754e5330784e4334314e53417a4d6934314c544d794c6a56544d544d774c6a51304f534177494445784d693431494442444f5463754d6a5935494441674f4451754e446730494445774c6a51334f4341344d4334354e6a49674d6a51754e6a45355154497949444979494441674d43417749445930494449304c6a5133517a59774c6a51794e7941784d4334304d4455674e4463754e6a6334494441674d7a49754e534177494445304c6a5531494441674d4341784e4334314e53417749444d794c6a56544d5451754e5455674e6a55674d7a49754e5341324e5870744d433031517a51334c6a59344f4341324d4341324d4341304e7934324f4467674e6a41674d7a49754e564d304e7934324f4467674e53417a4d693431494455674e5341784e79347a4d5449674e53417a4d693431494445334c6a4d784d6941324d43417a4d69343149445977656d30344d434177597a45314c6a45344f434177494449334c6a55744d5449754d7a4579494449334c6a55744d6a63754e564d784d6a63754e6a6734494455674d5445794c6a55674e5341344e5341784e79347a4d5449674f4455674d7a49754e5341354e79347a4d5449674e6a41674d5445794c6a55674e6a42364969426d615778735053496a526b5531526a55314969382b5043397a646d632b646174613a696d6167652f7376672b786d6c3b6261736536342c50484e325a79423361575230614430694d5467354969426f5a576c6e61485139496a51794969426d6157787350534a756232356c4969423462577875637a30696148523063446f764c336433647935334d793576636d63764d6a41774d43397a646d6369506a78775958526f49475a7062477774636e56735a5430695a585a6c626d396b5a43496759327870634331796457786c50534a6c646d56756232526b4969426b50534a744d6a45754e6a5130494449784c6a6b774d53307a4c6a457a4e5341794c6a51774e7941334c6a63774e6941354c6a51334f4330784c6a5531494445754d6a59744e7934334e4449744f5334314d6a45744d7934784d7a51674d6934304d4463674e7934324e7a49674f5334304d7a67744d5334314e5341784c6a49324c5463754e7a41344c546b754e446778544334334f4459674d7a63754f544530517930754e7a4d674d7a6b754d4463334c6a41354d7941304d533431494449754d444130494451784c6a566f4e7a4d754d545a684d694179494441674d434177494449744d6c597a595449674d694177494441674d4330794c544a494d6a55754e4464684d694179494441674d4341774c5449674d6e59784e6934314d5452684d694179494441674d4341784c53347a4d5455674d5334774e7a64734e7934344d5451674f5334324d5445744d5334314e5341784c6a49324d5330334c6a63334e4330354c6a55324d6e704e4d5459324c6a5578494449774c6a6b774d57777a4c6a457a4e5341794c6a51774e7930334c6a63774e5341354c6a51334f4341784c6a5531494445754d6a59674e7934334e4445744f5334314d6a45674d7934784d7a55674d6934304d4463744e7934324e7a4d674f5334304d7a67674d5334314e5445674d5334794e6941334c6a63774f4330354c6a51344d5341784d5334304d5459674f4334334e6a566a4d5334314d5459674d5334784e6a4d754e6a6b7a49444d754e5467324c5445754d6a453449444d754e546732614330334d7934784e6d4579494449674d434177494445744d693079566a4a684d694179494441674d434178494449744d6d67304f5334324f5456684d694179494441674d434178494449674d6e59784e6934314d5452684d694179494441674d4341774943347a4d5455674d5334774e7a64734c5463754f44457a49446b754e6a4578494445754e5455674d5334794e6a45674e7934334e7a4d744f5334314e6a4a364969426d615778735053496a4e6a46464e7a67324969382b5043397a646d632b646174613a696d6167652f7376672b786d6c3b6261736536342c50484e325a79423361575230614430694d5441774969426f5a576c6e61485139496a67324969426d6157787350534a756232356c4969423462577875637a30696148523063446f764c336433647935334d793576636d63764d6a41774d43397a646d6369506a78775958526f49475a7062477774636e56735a5430695a585a6c626d396b5a43496759327870634331796457786c50534a6c646d56756232526b4969426b50534a4e4d6a59754d54513449446b754d444d7a517a49324c6a45334f4341304c6a41324d7941794d7934334d7a67754d444534494449774c6a63674d474d744d7934774d7a63744c6a41784f4330314c6a55794e43417a4c6a6b354e7930314c6a55314d7941344c6a6b324e7930754d4441314c6a67794e5334774e5467674d5334324d6a51754d5467674d69347a4f4452684d544d754d7a67304944457a4c6a4d344e434177494441674d4330754d5445304c5334784d544a444d5445754e6a55674e7934334e7a55674e7934774e4451674e6934334d7a4d674e4334354d6a63674f4334354d544a6a4c5449754d544533494449754d5463344c5334354e444d674e6934334e5449674d6934324d6a49674d5441754d6a4532595445304c6a5133494445304c6a5133494441674d434177494445754f444132494445754e446b31597930754f5467794c6a45344e6930784c6a6b354f4334304f5459744d7934774d446b754f544d324c5451754e545533494445754f54677a4c5463754d6a63674e5334344e5330324c6a41314e7941344c6a597a4e5341784c6a49784d6941794c6a63344e5341314c6a673549444d754e444d31494445774c6a51304e7941784c6a51314d5745784e4334784d7a55674d5451754d544d31494441674d434177494449754f4455344c5445754e6a5531494445304c6a49354d6941784e4334794f5449674d434177494441744d5334794e5463674d6934324d574d744d5334334d4449674e4334324e7930754e7a593449446b754d6a6b34494449754d446732494445774c6a4d7a4f4341794c6a67314e4341784c6a4130494459754e5451334c5445754f544179494467754d6a51354c5459754e5463794c6a45334d7930754e4463324c6a4d784f5330754f5455784c6a517a4f4330784c6a51794d6934784e7a4d754e6a51754d7a6b33494445754d6a67344c6a59334e4341784c6a6b7a4e4341784c6a6b314e6941304c6a5533494455754f444132494463754d7a4131494467754e546b34494459754d5445674d69347a4f5463744d5334774d6a63674d7934794d7a59744e4334324d5451674d6934784f446b744f4334304f546b674e4334334e7941784c6a59774e5341784d4334774f5455674e4334314e4459674d5451754e6a453249446b754d7a5131494459754f4341334c6a49784f4341784d6934784d6a55674d546b754d444132494445774c6a55794f43417a4e7934344d6a68684e434130494441674d434177494463754f5463784c6a59334e6d4d784c6a63324d7930794d4334334e7a49744e4334784d5449744d7a51754f5330784d6934324e7a63744e444d754f546c684e444d754e6a637a4944517a4c6a59334d794177494441674d4330784d7934794f4330354c6a55354d6d4d794c6a41314d6930784c6a41774f43417a4c6a4d324e5330794c6a55314e53417a4c6a4d324e5330304c6a49344f5341774c544d754d444d334c5451754d444d744e5334314c546b744e5334314c5334334d444d674d4330784c6a4d344e7934774e5330794c6a41304d7934784e444d754d7a67324c5334794f5459754e7a59314c5334324d5463674d5334784d7a51744c6a6b324d79417a4c6a59794d79307a4c6a51774d7941304c6a67334e5330334c6a6b314e6941794c6a63354e5330784d4334784e7930794c6a41334f5330794c6a49784e5330324c6a63774d6930784c6a49314d5330784d43347a4d6a55674d6934784e5446684d5451754d6a6732494445304c6a49344e694177494441674d4330784c6a6b774e4341794c6a45344d324d754d6a55744d5334774d5455754d7a6b744d6934784d69347a4f5459744d7934794e7a6836625330794c6a457a4e4341334c6a41314d5330754d444d754d545179595455754f445130494455754f445130494441674d4341774c5334774e6a67744c6a4179624334774f5467744c6a45794d6e6f6949475a706247773949694e47525456474e5455694c7a3438634746306143426d615778734c584a3162475539496d56325a5735765a47516949474e7361584174636e56735a5430695a585a6c626d396b5a4349675a443069545467314c6a59344d6941794e4334304e6d4d754d4449784c544d754e5455314c5445754e7a497a4c5459754e4451334c544d754f446b314c5459754e4459744d6934784e7a4d744c6a41784d79307a4c6a6b314d5341794c6a67314f53307a4c6a6b334d7941324c6a51784e4330754d44417a4c6a55354c6a41304d6941784c6a45324d6934784d7941784c6a63774e5745784d69347a4e6a59674d5449754d7a5932494441674d4341774c5334774f4449744c6a4134597930794c6a55314c5449754e4463344c5455754f4451304c544d754d6a497a4c5463754d7a55344c5445754e6a59314c5445754e544530494445754e5455344c5334324e7a55674e4334344d7941784c6a67334e5341334c6a4d774e7934304d5455754e44417a4c6a67314c6a6332494445754d6a6b79494445754d4464684d5441754d5455674d5441754d5455674d434177494441744d6934784e5449754e6a59355979307a4c6a4932494445754e4445354c5455754d6941304c6a45344e4330304c6a4d7a4d6941324c6a45334e6934344e446b674d5334354e5341304c6a41334d6941794c6a517a4e6941334c6a49324e5341784c6a45794e5330304c6a457a4e53417a4c6a63774e5330334c6a51794d7941344c6a63354c546b754e7941784e4334314e5449744d7934794e5455674f4334794d7a63744e4334314e6941784f4334784d6a63744d7934794e4459674d6a67754d544534624455754f5451344c5334334f444a6a4c5445754d5467314c546b754d4445754d4441354c5445334c6a6733494449754f4463354c5449314c6a457a4d5341784c6a55774f43307a4c6a67784f53417a4c6a51304f5330334c6a45794d7941314c6a59354d6930354c6a63334e43347a4d7a45754e4463784c6a63314f4334344d6941784c6a4933494445754d444134494449754d4451794c6a63304d7941304c6a59344e4330784c6a4d324d5341314c6a6b744e4334334d4449754d5449314c53347a4e4334794d7930754e6a67754d7a45314c5445754d4445334c6a45794d7934304e5467754d6a677a4c6a6b794d6934304f4445674d53347a4f4451674d53343049444d754d6a5934494451754d54557a494455754d6a4930494459754d5455674e43347a4e7941784c6a6b354f4330754f445532494449754e4467794c5451754d546b35494445754d44677a4c5463754e445933595445774c6a41774e7941784d4334774d4463674d434177494441744d53347a4e4330794c6a493349446b754f44637a49446b754f44637a494441674d434177494449754f5445794c6a51794e474d7a4c6a55314e534177494459754e444d334c5445754e7a5978494459754e444d334c544d754f544d30637930794c6a67344d69307a4c6a6b7a4e4330324c6a517a4e79307a4c6a6b7a4e474d744c6a55774d7941774c5334354f5449754d444d314c5445754e4459784c6a45774d6934794e7a59744c6a49784d5334314e4463744c6a51304c6a67784c5334324f446b674d6934314f5449744d6934304d7a4d674d7934304f4467744e5334324f5341794c5463754d6a63304c5445754e4467334c5445754e5467304c5451754e7a6b7a4c5334344f5451744e79347a4f4455674d5334314e4330754e5449324c6a51354d7930754f546778494445754d4449744d53347a4e6a49674d5334314e6934784e7a6b744c6a63794e6934794e7a6b744d5334314d5463754d6a67304c5449754d7a5130656d30744d5334314d6a59674e5334774e4452684e4334334e7a63674e4334334e7a63674d434177494441744c6a41794d5334784d4446734c5334774e5330754d44457a595451754e7a6b674e4334334f534177494441674d4341754d4463744c6a41344f486f6949475a706247773949694e47525456474e5455694c7a34384c334e325a7a343d646174613a696d6167652f7376672b786d6c3b6261736536342c50484e325a79423361575230614430694d6a41344969426f5a576c6e61485139496a59344969426d6157787350534a756232356c4969423462577875637a30696148523063446f764c336433647935334d793576636d63764d6a41774d43397a646d6369506a78775958526f49475139496b30794d4463754e534130595451674e434177494441674d5330304c6a4d314f53417a4c6a6b344e474d744f4334314e6a55674e43347a4d5445744d6a41754e6a677a49446b754f5467334c544d7a4c6a6b784f5341784e5334304f4456684e4334774d4449674e4334774d4449674d434177494445744e53347a4e4467674d6934784f4459674e44557a4c6a51354e5341304e544d754e446b31494441674d4341784c546b754d544d7849444d754e545a6a4c546b754d6a413149444d754e4463744d5467754e6a45674e6934324e4467744d6a63754e444d3449446b754d444931595451754d444179494451754d444179494441674d4341784c5459754e546334494445754e6a5179597930324c6a41794e7941784c6a4d334e7930784d5334324e6a51674d6934794f4455744d5459754e6a4d30494449754e54517a595334354f4463754f546733494441674d4341784943347a4e546b754e544179624449754e444532494463754e444d34595445674d534177494441674d4341754f5455784c6a5935614463754f444978597934354e6a67674d4341784c6a4d334d5341784c6a49304c6a55344e7941784c6a6778624330324c6a4d794e6941304c6a55354e6d4578494445674d434177494441744c6a4d324e4341784c6a45784f5777794c6a51784e7941334c6a517a4e324d754d6a6b354c6a6b794d6930754e7a5531494445754e6a67344c5445754e544d35494445754d544534624330324c6a4d794e7930304c6a55354e324578494445674d434177494441744d5334784e7a55674d4777744e69347a4d6a63674e4334314f54646a4c5334334f4451754e5463744d5334344d7a67744c6a45354e7930784c6a557a4f5330784c6a45784f4777794c6a51784e7930334c6a517a4e324578494445674d434177494441744c6a4d324e4330784c6a45784f4777744e69347a4d6a59744e4334314f54646a4c5334334f4451744c6a55334c53347a4f4449744d5334344d5334314f4463744d5334344d5767334c6a6779595445674d534177494441674d4341754f5455794c5334324f5777794c6a51784e6930334c6a517a4f474d754d4459794c5334784f446b754d5459324c53347a4e4334794f5451744c6a51314c5334314d6a4d754d4445314c5445754d444d354c6a41794d7930784c6a55304e6934774d6a4d744e6934324d7941774c5445304c6a55324d6930784c6a4d324d7930794d7934774e6a51744d7934314e7a68684e4334774d4449674e4334774d4449674d434177494445744e6934314f4463744d5334344e44686a4c5463754d7a67334c5449754d6a45744d5455754d4455744e4334354d7a59744d6a49754e5451324c5463754f44637859544d354e6934324f43417a4f5459754e6a67674d434177494445744e4334314d4451744d5334334f5455674e4334774d4445674e4334774d4445674d434177494445744e5334354f4467744d6934304f4449674e446b7a4c6a45324e4341304f544d754d545930494441674d4341784c54497a4c6a41324e4330784d4334304f4463674e434130494441674d4341784c5459754d4445344c5449754f54633351544d334d4334794d69417a4e7a41754d6a49674d434177494445674d53347a4d6941334c6a49774d3245794c6a55674d693431494441674d534178494449754d7a597a4c5451754e44413249444d324f43347a4d4459674d7a59344c6a4d774e694177494441674d4341344c6a55794e6941304c6a51784e6941304c6a41774d6941304c6a41774d694177494441674d5341314c6a41344e7941794c6a55784e7941304f4467754d444d34494451344f4334774d7a67674d434177494441674d6a4d754e445530494445774c6a59334d7941304c6a41774d6941304c6a41774d694177494441674d5341314c6a557a4e4341794c6a49354e474d784c6a55304c6a59794e53417a4c6a41344e7941784c6a49304d7941304c6a5930494445754f4455674e7934324f43417a4c6a41774e6941784e5334304d4445674e5334334d7a59674d6a49754e7a4933494463754f54413259544d754f546b3449444d754f546b34494441674d434178494455754d6a6332494445754e446779597a67754d7a6b34494449754d6a4978494445324c6a41354e53417a4c6a55324e5341794d69347a4e7a45674d7934314e6a55674e53347a4d5445674d4341784d5334334d7a49744c6a6b324d6941784f4334344c5449754e6a417a59544d754f546b3449444d754f546b34494441674d434178494455754e4445334c5445754d7a5530597a67754e6a63794c5449754d7a4579494445344c6a41334f5330314c6a51324f4341794e7934304e6a55744f5334774d4464684e4451344c6a67354e6941304e4467754f446b32494441674d434177494467754e6a41304c544d754d7a5135494451754d444179494451754d444179494441674d434178494459754d54517a4c5449754e54466a4d5449754d6a51344c5455754d5441784944497a4c6a55774e7930784d43347a4e444d674d7a45754e7a67744d5451754e445930515451674e434177494445674d5341794d4463754e534130656949675a6d6c7362443069497a68425130524651534976506a777663335a6e50673d3d",
  "devdoc": {
    "kind": "dev",
    "methods": {},
    "version": 1
  },
  "userdoc": {
    "kind": "user",
    "methods": {},
    "version": 1
  },
  "storageLayout": {
    "storage": [
      {
        "astId": 4440,
        "contract": "contracts/ImageStorageStatic.sol:ImageStorageStatic",
        "label": "shoes",
        "offset": 0,
        "slot": "0",
        "type": "t_mapping(t_uint256,t_string_storage)"
      },
      {
        "astId": 4444,
        "contract": "contracts/ImageStorageStatic.sol:ImageStorageStatic",
        "label": "clothes",
        "offset": 0,
        "slot": "1",
        "type": "t_mapping(t_uint256,t_string_storage)"
      },
      {
        "astId": 4448,
        "contract": "contracts/ImageStorageStatic.sol:ImageStorageStatic",
        "label": "necklace",
        "offset": 0,
        "slot": "2",
        "type": "t_mapping(t_uint256,t_string_storage)"
      },
      {
        "astId": 4452,
        "contract": "contracts/ImageStorageStatic.sol:ImageStorageStatic",
        "label": "glasses",
        "offset": 0,
        "slot": "3",
        "type": "t_mapping(t_uint256,t_string_storage)"
      },
      {
        "astId": 4456,
        "contract": "contracts/ImageStorageStatic.sol:ImageStorageStatic",
        "label": "hat",
        "offset": 0,
        "slot": "4",
        "type": "t_mapping(t_uint256,t_string_storage)"
      }
    ],
    "types": {
      "t_mapping(t_uint256,t_string_storage)": {
        "encoding": "mapping",
        "key": "t_uint256",
        "label": "mapping(uint256 => string)",
        "numberOfBytes": "32",
        "value": "t_string_storage"
      },
      "t_string_storage": {
        "encoding": "bytes",
        "label": "string",
        "numberOfBytes": "32"
      },
      "t_uint256": {
        "encoding": "inplace",
        "label": "uint256",
        "numberOfBytes": "32"
      }
    }
  }
}