{
  "address": "0xeF8DC81111a873d58dDe27d5D3484F3E63E6bF82",
  "abi": [
    {
      "inputs": [],
      "stateMutability": "nonpayable",
      "type": "constructor"
    },
    {
      "inputs": [],
      "name": "body",
      "outputs": [
        {
          "internalType": "string",
          "name": "",
          "type": "string"
        }
      ],
      "stateMutability": "view",
      "type": "function"
    },
    {
      "inputs": [],
      "name": "getBody",
      "outputs": [
        {
          "internalType": "string",
          "name": "",
          "type": "string"
        }
      ],
      "stateMutability": "view",
      "type": "function"
    },
    {
      "inputs": [
        {
          "internalType": "uint256",
          "name": "collectionIndex",
          "type": "uint256"
        },
        {
          "internalType": "uint256",
          "name": "imageIndex",
          "type": "uint256"
        }
      ],
      "name": "getImageForCollection",
      "outputs": [
        {
          "internalType": "string",
          "name": "",
          "type": "string"
        }
      ],
      "stateMutability": "view",
      "type": "function"
    },
    {
      "inputs": [
        {
          "internalType": "uint256",
          "name": "_index",
          "type": "uint256"
        }
      ],
      "name": "getLayer1",
      "outputs": [
        {
          "internalType": "string",
          "name": "",
          "type": "string"
        }
      ],
      "stateMutability": "view",
      "type": "function"
    },
    {
      "inputs": [
        {
          "internalType": "uint256",
          "name": "_index",
          "type": "uint256"
        }
      ],
      "name": "getLayer2",
      "outputs": [
        {
          "internalType": "string",
          "name": "",
          "type": "string"
        }
      ],
      "stateMutability": "view",
      "type": "function"
    },
    {
      "inputs": [
        {
          "internalType": "uint256",
          "name": "_index",
          "type": "uint256"
        }
      ],
      "name": "getLayer3",
      "outputs": [
        {
          "internalType": "string",
          "name": "",
          "type": "string"
        }
      ],
      "stateMutability": "view",
      "type": "function"
    },
    {
      "inputs": [
        {
          "internalType": "uint256",
          "name": "_index",
          "type": "uint256"
        }
      ],
      "name": "getLayer4",
      "outputs": [
        {
          "internalType": "string",
          "name": "",
          "type": "string"
        }
      ],
      "stateMutability": "view",
      "type": "function"
    },
    {
      "inputs": [
        {
          "internalType": "uint256",
          "name": "_index",
          "type": "uint256"
        }
      ],
      "name": "getLayer5",
      "outputs": [
        {
          "internalType": "string",
          "name": "",
          "type": "string"
        }
      ],
      "stateMutability": "view",
      "type": "function"
    },
    {
      "inputs": [
        {
          "internalType": "uint256",
          "name": "",
          "type": "uint256"
        }
      ],
      "name": "layer_1_data",
      "outputs": [
        {
          "internalType": "string",
          "name": "",
          "type": "string"
        }
      ],
      "stateMutability": "view",
      "type": "function"
    },
    {
      "inputs": [
        {
          "internalType": "uint256",
          "name": "",
          "type": "uint256"
        }
      ],
      "name": "layer_2_data",
      "outputs": [
        {
          "internalType": "string",
          "name": "",
          "type": "string"
        }
      ],
      "stateMutability": "view",
      "type": "function"
    },
    {
      "inputs": [
        {
          "internalType": "uint256",
          "name": "",
          "type": "uint256"
        }
      ],
      "name": "layer_3_data",
      "outputs": [
        {
          "internalType": "string",
          "name": "",
          "type": "string"
        }
      ],
      "stateMutability": "view",
      "type": "function"
    },
    {
      "inputs": [
        {
          "internalType": "uint256",
          "name": "",
          "type": "uint256"
        }
      ],
      "name": "layer_4_data",
      "outputs": [
        {
          "internalType": "string",
          "name": "",
          "type": "string"
        }
      ],
      "stateMutability": "view",
      "type": "function"
    },
    {
      "inputs": [
        {
          "internalType": "uint256",
          "name": "",
          "type": "uint256"
        }
      ],
      "name": "layer_5_data",
      "outputs": [
        {
          "internalType": "string",
          "name": "",
          "type": "string"
        }
      ],
      "stateMutability": "view",
      "type": "function"
    }
  ],
  "transactionHash": "0x554dd99e39c46ce9b732ecdeb85b9bc311f607e62f3c4e63da3068308164e543",
  "args": [],
  "numDeployments": 1,
  "solcInputHash": "6bfcec23dfd703357eff93ebcb15a897",
  "bytecode": "0x61016060405260aa6080818152906200190160a03980516200002a916000916020909101906200091d565b503480156200003857600080fd5b50604051806101a0016040528061017a8152602001620019ab61017a91396000805260016020908152815162000092927fa6eef7e35abe7026729641147f7915573c7e97b47efa546f5f6e3230263bcb499201906200091d565b50604051806101a0016040528061017e8152602001620015f961017e91396001600081905260209081528151620000ed927fcc69885fda6bcc1a4ace058b4a62bf5e179ea78fd58a1ccd71c22cc9b688792f9201906200091d565b50604051806101c0016040528061018a81526020016200146f61018a9139600260005260016020908152815162000148927fd9d16d34ffb15ba3a3d852f0d403e2ce1d691fb54de27ac87cd2f993f3ec330f9201906200091d565b50604051806101c0016040528061018681526020016200117b61018691396003600052600160209081528151620001a3927f7dfe757ecd65cbd7922a9c0161e935dd7fdbcc0e999689c7d31633896b1fc60b9201906200091d565b50604051806101c0016040528061018a81526020016200177761018a91396004600052600160209081528151620001fe927fedc95719e9a3b28dd8e80877cb5880a9be7de1a13fc8b05e7999683b6b5676439201906200091d565b50604051806101a00160405280610176815260200162001b2561017691396000805260026020908152815162000258927fac33ff75c19e70fe83507db0d683fd3465c996598dc972688b7ace676c89077b9201906200091d565b50604051806101a00160405280610176815260200162001c9b61017691396001600052600260209081528151620002b3927fe90b7bceb6e7df5418fb78d8ee546e97c83a08bbccc01a0644d599ccd2a7c2e09201906200091d565b50604051806101a0016040528061016e81526020016200130161016e913960026000819052602090815281516200030e927f679795a0195a1b76cdebb7c51d74e058aee92919b8c3389af86ef24535e8a28c9201906200091d565b50604051806101a00160405280610176815260200162001e116101769139600360005260026020908152815162000369927f88601476d11616a71c5be67555bd1dff4b1cbf21533d2669b768b61518cfe1c39201906200091d565b50604051806101a0016040528061017281526020016200100961017291396004600052600260209081528151620003c4927fee60d0579bcffd98e668647d59fec1ff86a7fb340ce572e844f234ae73a6918f9201906200091d565b50604051806101a00160405280610176815260200162001b256101769139600080526003602090815281516200041e927f3617319a054d772f909f7c479a2cebe5066e836a939412e32403c99029b92eff9201906200091d565b50604051806101a00160405280610176815260200162001c9b6101769139600160005260036020908152815162000479927fa15bc60c955c405d20d9149c709e2460f1c2d9a497496a7f46004d1772c3054c9201906200091d565b50604051806101a0016040528061016e81526020016200130161016e91396002600052600360209081528151620004d4927fc3a24b0501bd2c13a7e57f2db4369ec4c223447539fc0724a9d55ac4a06ebd4d9201906200091d565b50604051806101a00160405280610176815260200162001e11610176913960036000819052602090815281516200052f927fcbc4e5fb02c3d1de23a9f1e014b4d2ee5aeaea9505df5e855c9210bf472495af9201906200091d565b50604051806101a00160405280610172815260200162001009610172913960046000526003602090815281516200058a927f83ec6a1f0257b830b5e016457c9cf1435391bf56cc98f369a58a54fe937724659201906200091d565b50604051806101a00160405280610176815260200162001b25610176913960008052600460209081528151620005e4927f17ef568e3e12ab5b9c7254a8d58478811de00f9e6eb34345acd53bf8fd09d3ec9201906200091d565b50604051806101a00160405280610176815260200162001c9b610176913960016000526004602090815281516200063f927fabd6e7cb50984ff9c2f3e18a2660c3353dadf4e3291deeb275dae2cd1e44fe059201906200091d565b50604051806101a0016040528061016e81526020016200130161016e913960026000526004602090815281516200069a927f91da3fd0782e51c6b3986e9e672fd566868e71f3dbc2d6c2cd6fbb3e361af2a79201906200091d565b50604051806101a00160405280610176815260200162001e1161017691396003600052600460209081528151620006f5927f2e174c10e159ea99b867ce3205125c24a42d128804e4070ed6fcc8cc98166aa09201906200091d565b50604051806101a001604052806101728152602001620010096101729139600460008190526020908152815162000750927f1a1e6821cde7d0159c0d293177871e09677b4e42307c7db3ba94f8648a5a050f9201906200091d565b50604051806101a00160405280610176815260200162001b25610176913960008052600560209081528151620007aa927f05b8ccbb9d4d8fb16ea74ce3c29a41f1b461fbdaff4714a0d9a8eb05499746bc9201906200091d565b50604051806101a00160405280610176815260200162001c9b6101769139600160005260056020908152815162000805927f1471eb6eb2c5e789fc3de43f8ce62938c7d1836ec861730447e2ada8fd81017b9201906200091d565b50604051806101a0016040528061016e81526020016200130161016e9139600260005260056020908152815162000860927f89832631fb3c3307a103ba2c84ab569c64d6182a18893dcd163f0f1c2090733a9201906200091d565b50604051806101a00160405280610176815260200162001e1161017691396003600052600560209081528151620008bb927fa9bc9a3a348c357ba16b37005d7e6b3236198c0e939f4af8c5f19b8deeb8ebc09201906200091d565b50604051806101a001604052806101728152602001620010096101729139600460005260056020908152815162000916927f3eec716f11ba9e820c81ca75eb978ffb45831ef8b7a53e5e422c26008e1ca6d59201906200091d565b5062000a00565b8280546200092b90620009c3565b90600052602060002090601f0160209004810192826200094f57600085556200099a565b82601f106200096a57805160ff19168380011785556200099a565b828001600101855582156200099a579182015b828111156200099a5782518255916020019190600101906200097d565b50620009a8929150620009ac565b5090565b5b80821115620009a85760008155600101620009ad565b600181811c90821680620009d857607f821691505b60208210811415620009fa57634e487b7160e01b600052602260045260246000fd5b50919050565b6105f98062000a106000396000f3fe608060405234801561001057600080fd5b50600436106100cf5760003560e01c8063aa5ecfc21161008c578063f2cc3dec11610066578063f2cc3dec1461017f578063f319028114610192578063f48d4187146101a5578063ff298ba3146101b857600080fd5b8063aa5ecfc214610151578063b14be81c14610164578063e60290541461016c57600080fd5b80632772b776146100d45780632d6b4168146100fd578063364497e414610110578063640ae2ed146101185780637e5564711461012b5780639518c2271461013e575b600080fd5b6100e76100e23660046104f8565b6101cb565b6040516100f49190610511565b60405180910390f35b6100e761010b3660046104f8565b61026d565b6100e761028a565b6100e76101263660046104f8565b610318565b6100e76101393660046104f8565b610335565b6100e761014c366004610566565b610352565b6100e761015f3660046104f8565b6103cc565b6100e76103e5565b6100e761017a3660046104f8565b610477565b6100e761018d3660046104f8565b610490565b6100e76101a03660046104f8565b6104a9565b6100e76101b33660046104f8565b6104c6565b6100e76101c63660046104f8565b6104df565b60008181526001602052604090208054606091906101e890610588565b80601f016020809104026020016040519081016040528092919081815260200182805461021490610588565b80156102615780601f1061023657610100808354040283529160200191610261565b820191906000526020600020905b81548152906001019060200180831161024457829003601f168201915b50505050509050919050565b60008181526005602052604090208054606091906101e890610588565b6000805461029790610588565b80601f01602080910402602001604051908101604052809291908181526020018280546102c390610588565b80156103105780601f106102e557610100808354040283529160200191610310565b820191906000526020600020905b8154815290600101906020018083116102f357829003601f168201915b505050505081565b60008181526004602052604090208054606091906101e890610588565b60008181526003602052604090208054606091906101e890610588565b6060826001141561036d57610366826101cb565b90506103c6565b826002141561037f57610366826104a9565b82600314156103915761036682610335565b82600414156103a35761036682610318565b82600514156103b5576103668261026d565b506040805160208101909152600081525b92915050565b6003602052600090815260409020805461029790610588565b6060600080546103f490610588565b80601f016020809104026020016040519081016040528092919081815260200182805461042090610588565b801561046d5780601f106104425761010080835404028352916020019161046d565b820191906000526020600020905b81548152906001019060200180831161045057829003601f168201915b5050505050905090565b6001602052600090815260409020805461029790610588565b6004602052600090815260409020805461029790610588565b60008181526002602052604090208054606091906101e890610588565b6002602052600090815260409020805461029790610588565b6005602052600090815260409020805461029790610588565b60006020828403121561050a57600080fd5b5035919050565b600060208083528351808285015260005b8181101561053e57858101830151858201604001528201610522565b81811115610550576000604083870101525b50601f01601f1916929092016040019392505050565b6000806040838503121561057957600080fd5b50508035926020909101359150565b600181811c9082168061059c57607f821691505b602082108114156105bd57634e487b7160e01b600052602260045260246000fd5b5091905056fea26469706673582212204f5d7dc6c13d1e569c9c098331b9dcd5dbf53a50b23c07f44c68ea2d7b7aa83764736f6c634300080a0033646174613a696d6167652f706e673b6261736536342c6956424f5277304b47676f414141414e53556845556741414143414141414167434159414141427a656e72304141414141584e53523049417273346336514141414c354a52454655574958746c46454f6843414d524b765a6b2b326850495348386d72756c775345516d6671366f643969596b4a554b6274554a45674342356d36693075332f5834335a46593637623442594358567a4774497562424f6e70354f704d6c34424c41596862654538426b58324370776f6549322f4a4e532b7975374331415735414d646e77645553497972674c734165534a6961474e4c684d366e6d7169563770575547762f717a4e6135564154736e4e42546652666338444d6177536f72574d4755553765572b6f6c7342575970486233634f70644a614359686963526c7770514d2f4a63694169346862734530494f494d6c595149507741413967743566365346425141414141415355564f524b35435949493d646174613a696d6167652f706e673b6261736536342c6956424f5277304b47676f414141414e53556845556741414143414141414167434159414141427a656e72304141414141584e53523049417273346336514141414d784a52454655574958746c74454e4169454d514b767831776c5969686e385953613259436c634133394f677257553067415849792b3550306f664c545148734e6d637a4b55337745656265765a304a72434c623730434f414569485a396b725779424642387446736e37633155594a6b4349694353756f77574b524f2f447358646d75414353794b41577a52556f61465a686d6b44722b616b46664c5456636c62494635324b303153674e5967797141706b334f77373045516a6f4a6b64315a6a6867346a69364830434148416d664f543879525a6f496175395249436243582f5641704c7548354a796d6b6e484c59653241754a704f4574417939644c57436267544944482f626b713357596a3577554a62696e6f6b384a4a364141414141424a52553545726b4a6767673d3d646174613a696d6167652f706e673b6261736536342c6956424f5277304b47676f414141414e53556845556741414143414141414167434159414141427a656e72304141414141584e53523049417273346336514141414c784a52454655574958746c4e734b6743414d686d663070744654526339715634716d6d7a745958625150676b44642f683042484d66356d454164626b644d76354736643764313771525a6e6743683838596d563851794f4a63367a322b4b41457743744c43465577493030566477737241713750614b322f4d556b62735630684c6b426b736649516f41786c6b513934426b78494252526c4d54476b5931513657755a3552622f2b594e6c6a6c70453272334168726f553375417a5738456f4b58544c4b4b53737261715364426d49454462336149465952465162634f62694b6b43554b735768784942722f4357415055696d7064727830473441476c594b6a3556455330504141414141456c46546b5375516d4343646174613a696d6167652f706e673b6261736536342c6956424f5277304b47676f414141414e53556845556741414143414141414167434159414141427a656e72304141414141584e53523049417273346336514141414e464a52454655574958746c73454e7779414d5264307179374241523241707a697a4649757a5261772f306b694c69476d4d73534653564a2b5747386338336641477757467a4d7262636775704236396a5465736f75335867473441534c746e32537462494755364149576b76666e5842676d67424169456e45664c61426f39506b353973774d463442455a4e434935676f6f614c6f77545544722b716b4652426571646c624942353271307a6a514371494d636f47736d3330476d6d6745614c4b6a576a4d3869436a3232536341414f50746f6564506a6b414c366659704172684d2b4b73526b48512f534d6f306b385974683959426352724f4571446c36795a6f336f51716a4c6677656a34412f466b6446777368627963794b734643574f4e384141414141456c46546b5375516d4343646174613a696d6167652f706e673b6261736536342c6956424f5277304b47676f414141414e53556845556741414143414141414167434159414141427a656e72304141414141584e53523049417273346336514141414d644a52454655574958746c6d454b7779414d527550596e5871554855433830304138612f616e4c6462476d4152316a506d6730494a7048703832464743782b444a4f572b416a6f7561644b6641746e6c7142736b45423770646b725779424642387677527750446f42506f5a734149534b536550515779426f644e2b795a36533551534a7755577a5257494b4f5a776a43423175646e46764152713346574f45326f4f6b734334753546436d54643644505178434a676d5233566d75364469474c6665775141534d46646576376b466c676830353469774d324576396f43457655505354374e704f4f577735714161686150454c42796932796151416f4f33713974567276465173344879394970573350584d385141414141415355564f524b35435949493d646174613a696d6167652f706e673b6261736536342c6956424f5277304b47676f414141414e53556845556741414143414141414167434159414141427a656e72304141414141584e53523049417273346336514141414d394a52454655574958746c73454e7779414d526432713534375441526a4b5133676f687371314233704a4558574d4d52616b71737154637350343578752b414667737673796c74774144705a34394b614b362b4e5972674464677050327a724c557473494b42754a4338762b62434d414743454a4f4936326742526150337a366c6e5a7267414a694c44526a52585145485468576b43577466504c514144566532736b412b36564f64786f4256454765614357446637444454784350426b5237566d6542424a374c4e50414141553861506e54343741692b6a324b514b30545069724559683050306a4b4e4c50477259625841584d617a684c673558415450473943467851526e7473443648355778385843794176357079786f38344479367741414141424a52553545726b4a6767673d3d646174613a696d6167652f706e673b6261736536342c6956424f5277304b47676f414141414e535568455567414141434141414141674341494141414438474f326a4141414141584e5352304941727334633651414141436c4a5245465553496e747a54454241414149777a4441762b646841723555514e4e4a36724e3576514d4141414141414141414149444446736678417a314b4b5a6b744141414141456c46546b5375516d4343646174613a696d6167652f706e673b6261736536342c6956424f5277304b47676f414141414e53556845556741414143414141414167434159414141427a656e72304141414141584e53523049417273346336514141414d4e4a52454655574958746c6b454f6843414d5254746d33486f6337722f324f47785a4d427548594b65553072524f6a4c7a454859586e4c7a594354435a2f356a56616b474c494933757532383475666f384b34414d512b58676b6132554c704b515973456a5a6e3076425449415145556b7331674c5651642b58592b2b4d755143534b4b41572b51705564464e77452b6839666d714246454d7a7a67626c6f6c4e316d6752366736694155694472764f3941463432415a6e593061387748456358522b7777417347373736637862746b414c6d66596c4174784d6546514c53495a2f534f70704a683233484e6f45784e50515330444c7a3564776d59424675795954467a3565707966706b683363637741414141424a52553545726b4a6767673d3d646174613a696d6167652f706e673b6261736536342c6956424f5277304b47676f414141414e53556845556741414143414141414167434159414141427a656e72304141414141584e53523049417273346336514141414d4a4a52454655574958746c4e454e677a414d524533565a6270496c2b6f33533746497836466652416d4a45392b5a7767642b45684a534575647358797753424d4846544c33463732665a666c636b316d742b2b7757416c3163787253496567335830386e516d5338416c674d55737643654179623741556f556e4562666c6d35625956646c62674c596747577a374f714a455a4677463241504945784e444731306d64447a56524b3930726144572f6c646e744d71684a6d546e6770726f762b61416d64734955467648444b4b63764c6655533241724d456e74377548554f3070414d513133496734566f47626b755241526341706e436141484557577349454434415534754b664f584231384f4141414141456c46546b5375516d4343646174613a696d6167652f706e673b6261736536342c6956424f5277304b47676f414141414e53556845556741414143414141414167434159414141427a656e72304141414141584e53523049417273346336514141414d464a52454655574958746c45454f7779414d424a3271722b74506575784c637378502b72333046415142673365644a6f643470456952414c4f32463473455158417855323978586c3762373472452b72792f666748673556564d71346a4859423239504a334a456e414a5944454c37776c6773692b77564f464a7847333570695632566659576f4331494274752b6a6967524756634239674479784d54515270634a48553831305374644b3669312f39555a72584b6f43646d356f436236727a6c67356a5943314e59786779676e377933314574674b54464b37657a6a316a684a51544d4f6469454d4671426c354c6b51456e4d4a5a4175684252426b724342422b714d4d732f3172554c746b41414141415355564f524b35435949493d646174613a696d6167652f706e673b6261736536342c6956424f5277304b47676f414141414e53556845556741414143414141414167434159414141427a656e72304141414141584e53523049417273346336514141414d464a52454655574958746c45454f7779414d424a3271442b72506575736a637376502b71503046415142673365644a6f643470456952414c4f3246347345515841785532397866722b323378574a39566d2b666748673556564d71346a4859423239504a334a456e414a5944454c37776c6773692b77564f464a7847333570695632566659576f4331494274752b6a6967524756634239674479784d54515270634a48553831305374644b3669312f39555a72584b6f43646d356f436236727a6c67356a5943314e59786779676e377933314574674b54464b37657a6a316a684a51544d4f6469454d4671426c354c6b51456e4d4a5a4175684252426b724342422b30354d75596e6657712b6741414141415355564f524b35435949493d",
  "devdoc": {
    "kind": "dev",
    "methods": {},
    "version": 1
  },
  "userdoc": {
    "kind": "user",
    "methods": {},
    "version": 1
  },
  "storageLayout": {
    "storage": [
      {
        "astId": 4518,
        "contract": "contracts/ImageStorageStatic.sol:ImageStorageStatic",
        "label": "body",
        "offset": 0,
        "slot": "0",
        "type": "t_string_storage"
      },
      {
        "astId": 4522,
        "contract": "contracts/ImageStorageStatic.sol:ImageStorageStatic",
        "label": "layer_1_data",
        "offset": 0,
        "slot": "1",
        "type": "t_mapping(t_uint256,t_string_storage)"
      },
      {
        "astId": 4526,
        "contract": "contracts/ImageStorageStatic.sol:ImageStorageStatic",
        "label": "layer_2_data",
        "offset": 0,
        "slot": "2",
        "type": "t_mapping(t_uint256,t_string_storage)"
      },
      {
        "astId": 4530,
        "contract": "contracts/ImageStorageStatic.sol:ImageStorageStatic",
        "label": "layer_3_data",
        "offset": 0,
        "slot": "3",
        "type": "t_mapping(t_uint256,t_string_storage)"
      },
      {
        "astId": 4534,
        "contract": "contracts/ImageStorageStatic.sol:ImageStorageStatic",
        "label": "layer_4_data",
        "offset": 0,
        "slot": "4",
        "type": "t_mapping(t_uint256,t_string_storage)"
      },
      {
        "astId": 4538,
        "contract": "contracts/ImageStorageStatic.sol:ImageStorageStatic",
        "label": "layer_5_data",
        "offset": 0,
        "slot": "5",
        "type": "t_mapping(t_uint256,t_string_storage)"
      }
    ],
    "types": {
      "t_mapping(t_uint256,t_string_storage)": {
        "encoding": "mapping",
        "key": "t_uint256",
        "label": "mapping(uint256 => string)",
        "numberOfBytes": "32",
        "value": "t_string_storage"
      },
      "t_string_storage": {
        "encoding": "bytes",
        "label": "string",
        "numberOfBytes": "32"
      },
      "t_uint256": {
        "encoding": "inplace",
        "label": "uint256",
        "numberOfBytes": "32"
      }
    }
  }
}