{
  "address": "0x37dA2743784594C729734E0290Bf19f6c6f251C5",
  "abi": [
    {
      "inputs": [],
      "stateMutability": "nonpayable",
      "type": "constructor"
    },
    {
      "anonymous": false,
      "inputs": [
        {
          "indexed": false,
          "internalType": "string",
          "name": "name",
          "type": "string"
        },
        {
          "indexed": false,
          "internalType": "string",
          "name": "symbol",
          "type": "string"
        },
        {
          "indexed": false,
          "internalType": "address",
          "name": "dao",
          "type": "address"
        }
      ],
      "name": "DAOCreated",
      "type": "event"
    },
    {
      "anonymous": false,
      "inputs": [
        {
          "indexed": true,
          "internalType": "address",
          "name": "member",
          "type": "address"
        },
        {
          "indexed": true,
          "internalType": "uint256",
          "name": "_id",
          "type": "uint256"
        }
      ],
      "name": "DAOJoined",
      "type": "event"
    },
    {
      "inputs": [],
      "name": "PEW_NFT_FACTORY",
      "outputs": [
        {
          "internalType": "contract PewNFTFactory",
          "name": "",
          "type": "address"
        }
      ],
      "stateMutability": "view",
      "type": "function"
    },
    {
      "inputs": [
        {
          "internalType": "uint256",
          "name": "_id",
          "type": "uint256"
        },
        {
          "internalType": "uint256",
          "name": "_tokenId",
          "type": "uint256"
        },
        {
          "internalType": "string",
          "name": "ipfsHash",
          "type": "string"
        }
      ],
      "name": "addContribution",
      "outputs": [],
      "stateMutability": "nonpayable",
      "type": "function"
    },
    {
      "inputs": [
        {
          "internalType": "string",
          "name": "name",
          "type": "string"
        },
        {
          "internalType": "string",
          "name": "symbol",
          "type": "string"
        },
        {
          "internalType": "string",
          "name": "metadataHash",
          "type": "string"
        }
      ],
      "name": "createDAO",
      "outputs": [],
      "stateMutability": "nonpayable",
      "type": "function"
    },
    {
      "inputs": [],
      "name": "daoCounter",
      "outputs": [
        {
          "internalType": "uint256",
          "name": "",
          "type": "uint256"
        }
      ],
      "stateMutability": "view",
      "type": "function"
    },
    {
      "inputs": [
        {
          "internalType": "uint256",
          "name": "",
          "type": "uint256"
        }
      ],
      "name": "daoIds",
      "outputs": [
        {
          "internalType": "address",
          "name": "contractAddress",
          "type": "address"
        },
        {
          "internalType": "string",
          "name": "detailsHash",
          "type": "string"
        }
      ],
      "stateMutability": "view",
      "type": "function"
    },
    {
      "inputs": [
        {
          "internalType": "uint256",
          "name": "_id",
          "type": "uint256"
        },
        {
          "internalType": "uint256",
          "name": "_tokenId",
          "type": "uint256"
        },
        {
          "internalType": "uint256",
          "name": "_contributionIndex",
          "type": "uint256"
        }
      ],
      "name": "downvote",
      "outputs": [],
      "stateMutability": "nonpayable",
      "type": "function"
    },
    {
      "inputs": [
        {
          "internalType": "uint256",
          "name": "_id",
          "type": "uint256"
        }
      ],
      "name": "getContract",
      "outputs": [
        {
          "internalType": "address",
          "name": "",
          "type": "address"
        }
      ],
      "stateMutability": "view",
      "type": "function"
    },
    {
      "inputs": [
        {
          "internalType": "uint256",
          "name": "_id",
          "type": "uint256"
        }
      ],
      "name": "joinDAO",
      "outputs": [],
      "stateMutability": "nonpayable",
      "type": "function"
    },
    {
      "inputs": [
        {
          "internalType": "address",
          "name": "_pewNFTFactory",
          "type": "address"
        }
      ],
      "name": "setPewNFTFactory",
      "outputs": [],
      "stateMutability": "nonpayable",
      "type": "function"
    },
    {
      "inputs": [
        {
          "internalType": "uint256",
          "name": "_id",
          "type": "uint256"
        },
        {
          "internalType": "uint256",
          "name": "_tokenId",
          "type": "uint256"
        },
        {
          "internalType": "uint256",
          "name": "_contributionIndex",
          "type": "uint256"
        }
      ],
      "name": "upvote",
      "outputs": [],
      "stateMutability": "nonpayable",
      "type": "function"
    }
  ],
  "transactionHash": "0x40dda66ed994f52fd744d7278e4646584b61a5c77352ffc4d1447e36f0333322",
  "args": [],
  "numDeployments": 3,
  "solcInputHash": "b438200b508f63920f92d36b500dd062",
  "bytecode": "0x608060405234801561001057600080fd5b50610d96806100206000396000f3fe608060405234801561001057600080fd5b506004361061009e5760003560e01c8063a43381a511610066578063a43381a514610154578063bd3dde9614610167578063cfb83a8d1461017a578063f5c8d2321461018d578063f80efd28146101ae57600080fd5b80633fbdf32c146100a357806357333978146100b8578063644fa0d6146100cb5780636ebc8c86146100fb5780638d2e0a6914610141575b600080fd5b6100b66100b1366004610b3b565b6101c5565b005b6100b66100c6366004610bb3565b610409565b6100b66100d9366004610a72565b600080546001600160a01b0319166001600160a01b0392909216919091179055565b610124610109366004610b3b565b6000908152600160205260409020546001600160a01b031690565b6040516001600160a01b0390911681526020015b60405180910390f35b6100b661014f366004610bb3565b6104ee565b600054610124906001600160a01b031681565b6100b6610175366004610b6d565b6105a0565b6100b6610188366004610ab3565b61075e565b6101a061019b366004610b3b565b61089c565b604051610138929190610c2c565b6101b760025481565b604051908152602001610138565b600054604051630b43e78560e31b8152600481018390526001600160a01b0390911690635a1f3c289060240160206040518083038186803b15801561020957600080fd5b505afa15801561021d573d6000803e3d6000fd5b505050506040513d601f19601f820116820180604052508101906102419190610a96565b6040516370a0823160e01b81523360048201526001600160a01b0391909116906370a082319060240160206040518083038186803b15801561028257600080fd5b505afa158015610296573d6000803e3d6000fd5b505050506040513d601f19601f820116820180604052508101906102ba9190610b54565b156103025760405162461bcd60e51b8152602060048201526013602482015272155cd95c88185b1c9958591e481b5a5b9d1959606a1b60448201526064015b60405180910390fd5b600054604051630b43e78560e31b8152600481018390526001600160a01b0390911690635a1f3c289060240160206040518083038186803b15801561034657600080fd5b505afa15801561035a573d6000803e3d6000fd5b505050506040513d601f19601f8201168201806040525081019061037e9190610a96565b6040516335313c2160e11b81523360048201526001600160a01b039190911690636a62784290602401600060405180830381600087803b1580156103c157600080fd5b505af11580156103d5573d6000803e3d6000fd5b50506040518392503391507fc6fe9b78def1629047bd69918cbc1ef87aeefe1543a67e54cb8fcd50711ec6ce90600090a350565b600054604051630b43e78560e31b8152600481018590526001600160a01b0390911690635a1f3c289060240160206040518083038186803b15801561044d57600080fd5b505afa158015610461573d6000803e3d6000fd5b505050506040513d601f19601f820116820180604052508101906104859190610a96565b604051630bcf9d3f60e31b815260048101849052602481018390526001600160a01b039190911690635e7ce9f8906044015b600060405180830381600087803b1580156104d157600080fd5b505af11580156104e5573d6000803e3d6000fd5b50505050505050565b600054604051630b43e78560e31b8152600481018590526001600160a01b0390911690635a1f3c289060240160206040518083038186803b15801561053257600080fd5b505afa158015610546573d6000803e3d6000fd5b505050506040513d601f19601f8201168201806040525081019061056a9190610a96565b604051630353ff7f60e11b815260048101849052602481018390526001600160a01b0391909116906306a7fefe906044016104b7565b8051602e146105e95760405162461bcd60e51b8152602060048201526015602482015274092dcc6dee4e4cac6e84090c2e6d04098cadccee8d605b1b60448201526064016102f9565b806000815181106105fc576105fc610d1c565b6020910101516001600160f81b031916605160f81b1461064f5760405162461bcd60e51b815260206004820152600e60248201526d3173742063686172206e6f74205160901b60448201526064016102f9565b8060018151811061066257610662610d1c565b6020910101516001600160f81b031916606d60f81b146106b55760405162461bcd60e51b815260206004820152600e60248201526d326e642063686174206e6f74206d60901b60448201526064016102f9565b600054604051630b43e78560e31b8152600481018590526001600160a01b0390911690635a1f3c289060240160206040518083038186803b1580156106f957600080fd5b505afa15801561070d573d6000803e3d6000fd5b505050506040513d601f19601f820116820180604052508101906107319190610a96565b6001600160a01b0316635f83b8ea82846040518363ffffffff1660e01b81526004016104b7929190610c96565b6000805460405163d0ae65db60e01b81526001600160a01b039091169063d0ae65db9061079390879087903090600401610c58565b602060405180830381600087803b1580156107ad57600080fd5b505af11580156107c1573d6000803e3d6000fd5b505050506040513d601f19601f820116820180604052508101906107e59190610a96565b6040805180820182526001600160a01b038381168252602080830187815260025460009081526001808452959020845181546001600160a01b031916941693909317835551805195965092949193610843939085019291019061094c565b5050600280549150600061085683610cf3565b91905055507f6d8073b3c5d7e3a29e9539222aa4da4b3728f3e94edcef7840a1fc244e51deaf84848360405161088e93929190610c58565b60405180910390a150505050565b6001602081905260009182526040909120805491810180546001600160a01b03909316926108c990610cb8565b80601f01602080910402602001604051908101604052809291908181526020018280546108f590610cb8565b80156109425780601f1061091757610100808354040283529160200191610942565b820191906000526020600020905b81548152906001019060200180831161092557829003601f168201915b5050505050905082565b82805461095890610cb8565b90600052602060002090601f01602090048101928261097a57600085556109c0565b82601f1061099357805160ff19168380011785556109c0565b828001600101855582156109c0579182015b828111156109c05782518255916020019190600101906109a5565b506109cc9291506109d0565b5090565b5b808211156109cc57600081556001016109d1565b600082601f8301126109f657600080fd5b813567ffffffffffffffff80821115610a1157610a11610d32565b604051601f8301601f19908116603f01168101908282118183101715610a3957610a39610d32565b81604052838152866020858801011115610a5257600080fd5b836020870160208301376000602085830101528094505050505092915050565b600060208284031215610a8457600080fd5b8135610a8f81610d48565b9392505050565b600060208284031215610aa857600080fd5b8151610a8f81610d48565b600080600060608486031215610ac857600080fd5b833567ffffffffffffffff80821115610ae057600080fd5b610aec878388016109e5565b94506020860135915080821115610b0257600080fd5b610b0e878388016109e5565b93506040860135915080821115610b2457600080fd5b50610b31868287016109e5565b9150509250925092565b600060208284031215610b4d57600080fd5b5035919050565b600060208284031215610b6657600080fd5b5051919050565b600080600060608486031215610b8257600080fd5b8335925060208401359150604084013567ffffffffffffffff811115610ba757600080fd5b610b31868287016109e5565b600080600060608486031215610bc857600080fd5b505081359360208301359350604090920135919050565b6000815180845260005b81811015610c0557602081850181015186830182015201610be9565b81811115610c17576000602083870101525b50601f01601f19169290920160200192915050565b6001600160a01b0383168152604060208201819052600090610c5090830184610bdf565b949350505050565b606081526000610c6b6060830186610bdf565b8281036020840152610c7d8186610bdf565b91505060018060a01b0383166040830152949350505050565b604081526000610ca96040830185610bdf565b90508260208301529392505050565b600181811c90821680610ccc57607f821691505b60208210811415610ced57634e487b7160e01b600052602260045260246000fd5b50919050565b6000600019821415610d1557634e487b7160e01b600052601160045260246000fd5b5060010190565b634e487b7160e01b600052603260045260246000fd5b634e487b7160e01b600052604160045260246000fd5b6001600160a01b0381168114610d5d57600080fd5b5056fea26469706673582212203318742b15f56ee8bcf2d6d9f8fab59f1422e7ff0c1a5461b808920afcc2724864736f6c63430008070033",
  "devdoc": {
    "kind": "dev",
    "methods": {
      "addContribution(uint256,uint256,string)": {
        "details": "Include a offchain signer to verify if the structure of the datafile is correct",
        "params": {
          "_id": "Id of the DAO",
          "_tokenId": "TokenId of the token",
          "ipfsHash": "Metadata Hash of the contribution"
        }
      },
      "createDAO(string,string,string)": {
        "details": "Include a offchain signer to verify if the structure of the datafile is correct",
        "params": {
          "metadataHash": "Metadata Hash of the DAO",
          "name": "The name of the DAO.",
          "symbol": "The symbol of the DAO."
        }
      },
      "downvote(uint256,uint256,uint256)": {
        "params": {
          "_contributionIndex": "Index of the contribution",
          "_id": "Id of the DAO",
          "_tokenId": "TokenId of the token"
        }
      },
      "upvote(uint256,uint256,uint256)": {
        "params": {
          "_contributionIndex": "Index of the contribution",
          "_id": "Id of the DAO",
          "_tokenId": "TokenId of the token"
        }
      }
    },
    "version": 1
  },
  "userdoc": {
    "kind": "user",
    "methods": {
      "addContribution(uint256,uint256,string)": {
        "notice": "Add a contributement statement"
      },
      "createDAO(string,string,string)": {
        "notice": "Create a new DAO."
      },
      "downvote(uint256,uint256,uint256)": {
        "notice": "Downvote a contribution"
      },
      "upvote(uint256,uint256,uint256)": {
        "notice": "Upvote a contribution"
      }
    },
    "version": 1
  },
  "storageLayout": {
    "storage": [
      {
        "astId": 1920,
        "contract": "contracts/PewCore.sol:PewCore",
        "label": "PEW_NFT_FACTORY",
        "offset": 0,
        "slot": "0",
        "type": "t_contract(PewNFTFactory)2934"
      },
      {
        "astId": 1930,
        "contract": "contracts/PewCore.sol:PewCore",
        "label": "daoIds",
        "offset": 0,
        "slot": "1",
        "type": "t_mapping(t_uint256,t_struct(DAO)1925_storage)"
      },
      {
        "astId": 1932,
        "contract": "contracts/PewCore.sol:PewCore",
        "label": "daoCounter",
        "offset": 0,
        "slot": "2",
        "type": "t_uint256"
      }
    ],
    "types": {
      "t_address": {
        "encoding": "inplace",
        "label": "address",
        "numberOfBytes": "20"
      },
      "t_contract(PewNFTFactory)2934": {
        "encoding": "inplace",
        "label": "contract PewNFTFactory",
        "numberOfBytes": "20"
      },
      "t_mapping(t_uint256,t_struct(DAO)1925_storage)": {
        "encoding": "mapping",
        "key": "t_uint256",
        "label": "mapping(uint256 => struct PewCore.DAO)",
        "numberOfBytes": "32",
        "value": "t_struct(DAO)1925_storage"
      },
      "t_string_storage": {
        "encoding": "bytes",
        "label": "string",
        "numberOfBytes": "32"
      },
      "t_struct(DAO)1925_storage": {
        "encoding": "inplace",
        "label": "struct PewCore.DAO",
        "members": [
          {
            "astId": 1922,
            "contract": "contracts/PewCore.sol:PewCore",
            "label": "contractAddress",
            "offset": 0,
            "slot": "0",
            "type": "t_address"
          },
          {
            "astId": 1924,
            "contract": "contracts/PewCore.sol:PewCore",
            "label": "detailsHash",
            "offset": 0,
            "slot": "1",
            "type": "t_string_storage"
          }
        ],
        "numberOfBytes": "64"
      },
      "t_uint256": {
        "encoding": "inplace",
        "label": "uint256",
        "numberOfBytes": "32"
      }
    }
  }
}