{
  "address": "0xA47Ae2506199D8bdd436F59796e78f2e6e78320c",
  "abi": [
    {
      "inputs": [
        {
          "internalType": "address",
          "name": "_pewCore",
          "type": "address"
        }
      ],
      "stateMutability": "nonpayable",
      "type": "constructor"
    },
    {
      "anonymous": false,
      "inputs": [
        {
          "indexed": false,
          "internalType": "uint256",
          "name": "id",
          "type": "uint256"
        },
        {
          "indexed": false,
          "internalType": "address",
          "name": "collection",
          "type": "address"
        }
      ],
      "name": "CollectionCreated",
      "type": "event"
    },
    {
      "inputs": [],
      "name": "PEW_CORE",
      "outputs": [
        {
          "internalType": "address",
          "name": "",
          "type": "address"
        }
      ],
      "stateMutability": "view",
      "type": "function"
    },
    {
      "inputs": [
        {
          "internalType": "string",
          "name": "name",
          "type": "string"
        },
        {
          "internalType": "string",
          "name": "symbol",
          "type": "string"
        },
        {
          "internalType": "address",
          "name": "_pewCore",
          "type": "address"
        }
      ],
      "name": "createCollection",
      "outputs": [
        {
          "internalType": "contract PewNFT",
          "name": "",
          "type": "address"
        }
      ],
      "stateMutability": "nonpayable",
      "type": "function"
    },
    {
      "inputs": [
        {
          "internalType": "uint256",
          "name": "id",
          "type": "uint256"
        }
      ],
      "name": "getCollection",
      "outputs": [
        {
          "internalType": "contract PewNFT",
          "name": "",
          "type": "address"
        }
      ],
      "stateMutability": "view",
      "type": "function"
    }
  ],
  "transactionHash": "0x15b84abcf45960f4a5bff00a3ffa32c94c60d9319e8221fde454cc94d36f9401",
  "args": [
    "0x37dA2743784594C729734E0290Bf19f6c6f251C5"
  ],
  "numDeployments": 3,
  "solcInputHash": "b438200b508f63920f92d36b500dd062",
  "bytecode": "0x60806040526000805534801561001457600080fd5b50604051612dda380380612dda83398101604081905261003391610058565b600280546001600160a01b0319166001600160a01b0392909216919091179055610088565b60006020828403121561006a57600080fd5b81516001600160a01b038116811461008157600080fd5b9392505050565b612d43806100976000396000f3fe608060405234801561001057600080fd5b50600436106100415760003560e01c80632722348e146100465780635a1f3c2814610075578063d0ae65db1461009e575b600080fd5b600254610059906001600160a01b031681565b6040516001600160a01b03909116815260200160405180910390f35b610059610083366004610263565b6000908152600160205260409020546001600160a01b031690565b6100596100ac3660046101df565b6002546000906001600160a01b031633146100c657600080fd5b60008484846040516100d790610145565b6100e3939291906102c9565b604051809103906000f0801580156100ff573d6000803e3d6000fd5b5060008054815260016020526040812080546001600160a01b0319166001600160a01b03841617905580549192508061013783610307565b909155509095945050505050565b6129c78061034783390190565b600082601f83011261016357600080fd5b813567ffffffffffffffff8082111561017e5761017e610330565b604051601f8301601f19908116603f011681019082821181831017156101a6576101a6610330565b816040528381528660208588010111156101bf57600080fd5b836020870160208301376000602085830101528094505050505092915050565b6000806000606084860312156101f457600080fd5b833567ffffffffffffffff8082111561020c57600080fd5b61021887838801610152565b9450602086013591508082111561022e57600080fd5b5061023b86828701610152565b92505060408401356001600160a01b038116811461025857600080fd5b809150509250925092565b60006020828403121561027557600080fd5b5035919050565b6000815180845260005b818110156102a257602081850181015186830182015201610286565b818111156102b4576000602083870101525b50601f01601f19169290920160200192915050565b6060815260006102dc606083018661027c565b82810360208401526102ee818661027c565b91505060018060a01b0383166040830152949350505050565b600060001982141561032957634e487b7160e01b600052601160045260246000fd5b5060010190565b634e487b7160e01b600052604160045260246000fdfe60806040523480156200001157600080fd5b50604051620029c7380380620029c78339810160408190526200003491620001ed565b8251839083906200004d90600090602085019062000090565b5080516200006390600190602084019062000090565b5050600880546001600160a01b0319166001600160a01b03939093169290921790915550620002cd915050565b8280546200009e906200027a565b90600052602060002090601f016020900481019282620000c257600085556200010d565b82601f10620000dd57805160ff19168380011785556200010d565b828001600101855582156200010d579182015b828111156200010d578251825591602001919060010190620000f0565b506200011b9291506200011f565b5090565b5b808211156200011b576000815560010162000120565b600082601f8301126200014857600080fd5b81516001600160401b0380821115620001655762000165620002b7565b604051601f8301601f19908116603f01168101908282118183101715620001905762000190620002b7565b81604052838152602092508683858801011115620001ad57600080fd5b600091505b83821015620001d15785820183015181830184015290820190620001b2565b83821115620001e35760008385830101525b9695505050505050565b6000806000606084860312156200020357600080fd5b83516001600160401b03808211156200021b57600080fd5b620002298783880162000136565b945060208601519150808211156200024057600080fd5b506200024f8682870162000136565b604086015190935090506001600160a01b03811681146200026f57600080fd5b809150509250925092565b600181811c908216806200028f57607f821691505b60208210811415620002b157634e487b7160e01b600052602260045260246000fd5b50919050565b634e487b7160e01b600052604160045260246000fd5b6126ea80620002dd6000396000f3fe608060405234801561001057600080fd5b50600436106101da5760003560e01c80636a62784211610104578063b2dfa007116100a2578063cf08a1aa11610071578063cf08a1aa146103f0578063e985e9c514610403578063edf877041461043f578063ff37868b1461045257600080fd5b8063b2dfa007146103a4578063b88d4fde146103b7578063c87b56dd146103ca578063cec1da9e146103dd57600080fd5b80637963b193116100de5780637963b1931461036357806395d89b4114610376578063a22cb4651461037e578063a26b967f1461039157600080fd5b80636a627842146103355780636c0360eb1461034857806370a082311461035057600080fd5b80632722348e1161017c578063495ff7b71161014b578063495ff7b7146102e95780635e7ce9f8146102fc5780635f83b8ea1461030f5780636352211e1461032257600080fd5b80632722348e1461029d5780633ef42951146102b0578063402533c1146102c357806342842e0e146102d657600080fd5b8063081812fc116101b8578063081812fc14610231578063095ea7b31461025c57806318160ddd1461026f57806323b872dd1461028a57600080fd5b806301ffc9a7146101df57806306a7fefe1461020757806306fdde031461021c575b600080fd5b6101f26101ed366004611df1565b610465565b60405190151581526020015b60405180910390f35b61021a610215366004611e9d565b6104b7565b005b61022461051d565b6040516101fe9190612222565b61024461023f366004611e84565b6105af565b6040516001600160a01b0390911681526020016101fe565b61021a61026a366004611dc7565b61063c565b600a546001600160801b03165b6040519081526020016101fe565b61021a610298366004611cd3565b610752565b600854610244906001600160a01b031681565b61027c6102be366004611e84565b610783565b6102246102d1366004611e9d565b610802565b61021a6102e4366004611cd3565b610881565b61027c6102f7366004611e9d565b61089c565b61021a61030a366004611e9d565b6108fd565b61021a61031d366004611e2b565b610959565b610244610330366004611e84565b610a99565b61021a610343366004611c7e565b610b10565b610224610b96565b61027c61035e366004611c7e565b610c24565b61027c610371366004611e9d565b610cab565b610224610d0c565b61021a61038c366004611d8b565b610d1b565b61027c61039f366004611e84565b610d2a565b61027c6103b2366004611e84565b610d64565b61021a6103c5366004611d0f565b610dfb565b6102246103d8366004611e84565b610e33565b61027c6103eb366004611e84565b610e63565b61027c6103fe366004611e84565b610eb2565b6101f2610411366004611ca0565b6001600160a01b03918216600090815260056020908152604080832093909416825291909152205460ff1690565b61022461044d366004611e84565b610f43565b610224610460366004611e84565b6110a5565b60006001600160e01b031982166380ac58cd60e01b148061049657506001600160e01b03198216635b5e139f60e01b145b806104b157506301ffc9a760e01b6001600160e01b03198316145b92915050565b6008546001600160a01b031633146104ce57600080fd5b60008281526006602052604081208054839081106104ee576104ee61246c565b9060005260206000209060030201905080600201600081548092919061051390612411565b9190505550505050565b60606000805461052c906123b5565b80601f0160208091040260200160405190810160405280929190818152602001828054610558906123b5565b80156105a55780601f1061057a576101008083540402835291602001916105a5565b820191906000526020600020905b81548152906001019060200180831161058857829003601f168201915b5050505050905090565b60006105ba826111d8565b6106205760405162461bcd60e51b815260206004820152602c60248201527f4552433732313a20617070726f76656420717565727920666f72206e6f6e657860448201526b34b9ba32b73a103a37b5b2b760a11b60648201526084015b60405180910390fd5b506000908152600460205260409020546001600160a01b031690565b600061064782610a99565b9050806001600160a01b0316836001600160a01b031614156106b55760405162461bcd60e51b815260206004820152602160248201527f4552433732313a20617070726f76616c20746f2063757272656e74206f776e656044820152603960f91b6064820152608401610617565b336001600160a01b03821614806106d157506106d18133610411565b6107435760405162461bcd60e51b815260206004820152603860248201527f4552433732313a20617070726f76652063616c6c6572206973206e6f74206f7760448201527f6e6572206e6f7220617070726f76656420666f7220616c6c00000000000000006064820152608401610617565b61074d83836111f5565b505050565b61075c3382611263565b6107785760405162461bcd60e51b8152600401610617906122d6565b61074d83838361134d565b600061078e826111d8565b6107aa5760405162461bcd60e51b815260040161061790612287565b60006107b583610d64565b905060006107c284610eb2565b905060006107cf85610e63565b9050828211156107e257600093506107fa565b806107ed8385612372565b6107f79190612327565b93505b505050919050565b606061080d836111d8565b6108295760405162461bcd60e51b815260040161061790612287565b60008381526006602052604090208054839081106108495761084961246c565b906000526020600020906003020160000160405160200161086a9190612176565b604051602081830303815290604052905092915050565b61074d83838360405180602001604052806000815250610dfb565b60006108a7836111d8565b6108c35760405162461bcd60e51b815260040161061790612287565b60008381526006602052604090208054839081106108e3576108e361246c565b906000526020600020906003020160020154905092915050565b6008546001600160a01b0316331461091457600080fd5b60008281526006602052604081208054839081106109345761093461246c565b9060005260206000209060030201905080600101600081548092919061051390612411565b6008546001600160a01b0316331461097057600080fd5b61097981610a99565b6001600160a01b0316326001600160a01b0316146109e75760405162461bcd60e51b815260206004820152602560248201527f4f6e6c7920746865206f776e65722063616e20616464206120636f6e747269626044820152643aba34b7b760d91b6064820152608401610617565b6040805160608101825283815260006020808301829052828401829052848252600681529281208054600181018255908252908390208251805193948594600390940290920192610a3b9284920190611b53565b506020820151816001015560408201518160020155505081336001600160a01b03167fcdcb8905b775881d4cd990c8d7c1132b7e338e3e42af9cd789f528cd4e44a2c585604051610a8c9190612222565b60405180910390a3505050565b6000818152600260205260408120546001600160a01b0316806104b15760405162461bcd60e51b815260206004820152602960248201527f4552433732313a206f776e657220717565727920666f72206e6f6e657869737460448201526832b73a103a37b5b2b760b91b6064820152608401610617565b6008546001600160a01b03163314610b2757600080fd5b600a54610b3e9082906001600160801b03166114f4565b600a80546001600160801b03908116600090815260076020526040812042905582549091169190610b6e836123ea565b91906101000a8154816001600160801b0302191690836001600160801b031602179055505050565b60098054610ba3906123b5565b80601f0160208091040260200160405190810160405280929190818152602001828054610bcf906123b5565b8015610c1c5780601f10610bf157610100808354040283529160200191610c1c565b820191906000526020600020905b815481529060010190602001808311610bff57829003601f168201915b505050505081565b60006001600160a01b038216610c8f5760405162461bcd60e51b815260206004820152602a60248201527f4552433732313a2062616c616e636520717565727920666f7220746865207a65604482015269726f206164647265737360b01b6064820152608401610617565b506001600160a01b031660009081526003602052604090205490565b6000610cb6836111d8565b610cd25760405162461bcd60e51b815260040161061790612287565b6000838152600660205260409020805483908110610cf257610cf261246c565b906000526020600020906003020160010154905092915050565b60606001805461052c906123b5565b610d2633838361150e565b5050565b6000610d35826111d8565b610d515760405162461bcd60e51b815260040161061790612287565b5060009081526006602052604090205490565b6000610d6f826111d8565b610d8b5760405162461bcd60e51b815260040161061790612287565b60005b600083815260066020526040902054811015610df5576000838152600660205260409020805482908110610dc457610dc461246c565b90600052602060002090600302016001015482610de19190612327565b915080610ded81612411565b915050610d8e565b50919050565b610e053383611263565b610e215760405162461bcd60e51b8152600401610617906122d6565b610e2d848484846115d5565b50505050565b6060610e3e826111d8565b610e5a5760405162461bcd60e51b815260040161061790612287565b6104b182610f43565b6000610e6e826111d8565b610e8a5760405162461bcd60e51b815260040161061790612287565b6000828152600760205260409020546201518090610ea89042612372565b6104b1919061233f565b6000610ebd826111d8565b610ed95760405162461bcd60e51b815260040161061790612287565b60005b600083815260066020526040902054811015610df5576000838152600660205260409020805482908110610f1257610f1261246c565b90600052602060002090600302016002015482610f2f9190612327565b915080610f3b81612411565b915050610edc565b60606000610f5083610783565b905060606001821115610f7d576040518060800160405280605a815260200161265b605a91399050611014565b6002821115610fa65760405180608001604052806058815260200161250c605891399050611014565b6003821115610fcf576040518060800160405280605c81526020016125a4605c91399050611014565b6004821115610ff8576040518060800160405280605b8152602001612600605b91399050611014565b6040518060800160405280605a81526020016124b2605a913990505b600061101e61051d565b61102661051d565b8361103086611608565b6040516020016110439493929190612055565b604051602081830303815290604052905061107c816040516020016110689190611fa1565b604051602081830303815290604052611706565b60405160200161108c91906121a0565b6040516020818303038152906040529350505050919050565b60606110b0826111d8565b6110cc5760405162461bcd60e51b815260040161061790612287565b604080516020810190915260008082525b6000848152600660205260409020548110156111d15760008481526006602052604090205461110d826001612327565b101561116b5760008481526006602052604090208054839190839081106111365761113661246c565b9060005260206000209060030201600001604051602001611158929190612004565b60408051601f19818403019052526111bf565b600084815260066020526040902080548391908390811061118e5761118e61246c565b90600052602060002090600302016000016040516020016111b0929190611fbd565b60408051601f19818403019052525b806111c981612411565b9150506110dd565b5092915050565b6000908152600260205260409020546001600160a01b0316151590565b600081815260046020526040902080546001600160a01b0319166001600160a01b038416908117909155819061122a82610a99565b6001600160a01b03167f8c5be1e5ebec7d5bd14f71427d1e84f3dd0314c0f7b2291e5b200ac8c7c3b92560405160405180910390a45050565b600061126e826111d8565b6112cf5760405162461bcd60e51b815260206004820152602c60248201527f4552433732313a206f70657261746f7220717565727920666f72206e6f6e657860448201526b34b9ba32b73a103a37b5b2b760a11b6064820152608401610617565b60006112da83610a99565b9050806001600160a01b0316846001600160a01b0316148061132157506001600160a01b0380821660009081526005602090815260408083209388168352929052205460ff165b806113455750836001600160a01b031661133a846105af565b6001600160a01b0316145b949350505050565b826001600160a01b031661136082610a99565b6001600160a01b0316146113c45760405162461bcd60e51b815260206004820152602560248201527f4552433732313a207472616e736665722066726f6d20696e636f72726563742060448201526437bbb732b960d91b6064820152608401610617565b6001600160a01b0382166114265760405162461bcd60e51b8152602060048201526024808201527f4552433732313a207472616e7366657220746f20746865207a65726f206164646044820152637265737360e01b6064820152608401610617565b61143183838361186e565b61143c6000826111f5565b6001600160a01b0383166000908152600360205260408120805460019290611465908490612372565b90915550506001600160a01b0382166000908152600360205260408120805460019290611493908490612327565b909155505060008181526002602052604080822080546001600160a01b0319166001600160a01b0386811691821790925591518493918716917fddf252ad1be2c89b69c2b068fc378daa952ba7f163c4a11628f55a4df523b3ef91a4505050565b610d268282604051806020016040528060008152506118d4565b816001600160a01b0316836001600160a01b031614156115705760405162461bcd60e51b815260206004820152601960248201527f4552433732313a20617070726f766520746f2063616c6c6572000000000000006044820152606401610617565b6001600160a01b03838116600081815260056020908152604080832094871680845294825291829020805460ff191686151590811790915591519182527f17307eab39ab6107e8899845ad3d59bd9653f200f220920489ca2b5937696c319101610a8c565b6115e084848461134d565b6115ec84848484611907565b610e2d5760405162461bcd60e51b815260040161061790612235565b60608161162c5750506040805180820190915260018152600360fc1b602082015290565b8160005b8115611656578061164081612411565b915061164f9050600a8361233f565b9150611630565b60008167ffffffffffffffff81111561167157611671612482565b6040519080825280601f01601f19166020018201604052801561169b576020820181803683370190505b5090505b8415611345576116b0600183612372565b91506116bd600a8661242c565b6116c8906030612327565b60f81b8183815181106116dd576116dd61246c565b60200101906001600160f81b031916908160001a9053506116ff600a8661233f565b945061169f565b606081516000141561172657505060408051602081019091526000815290565b600060405180606001604052806040815260200161256460409139905060006003845160026117559190612327565b61175f919061233f565b61176a906004612353565b90506000611779826020612327565b67ffffffffffffffff81111561179157611791612482565b6040519080825280601f01601f1916602001820160405280156117bb576020820181803683370190505b509050818152600183018586518101602084015b818310156118295760039283018051603f601282901c811687015160f890811b8552600c83901c8216880151811b6001860152600683901c8216880151811b60028601529116860151901b938201939093526004016117cf565b600389510660018114611843576002811461185457611860565b613d3d60f01b600119830152611860565b603d60f81b6000198301525b509398975050505050505050565b6001600160a01b0383161561074d5760405162461bcd60e51b815260206004820152602660248201527f4552433732313a207472616e736665722066726f6d206e6f6e2d7a65726f206160448201526564647265737360d01b6064820152608401610617565b6118de8383611a14565b6118eb6000848484611907565b61074d5760405162461bcd60e51b815260040161061790612235565b60006001600160a01b0384163b15611a0957604051630a85bd0160e11b81526001600160a01b0385169063150b7a029061194b9033908990889088906004016121e5565b602060405180830381600087803b15801561196557600080fd5b505af1925050508015611995575060408051601f3d908101601f1916820190925261199291810190611e0e565b60015b6119ef573d8080156119c3576040519150601f19603f3d011682016040523d82523d6000602084013e6119c8565b606091505b5080516119e75760405162461bcd60e51b815260040161061790612235565b805181602001fd5b6001600160e01b031916630a85bd0160e11b149050611345565b506001949350505050565b6001600160a01b038216611a6a5760405162461bcd60e51b815260206004820181905260248201527f4552433732313a206d696e7420746f20746865207a65726f20616464726573736044820152606401610617565b611a73816111d8565b15611ac05760405162461bcd60e51b815260206004820152601c60248201527f4552433732313a20746f6b656e20616c7265616479206d696e746564000000006044820152606401610617565b611acc6000838361186e565b6001600160a01b0382166000908152600360205260408120805460019290611af5908490612327565b909155505060008181526002602052604080822080546001600160a01b0319166001600160a01b03861690811790915590518392907fddf252ad1be2c89b69c2b068fc378daa952ba7f163c4a11628f55a4df523b3ef908290a45050565b828054611b5f906123b5565b90600052602060002090601f016020900481019282611b815760008555611bc7565b82601f10611b9a57805160ff1916838001178555611bc7565b82800160010185558215611bc7579182015b82811115611bc7578251825591602001919060010190611bac565b50611bd3929150611bd7565b5090565b5b80821115611bd35760008155600101611bd8565b600067ffffffffffffffff80841115611c0757611c07612482565b604051601f8501601f19908116603f01168101908282118183101715611c2f57611c2f612482565b81604052809350858152868686011115611c4857600080fd5b858560208301376000602087830101525050509392505050565b80356001600160a01b0381168114611c7957600080fd5b919050565b600060208284031215611c9057600080fd5b611c9982611c62565b9392505050565b60008060408385031215611cb357600080fd5b611cbc83611c62565b9150611cca60208401611c62565b90509250929050565b600080600060608486031215611ce857600080fd5b611cf184611c62565b9250611cff60208501611c62565b9150604084013590509250925092565b60008060008060808587031215611d2557600080fd5b611d2e85611c62565b9350611d3c60208601611c62565b925060408501359150606085013567ffffffffffffffff811115611d5f57600080fd5b8501601f81018713611d7057600080fd5b611d7f87823560208401611bec565b91505092959194509250565b60008060408385031215611d9e57600080fd5b611da783611c62565b915060208301358015158114611dbc57600080fd5b809150509250929050565b60008060408385031215611dda57600080fd5b611de383611c62565b946020939093013593505050565b600060208284031215611e0357600080fd5b8135611c9981612498565b600060208284031215611e2057600080fd5b8151611c9981612498565b60008060408385031215611e3e57600080fd5b823567ffffffffffffffff811115611e5557600080fd5b8301601f81018513611e6657600080fd5b611e7585823560208401611bec565b95602094909401359450505050565b600060208284031215611e9657600080fd5b5035919050565b60008060408385031215611eb057600080fd5b50508035926020909101359150565b60008151808452611ed7816020860160208601612389565b601f01601f19169290920160200192915050565b60008151611efd818560208601612389565b9290920192915050565b8054600090600181811c9080831680611f2157607f831692505b6020808410821415611f4357634e487b7160e01b600052602260045260246000fd5b818015611f575760018114611f6857611f95565b60ff19861689528489019650611f95565b60008881526020902060005b86811015611f8d5781548b820152908501908301611f74565b505084890196505b50505050505092915050565b60008251611fb3818460208701612389565b9190910192915050565b60008351611fcf818460208801612389565b7468747470733a2f2f697066732e696f2f697066732f60581b908301908152611ffb6015820185611f07565b95945050505050565b60008351612016818460208801612389565b7468747470733a2f2f697066732e696f2f697066732f60581b9083019081526120426015820185611f07565b600b60fa1b815260010195945050505050565b683d913730b6b2911d1160b91b8152845160009061207a816009850160208a01612389565b6a0204d656d626572736869760ac1b600991840191820181905271111610113232b9b1b934b83a34b7b7111d1160711b601483015286516120c2816026850160208b01612389565b60269201918201526c1116101134b6b0b3b2911d101160991b603182015284516120f381603e840160208901612389565b7f222c202261747472696275746573223a205b7b2274726169745f74797065223a9101603e810191909152720891dbdd995c9b985b98d94814d8dbdc99488b606a1b605e82015268113b30b63ab2911d1160b91b607182015261216b61215c607a830186611eeb565b62227d5d60e81b815260030190565b979650505050505050565b7468747470733a2f2f697066732e696f2f697066732f60581b81526000611c996015830184611f07565b7f646174613a6170706c69636174696f6e2f6a736f6e3b6261736536342c0000008152600082516121d881601d850160208701612389565b91909101601d0192915050565b6001600160a01b038581168252841660208201526040810183905260806060820181905260009061221890830184611ebf565b9695505050505050565b602081526000611c996020830184611ebf565b60208082526032908201527f4552433732313a207472616e7366657220746f206e6f6e20455243373231526560408201527131b2b4bb32b91034b6b83632b6b2b73a32b960711b606082015260800190565b6020808252602f908201527f4552433732314d657461646174613a2055524920717565727920666f72206e6f60408201526e3732bc34b9ba32b73a103a37b5b2b760891b606082015260800190565b60208082526031908201527f4552433732313a207472616e736665722063616c6c6572206973206e6f74206f6040820152701ddb995c881b9bdc88185c1c1c9bdd9959607a1b606082015260800190565b6000821982111561233a5761233a612440565b500190565b60008261234e5761234e612456565b500490565b600081600019048311821515161561236d5761236d612440565b500290565b60008282101561238457612384612440565b500390565b60005b838110156123a457818101518382015260200161238c565b83811115610e2d5750506000910152565b600181811c908216806123c957607f821691505b60208210811415610df557634e487b7160e01b600052602260045260246000fd5b60006001600160801b038083168181141561240757612407612440565b6001019392505050565b600060001982141561242557612425612440565b5060010190565b60008261243b5761243b612456565b500690565b634e487b7160e01b600052601160045260246000fd5b634e487b7160e01b600052601260045260246000fd5b634e487b7160e01b600052603260045260246000fd5b634e487b7160e01b600052604160045260246000fd5b6001600160e01b0319811681146124ae57600080fd5b5056fe68747470733a2f2f6c696e6b2e73746f726a73686172652e696f2f6a75627a7633676b6777657a35663435783772676976376e733732612f64656d6f2d6275636b657425324669636f6e2d72616e6b2d62726f6e7a652e706e6768747470733a2f2f6c696e6b2e73746f726a73686172652e696f2f6a7534646c6578366f366c79666a7177787772633736756135637a712f64656d6f2d6275636b657425324669636f6e2d72616e6b2d676f6c642e706e674142434445464748494a4b4c4d4e4f505152535455565758595a6162636465666768696a6b6c6d6e6f707172737475767778797a303132333435363738392b2f68747470733a2f2f6c696e6b2e73746f726a73686172652e696f2f6a7869616f76696b6b757763757066716b717565696e6e6e6f366b712f64656d6f2d6275636b657425324669636f6e2d72616e6b2d706c6174696e756d2e706e6768747470733a2f2f6c696e6b2e73746f726a73686172652e696f2f6a75726b63627a366b6163776e6a65667235626872727563766664712f64656d6f2d6275636b657425324669636f6e2d72616e6b2d6469616d6f6e642e706e6768747470733a2f2f6c696e6b2e73746f726a73686172652e696f2f6a7678726a3473766e666e7a3636346c6e706f61776d776e7a7532712f64656d6f2d6275636b657425324669636f6e2d72616e6b2d73696c7665722e706e67a264697066735822122012bd6d2f36fbf22d5baee8a51565b07ea5aa9c5786dea658d6e2a9eeb2e380ea64736f6c63430008070033a2646970667358221220208ff38a5fbd273ca28b59725a4277c47f6ac4ba35253828d874dee3a4f3183064736f6c63430008070033",
  "devdoc": {
    "kind": "dev",
    "methods": {},
    "version": 1
  },
  "userdoc": {
    "kind": "user",
    "methods": {},
    "version": 1
  },
  "storageLayout": {
    "storage": [
      {
        "astId": 2843,
        "contract": "contracts/PewNFTFactory.sol:PewNFTFactory",
        "label": "collectionsCounter",
        "offset": 0,
        "slot": "0",
        "type": "t_uint256"
      },
      {
        "astId": 2848,
        "contract": "contracts/PewNFTFactory.sol:PewNFTFactory",
        "label": "collections",
        "offset": 0,
        "slot": "1",
        "type": "t_mapping(t_uint256,t_contract(PewNFT)2837)"
      },
      {
        "astId": 2850,
        "contract": "contracts/PewNFTFactory.sol:PewNFTFactory",
        "label": "PEW_CORE",
        "offset": 0,
        "slot": "2",
        "type": "t_address"
      }
    ],
    "types": {
      "t_address": {
        "encoding": "inplace",
        "label": "address",
        "numberOfBytes": "20"
      },
      "t_contract(PewNFT)2837": {
        "encoding": "inplace",
        "label": "contract PewNFT",
        "numberOfBytes": "20"
      },
      "t_mapping(t_uint256,t_contract(PewNFT)2837)": {
        "encoding": "mapping",
        "key": "t_uint256",
        "label": "mapping(uint256 => contract PewNFT)",
        "numberOfBytes": "32",
        "value": "t_contract(PewNFT)2837"
      },
      "t_uint256": {
        "encoding": "inplace",
        "label": "uint256",
        "numberOfBytes": "32"
      }
    }
  }
}